:020000040800F2
:10000000C0DF002031030008618E00087D64000815
:10001000D58C00089716000821CB000800000000CE
:100020000000000000000000000000007102000855
:100030003121000800000000CD020008BF98000830
:100040004B0300084B0300084B0300084B03000858
:100050004B0300084B030008332100084B03000842
:100060004B0300083D210008472100084B0300080E
:10007000ED1D00084B0300084B0300084B0300086C
:100080004B0300084B0300084B030008AD160008A3
:100090009D1600084B0300084B030008512100087F
:1000A0004B0300084B0300084B0300084B030008F8
:1000B0004B0300089D990008AD9900084B03000808
:1000C0004B0300084B0300084B0300084B030008D8
:1000D0004B0300084B03000891A100084B030008E4
:1000E0004B0300084B0300084B0300084B030008B8
:1000F0004B0300084B0300084B0300084B030008A8
:100100004B0300084B0300084B0300084B03000897
:100110004B0300084B0300084B0300084B03000887
:100120004B0300084B0300084B030008FD1D0008AB
:100130004B0300084B0300084B0300084B03000867
:10014000BD1600084B0300084B0300080991000886
:100150004B0300084B0300084B0300084B03000847
:100160004B0300084B0300084B0300084B03000837
:100170004B0300084B0300084B030008000000007D
:100180004B0300084B03000800F002F800F060F891
:100190000AA090E8000C82448344AAF10107DA45E2
:1001A00001D100F055F8AFF2090EBAE80F0013F0D4
:1001B000010F18BFFB1A43F001031847801101001B
:1001C000A01101000A444FF0000C10F8013B13F09D
:1001D000070408BF10F8014B1D1108BF10F8015BA0
:1001E000641E05D010F8016B641E01F8016BF9D193
:1001F00013F0080F1EBF10F8014BAD1C0C1B09D1EA
:100200006D1E58BF01F801CBFAD505E014F8016B5B
:1002100001F8016B6D1EF9D59142D6D370470000ED
:100220000023002400250026103A28BF78C1FBD8FF
:10023000520728BF30C148BF0B6070471FB510F090
:1002400054FF9DE8030000F021FA1FBD10B510BD5A
:1002500000F0AEFA1146FFF7F1FF0EF077F900F06B
:10026000CCFA03B4FFF7F2FF03BC00F0FDFA000084
:100270002C4B19680868B0E8F04F80F30988BFF389
:100280006F8F4FF0000080F311887047000000006E
:1002900008480068006880F308884FF0000080F389
:1002A000148862B661B6BFF34F8FBFF36F8F00DF64
:1002B00000BF00BF08ED00E0DFF80C00016841F46A
:1002C00070010160704700BF88ED00E0EFF3098026
:1002D000BFF36F8F134B1A681EF0100F08BF20ED8D
:1002E000108A20E9F04F106009B44FF0500080F3FD
:1002F0001188BFF34F8FBFF36F8F0FF03BFA4FF0B2
:10030000000080F3118809BC19680868B0E8F04F54
:100310001EF0100F08BFB0EC108A80F30988BFF3FD
:100320006F8F704788000020EFF305807047000052
:100330000948804709480047FEE7FEE7FEE7FEE779
:10034000FEE7FEE7FEE7FEE7FEE7FEE704480549B5
:10035000054A064B7047000089990008890100088A
:10036000C09F0020C0DF0020C0BF0020C0BF002011
:1003700070B5064600F06EF9056806F10B0020F036
:100380000704B4429CBF002070BD2B466A68BAB116
:100390001068A04210D304F1080188423CBF5068A5
:1003A000586007D35168101941601168091B01603A
:1003B00058601460101D70BD13465268002AE7D1C2
:1003C0002146284600F04EF90028DED170BD53EAE0
:1003D000020C00F069802DE9F04B4FF00006002B75
:1003E0001FBFB3FA83F503FA05F424FA05F65E405D
:1003F00012BF1643B2FA82F502FA05F4C5F12005E0
:100400001EBF22FA05FC44EA0C04203556EA044CCF
:100410004FEA144418BF641C4FF000084FF0000965
:10042000904271EB030C39D3002919BFB1FA81F75F
:1004300001FA07F6B0FA80F700FA07F6C7F12007CD
:100440001EBF20FA07FC46EA0C062037B6FBF4FC78
:10045000A7EB0507103F07F01F0BCBF120060CFAA6
:100460000BFB2CFA06F644BFB3460026202FA4BF90
:100470005E464FF0000B5BEA060C08BF4FF0010B25
:1004800019EB0B09ABFB027C48EB0608C01B06FB13
:1004900002CC0BFB03CC71EB0C01C1E70B4602460F
:1004A00041464846BDE8F08B13B54FF000004FF0D1
:1004B0000001AFF30080BDE81C407047032A40F202
:1004C000308010F0030C00F0158011F8013BBCF1F6
:1004D000020F624498BF11F801CB00F8013B38BF0E
:1004E00011F8013BA2F1040298BF00F801CB38BF1C
:1004F00000F8013B11F0030300F02580083AC0F03A
:10050000088051F8043B083A51F804CBA0E80810E1
:10051000F5E7121D5CBF51F8043B40F8043BAFF314
:100520000080D20724BF11F8013B11F801CB48BF6E
:1005300011F8012B24BF00F8013B00F801CB48BFA4
:1005400000F8012B704710B5203AC0F00B80B1E8DD
:100550001850203AA0E81850B1E81850A0E81850F8
:10056000BFF4F5AF5FEA027C24BFB1E81850A0E801
:10057000185044BF18C918C0BDE810405FEA827C1B
:1005800024BF51F8043B40F8043B08BF7047D20732
:1005900028BF31F8023B48BF11F8012B28BF20F8D3
:1005A000023B48BF00F8012B704702F0FF0343EA0B
:1005B000032242EA024200F002B84FF0000204298E
:1005C000C0F0128010F0030C00F01B80CCF1040C82
:1005D000BCF1020F18BF00F8012BA8BF20F8022BB6
:1005E000A1EB0C0100F00DB85FEAC17C24BF00F85C
:1005F000012B00F8012B48BF00F8012B70474FF08A
:10060000000200B5134694469646203922BFA0E862
:100610000C50A0E80C50B1F12001BFF4F7AF09076E
:1006200028BFA0E80C5048BF0CC05DF804EB89005F
:1006300028BF40F8042B08BF704748BF20F8022BA2
:1006400011F0804F18BF00F8012B704770477047BA
:100650007047000000487047689F0020704770474F
:100660007047704738B504460A4600206946AFF324
:100670000080002808BF38BD02460099204600F0DF
:1006800075F8012038BD012000F08AB8F8B5AFF345
:100690000080054600200C46102000BF0646A81921
:1006A000A0420DD9324669460020AFF30080070012
:1006B00008BF00F075F80098A04218BF0546C4199D
:1006C000FFF7C8FF05600746F01D20F00700461938
:1006D000284600F00AF8B44208BFF8BDA21B314614
:1006E0003868BDE8F84000F041B800210160C0E979
:1006F000011070471020704770B50446051FFFF7C2
:10070000A9FF0068002C14BF446870BD002C18BFFE
:10071000AC423CBF20466468F8D301680A18AA427C
:1007200018BF456003D12A68054611440160286856
:100730004119A1421CBF6C6070BD6168696021688D
:100740000844286070BD10B500F00CF8006810BDBA
:1007500010B5044600F006F8046010BD004870476C
:10076000609F002000487047609F0020034640685B
:100770008C46002818BF88423CBF03464068F8D327
:1007800018681844884207D00CF1030020F00700D5
:10079000001D411A521A0146081D0A60FFF7ACBF3E
:1007A00010B500F039F8BDE8104000F02FB87047E0
:1007B0007546FFF7D3FFAE4605006946534620F065
:1007C0000700854618B020B5FFF7C0FDBDE8204002
:1007D0004FF000064FF000074FF000084FF0000BFD
:1007E00021F00701AC46ACE8C009ACE8C009ACE8B0
:1007F000C009ACE8C0098D46704710B50446AFF398
:1008000000802046BDE81040FFF72BBD002801D036
:1008100000F02AB87047000010B5012805D000216B
:1008200003A000F027F8012010BD09A1F8E700009F
:1008300053494752544D454D3A204F7574206F66C9
:100840002068656170206D656D6F72790000000031
:100850003A2048656170206D656D6F727920636F15
:10086000727275707465640001491820ABBEFEE7B2
:100870002600020070B505460C460A2000E06D1CFB
:1008800000F011F835B128780028F8D102E0641C96
:1008900000F009F814B120780028F8D1BDE87040C4
:1008A0000A20AFF3008008B569468DF800000320E8
:1008B000ABBE08BD2DE9F04103880F88BB423FD194
:1008C00047884E88B7423BD11688B34238D1568804
:1008D000B74235D1466854684D6807FB03F80020DD
:1008E000B0EB980F1BD04FEA980047423068296858
:1008F00010F01BFB20607068696810F016FB6060E8
:10090000B068A96810F011FBA060F068E96810F009
:100910000CFBE0601034103510360137E6D118F0CA
:1009200003000BD0474200BF56F8040B55F8041BD8
:1009300010F0FBFA44F8040B0137F5D1002000E079
:10094000FD2040B2BDE8F0814360428001807047E5
:100950002DE9F04F93B0B0F802A0B0F800B0D34545
:1009600040F05D810A88FD25934540F059814B8810
:100970009A4240F055814768BBF1000F00F0398181
:100980004C686FF00300019700274FF07E585E46D9
:10099000CDF820A000EB8B0920460494BBEB0600A9
:1009A00008D0B9002046FFF72AFE002001300434A9
:1009B0008742FBD104F1040A751EC4F800800FD0F1
:1009C000A9EB87015046FFF71AFE0120544600BFED
:1009D000013004348642FBD10137002D2E46DDD193
:1009E000019FDDF820A0BBF1000F00F00281042080
:1009F00007EB8A023C1DABF101080021CDF824A0D1
:100A0000CDF81CB000EB8A000290CAF100000B90F8
:100A10004FEA8A00129000BF594580F0058101FB22
:100A20000AF0109104990597002593460392CDF89A
:100A3000188057F8209001EB800107EB80004F46AB
:100A40000E910D9008E000BF1298DBF80070A8F13D
:100A500001083546584483463846002110F08AFA8A
:100A600040B93846294610F077FA00283E4608D0AB
:100A700008E000BF87F000462846314610F081FAB2
:100A800000B92E46B8F1000FDED13046002110F03B
:100A900055FA002840F0C88029F00040314610F097
:100AA0004DFADDE9062140B91098C043401804D042
:100AB000002000BF01308242FCD14846002110F0E6
:100AC0003DFA099E002840F0AF800D994FF07E500E
:100AD0000F9408601098AAEB0001012908460C91B8
:100AE0000BD00F9D012400BF2868494610F05CFA26
:100AF000013445F8040BA642F6D10B9C0E9D00BFB5
:100B00002868494610F050FA45F8040B0134F7D133
:100B10000C98DDF81C804FF0000B01380A90DDE9DD
:100B20000465DDE90F4100BF8B4505D10C9806EB4C
:100B30008A0605EB80053CE00D98D5F80090016829
:100B4000484610F083FA0146484610F0D8FA45F8B6
:100B5000040B0A98E0B1CDF84480DDF82480012729
:100B60004FF0000A54F80A10484610F06FFA014698
:100B700055F80A0010F0C3FA013745F80A000AF1E7
:100B8000040AB845EED15544DDF820A0DDF84480D4
:100B90000B9F0E9C54F8041B484610F057FA014670
:100BA000306810F0ACFA46F8040B0137F2D1DDE9F9
:100BB0000F4105EB81050BF1010BB8F10108B3D131
:100BC0000298039ADDF81880059FDDF81CB001310A
:100BD000044402440998A8F1010804370138099037
:100BE0007FF41AAF48460021002510F0A7F9019FB5
:100BF000B0B10AFB0BF50024002645B1386800218E
:100C000010F09CF918B101360437AE42F6D3AE426B
:100C100008BF6FF00404204613B0BDE8F08FFD2537
:100C200068B213B0BDE8F08FFB25F9E72DE9F04F6E
:100C300091B047880B889F4240F0AF8006881388A8
:100C40009E4240F0AA804D8853889D4240F0A58086
:100C500052684FF0000949684FEA850805960497E5
:100C6000039502924268A9EB97000191079027F043
:100C7000030002EB80000C920990B8080B906843C7
:100C800001EB00102946009007F003000A90404253
:100C9000069000BF029800EB890ADDE9000BCDF851
:100CA000209010900B980F91002847D0CDF838A0D5
:100CB000CDF834B0D946DDF81CA0DDF830B0002402
:100CC0009BE8C100D9F80010DBF80C5010F0BEF919
:100CD0000146204610F029F959F80810044630461C
:100CE00010F0B4F90146204610F01FF909EB080690
:100CF0000446384656F8081010F0A8F90146204678
:100D000010F013F946440446284656F8081010F02F
:100D10009DF90146204610F008F9044606EB08004C
:100D20000BF1100B1AF1010A00EB0809C8D1109D54
:100D3000DDE90896DDE90DBA03E000BF0C9E002452
:100D40005D460A9868B1069F56F8040B296810F0B2
:100D50007DF90146204610F0E8F804464544013785
:100D6000F2D110980F994AF8044B0BF1040B0430A0
:100D70000139109096D10498099901EB80010991ED
:100D80000C9901EB800105980C9103990138894475
:100D900005907FF47FAF002000E0FD2040B211B04D
:100DA000BDE8F08F2DE9F04103880F88BB423FD1A9
:100DB00047884E88B7423BD11688B34238D156880F
:100DC000B74235D1466854684D6807FB03F80020E8
:100DD000B0EB980F1BD04FEA980047423068296863
:100DE00010F08DF920607068696810F088F9606013
:100DF000B068A96810F083F9A060F068E96810F0A5
:100E00007EF9E0601034103510360137E6D118F065
:100E100003000BD0474200BF56F8040B55F8041BE3
:100E200010F06DF944F8040B0137F5D1002000E013
:100E3000FD2040B2BDE8F0812DE9F04F82B0B0F85E
:100E400000E04B889E454BD144880B889C4247D19B
:100E500000234E6804F0030B40684FEA0E184FEA77
:100E6000940AA3EB9401CBF1000901914FEA8E01A2
:100E700032460096BAF1000F1CD0019F344600BFE5
:100E80002546046801372C6044686C5005EB01046A
:100E9000D0F808C044F801C00C44C26800F110004A
:100EA000625004EB010202EB0104E9D105EB0807F3
:100EB00003E000BF009A02EB8307BBF1000F07D0ED
:100EC0004D4600BF50F8042B01353A600F44F9D16C
:100ED0000436BEF1010E03F10103CBD1002000E086
:100EE000FD2040B202B0BDE8F08F000010B5012235
:100EF0001021024802F054FB10BD00000000024027
:100F000010B500221021024802F04AFB10BD00007B
:100F10000000024010B501221146024802F040FBD9
:100F200010BD00000004024010B50022012102485B
:100F300002F036FB10BD00000004024010B504466C
:100F4000FFF7DEFF922000F0DFF90622B2491220FF
:100F500000F0BAF9FFF7CAFFAF484078000200B2CC
:100F6000AD4909780843AD4908800846B0F900004A
:100F700000EE100AB8EEC00AA94880ED000A084643
:100F8000B0F9000000EE100AB8EEC00AA548D0ED96
:100F9000000A20EE200AD4ED080A20EE200A84ED93
:100FA000000A9D48C078000200B29B498978084336
:100FB0009A4908800846B0F9000000EE100AB8EE21
:100FC000C00A974880ED010A0846B0F9000000EE1B
:100FD000100AB8EEC00A9348D0ED000A20EE200AAD
:100FE000D4ED080A20EE200A84ED010A8A484079EF
:100FF000000200B2884909790843884908800846F8
:10100000B0F9000000EE100AB8EEC00A844880ED86
:10101000020A0846B0F9000000EE100AB8EEC00A55
:101020008048D0ED000A20EE200AD4ED080A20EE18
:10103000200A84ED020AFFF777FF08227649002094
:1010400000F042F9FFF766FF734800780F286CD173
:1010500075480078002869D06F48C078000200B257
:101060006D49897808436D4908800846B0F9000049
:1010700000EE100AB8EEC00A694880ED030A94ED4C
:10108000090A0846B0F9000000EE900AF8EEE00AFE
:10109000664890ED001A10EE810A84ED030A5E485E
:1010A0004079000200B25C49097908435B49088035
:1010B0000846B0F9000000EE100AB8EEC00A584821
:1010C00080ED040A94ED0A0A0846B0F9000000EE2B
:1010D000900AF8EEE00A554890ED001A10EE810AE9
:1010E00084ED040A4C48C079000200B24A4989796B
:1010F00008434A4908800846B0F9000000EE100A8B
:10110000B8EEC00A464880ED050A94ED0B0A084681
:10111000B0F9000000EE900AF8EEE00A434890EDC6
:10112000001A10EE810A84ED050A44E03A48C078BE
:10113000000200B2384989780843384908800846D7
:10114000B0F9000000EE100AB8EEC00A3748D0ED42
:10115000000A20EE200A84ED030A2F48407900029D
:1011600000B22D49097908432C4908800846B0F996
:10117000000000EE100AB8EEC00A2C48D0ED000ABC
:1011800020EE200A84ED040A2348C079000200B250
:10119000214989790843214908800846B0F90000AF
:1011A00000EE100AB8EEC00A2048D0ED000A20EE8A
:1011B000200A84ED050AFFF7A3FEA22000F0A4F8A0
:1011C00002221549222000F07FF8FFF78FFE124817
:1011D0000078C0001049497840EA61100F49088042
:1011E0000846B0F90000B0F5806F05DB08460088BE
:1011F000A0F5006000B208800848B0F9000000EED9
:10120000100AF8EEC00AB4EE001AB3EE070A00EEB8
:10121000810A84ED070A10BDCE050020D605002006
:10122000489F002090050020A00500209405002084
:1012300070B504460D461C48046000201B49087028
:101240000CF014FC194909780843184908700CF08F
:10125000C3FC164909780843144908701DB11448A5
:1012600000F07EFA1CE09FED130A114880ED090A98
:101270009FED110A80ED0A0A9FED0F0A80ED0B0A1F
:101280009FED0E0A80ED0C0A90ED0C0ADFED0C0AC2
:1012900080EE801A80ED081A9FED0A0A80ED060A9A
:1012A0000248007870BD0000D80500209A05002093
:1012B000149F0020AC38223BB016CE393F161B419C
:1012C000C3F51C410000204270B506460C46154689
:1012D00046F0800000F018F806E0552000F014F801
:1012E0002070641C681EC5B2002DF6D170BD70B5AB
:1012F00004460D4644F0800000F006F8552000F04A
:1013000003F8287070BD000001B582B04FF47A7008
:10131000012301AA02A900900348006803F0F8FE27
:101320009DF804000EBD0000D805002070B50546EC
:101330000C462846FFF7E8FF2046FFF7E5FF70BDA3
:1013400010B52DED0E8B044694ED010AD4ED020A82
:10135000B2EE0E1A10EE810A704880ED000A9FED81
:10136000700B0BF0D5FEB0EE40BAF0EE60BA94ED23
:10137000000A10EE101A08460FF0ACFD41EC1C0BF1
:1013800053EC1B2B0FF0B2FB41EC190B9FED640BE0
:101390000BF05AFEB0EE40DAF0EE60DA94ED010A9E
:1013A00010EE101A08460FF095FD41EC1E0B53ECA1
:1013B0001D2B0FF09BFB41EC1B0B94ED020AF2EE90
:1013C0000E0A20EE200A10EE101A08460FF082FDD9
:1013D00041EC1C0B53EC1B2B0FF02EF941EC1A0BBC
:1013E00053EC192B0FF028F941EC180B0FF0F2F821
:1013F0004A4908619FED4A0B0BF08AFEB0EE40BAF5
:10140000F0EE60BA94ED000A10EE101A08460FF0E4
:1014100061FD41EC1C0B53EC1B2B0FF067FB41EC07
:10142000190B9FED3F0B0BF00FFEB0EE40DAF0EE24
:1014300060DA94ED010A10EE101A08460FF04AFD2A
:1014400041EC1E0B53EC1D2B0FF050FB41EC1B0B22
:1014500094ED020AF2EE0E0A20EE200A10EE101AA7
:1014600008460FF037FD41EC1C0B53EC1B2B0FF023
:10147000E3F841EC1A0B53EC192B0FF041FC41EC53
:10148000180B0FF0A7F825490862084690ED000AEE
:10149000DFED250A20EE200A80ED010A90ED040A16
:1014A000DFED210A20EE200A80ED050A90ED080A02
:1014B000DFED1D0A20EE200A80ED090A90ED010AF9
:1014C000DFED1A0A20EE200ABDEEC00A10EE100A67
:1014D00000B21749A1F8AF00104890ED050ADFED02
:1014E000130A20EE200ABDEEC00A10EE100A00B268
:1014F0001049A1F8AF00094890ED090ADFED0B0A89
:1015000020EE200ABDEEC00A10EE100A00B20A4911
:10151000A1F8AF00BDEC0E8B10BD000004930020BD
:10152000000000A025BFF03FBABD1E4000001042E1
:10153000C49300208594002046950020D2ED020A35
:1015400092ED021AB6EE000A00EEC10AD2ED030ACD
:1015500092ED031A00EEC10AD0ED000A20EE200A37
:10156000D2ED010A92ED021A60EE810A92ED001AA4
:10157000D2ED031A41EE610A90ED011A00EE810AE4
:10158000D2ED010A92ED031A60EE810A92ED001A83
:10159000D2ED021A41EE210A90ED021A00EE810A04
:1015A000F0EE000A20EE200A81ED000A92ED010A19
:1015B000D2ED020A20EE200AD2ED000A92ED031AC3
:1015C00000EE810AD0ED000A60EE200A92ED011AC9
:1015D000D2ED011AB6EE000A01EE610AD2ED031A4D
:1015E00092ED032AB0EE401A01EEC21AD0ED011AB4
:1015F000B0EE600A01EE210AD2ED020A92ED031A62
:1016000060EE810A92ED001AD2ED011A41EE610AF4
:1016100090ED021A00EE810AF0EE000A20EE200A98
:1016200081ED010A92ED010AD2ED030A20EE200AB3
:10163000D2ED000A92ED021A00EEC10AD0ED000AC6
:1016400020EE200AD2ED020A92ED031A60EE810A22
:1016500092ED001AD2ED011A41EE210A90ED011A25
:1016600000EE810A92ED011AD2ED011AF6EE000A9F
:1016700041EE610A92ED021AD2ED021A41EE610AC0
:1016800090ED021A00EE810AF0EE000A20EE200A28
:1016900081ED020A704700BFFEE7000010B5024866
:1016A00001F064F910BD0000840C002010B5024860
:1016B00001F05CF910BD0000840C002010B5024858
:1016C00001F054F910BD0000AC0C00200346042BBF
:1016D00015D007DC7BB1012B0ED0022B0DD0032BD4
:1016E00012D10BE0202B0BD0212B0AD0222B09D0BA
:1016F000232B09D107E008E007E006E005E004E05D
:1017000003E002E001E000E000BF00BF00207047FE
:101710000020704710B500220449054808F0DBFF9F
:101720000449034808F0C8FF002010BDF81D002040
:101730001C110020F815002070B504460D46214606
:10174000034808F0B9FF024808F082FF002070BD8E
:101750001C11002010B503460C460021084610BDA0
:1017600070B52DED048B88B00446002006900790DC
:1017700000F018FCFE4880ED000A00BF00F012FCEB
:10178000FB48D0ED000A30EE600AF2EE040AB4EE37
:10179000E00AF1EE10FA14DD9FEDF60A84ED090A75
:1017A0009FEDF50A84ED0A0A9FEDF30A84ED0B0A1A
:1017B0009FEDF20A84ED0C0A9FEDF10A84ED060A12
:1017C00055E29FEDF00A00F0A9FB9FEDEF0A84EDD2
:1017D0000C0A9FEDED0A84ED090A9FEDEB0A84EDFA
:1017E0000A0A9FEDE90A84ED0B0A002673E1FFF770
:1017F00087FB9220FFF788FD062206A91220FFF73B
:1018000063FDFFF773FB9DF81900000200B29DF81D
:10181000181040EA010500EE105AB8EEC00ADB4885
:10182000D0ED000A20EE200A84ED000A9DF81B008E
:10183000000200B29DF81A1040EA010500EE105AAD
:10184000B8EEC00AD148D0ED000A20EE200A84ED9F
:10185000010A9DF81D00000200B29DF81C1040EA2C
:10186000010500EE105AB8EEC00AC848D0ED000AD3
:1018700020EE200A84ED020AD4ED000A60EEA00AF0
:1018800094ED011AD4ED011A41EE210A94ED021AE9
:10189000D4ED021A41EE210AB0EE600A0BF09CFC76
:1018A000B0EE408A94ED0C0A30EE080A84ED0C0A82
:1018B000FFF73AFB082206A90020FFF705FDFFF716
:1018C00029FB9DF818000F2850D19DF81B0000023D
:1018D00000B29DF81A1040EA010500EE105AB8EE69
:1018E000C00AAB48D0ED000A20EE200A84ED030ABE
:1018F00094ED090AD4ED030A30EE200A84ED090ABA
:101900009DF81D00000200B29DF81C1040EA010580
:1019100000EE105AB8EEC00A9D48D0ED000A20EE45
:10192000200A84ED040A94ED0A0AD4ED040A30EE8C
:10193000200A84ED0A0A9DF81F00000200B29DF8FB
:101940001E1040EA010500EE105AB8EEC00A904899
:10195000D0ED000A20EE200A84ED050A94ED0B0A72
:10196000D4ED050A30EE200A84ED0B0A06BBF0EE3A
:10197000488AB0EE489A002017E004F10C0101EB10
:10198000800191ED000A03A901EB800181ED000ABD
:1019900004F10C0101EB800191ED000A694601EBB5
:1019A000800181ED000A411CC8B20328E5DB49E053
:1019B000B4EEE88AF1EE10FA01DDF0EE488AB4EEFA
:1019C000C98AF1EE10FA01D2B0EE489A002037E051
:1019D00004F10C0101EB800191ED000A03A901EB78
:1019E0008001D1ED000AB4EEE00AF1EE10FA0ADD52
:1019F00004F10C0101EB800191ED000A03A901EB58
:101A0000800181ED000A04F10C0101EB800191EDF0
:101A1000000A694601EB8001D1ED000AB4EEE00A4C
:101A2000F1EE10FA0AD204F10C0101EB800191ED04
:101A3000000A694601EB800181ED000A411CC8B231
:101A40000328C5DB38EEC90A524880ED000A0020A1
:101A500012E003A901EB800191ED000A694601EB58
:101A60008001D1ED000A30EE600A4B4901EB8001A4
:101A700081ED000A411CC8B20328EADB454890ED1D
:101A8000000AF6EE000AB4EEE00AF1EE10FA1BDCF2
:101A9000414890ED000ADFED410AB4EEE00AF1EEB4
:101AA00010FA11DC90ED010ADFED3C0AB4EEE00A19
:101AB000F1EE10FA08DC90ED020ADFED380AB4EE20
:101AC000E00AF1EE10FA00DD0AE09FED350A00F0C1
:101AD00025FA701C86B2334800888642FFF687AE2E
:101AE00000BFD4ED0C0A2F48008800EE100AB8EEB3
:101AF000400A80EE801A84ED0C1A002015E004F1F3
:101B0000240101EB8001D1ED000A2649098800EE8D
:101B1000101AB8EE400A80EE801A04F1240101EB9D
:101B2000800181ED001A411CC8B20328E7DBFFF7F2
:101B3000E7F9A220FFF7E8FB022206A92220FFF71F
:101B4000C3FBFFF7D3F99DF81800C0009DF81910EA
:101B500040EA6115B5F5806F02DBA5F5006005B2BE
:101B600000EE105AF8EEC00AB4EE001A1CE00000B5
:101B7000C8050020AC38223BB016CE393F161B41B9
:101B8000000020420AD7A33B00000000900500207F
:101B9000940500209C050020089F00209A99193E7A
:101BA0006F12033ACC050020B3EE070A00EE810A5B
:101BB00084ED060A34480088401C00B2324908808F
:101BC000324890ED000AF6EE000AB4EEE00AF1EEBB
:101BD00010FA3FF7D3AD94ED0C0ADFED2D0A30EE8D
:101BE000600AB0EEC00AF6EE000AB4EEE00AF1EECA
:101BF00010FAEEDC274890ED000A5FED180AB4EE0B
:101C0000E00AF1EE10FAE4DC90ED010A5FED1D0A46
:101C1000B4EEE00AF1EE10FADBDC90ED020A5FEDC3
:101C2000210AB4EEE00AF1EE10FAD2DC94ED090AD2
:101C3000B0EEC00ADFED180AB4EEE00AF1EE10FAD9
:101C4000C7DC94ED0A0AB0EEC00ADFED130AB4EE69
:101C5000E00AF1EE10FABCDC94ED0B0AB0EEC00A1B
:101C6000DFED0D0AB4EEE00AF1EE10FAB1DC00BFD0
:101C700094ED0C0ADFED090A80EE801A84ED081A53
:101C800008B0BDEC048B70BDA20500209C050020AF
:101C9000CDCC1C41089F00200AD7233CC3F51C4132
:101CA00010B52F48B0F9AF0001EE100AB8EEC11A16
:101CB000F0EE410A2A48B0F9B50001EE100AB8EE7C
:101CC000C11AB0EE410A2648401D07F054FBBDEE94
:101CD000C00A10EE100A01B22148A0F8B310214842
:101CE000B0F9AF0001EE100AB8EEC11AF0EE410AE9
:101CF0001C48B0F9B50001EE100AB8EEC11AB0EEFA
:101D0000410A1848401D07F036FBBDEEC00A10EE30
:101D1000100A01B21348A0F8B3101348B0F9AF008D
:101D200001EE100AB8EEC11AF0EE410A0E48B0F901
:101D3000B50001EE100AB8EEC11AB0EE410A0A4829
:101D4000401D07F018FBBDEEC00A10EE100A01B2EC
:101D50000548A0F8B31005480CF07CF810BD000051
:101D6000C49300208594002046950020FB9200201B
:101D700010B5B3EE020A064880ED000AD0ED000A65
:101D8000B0EE600A0021034807F068FD10BD0000B6
:101D9000E4010020400E0020FFF7EAFF1FE010489A
:101DA0000088642190FBF1F201FB120040B90D485C
:101DB000D0ED000AB0EE600A00210B4807F04EFD9E
:101DC00007480088401C0649088008460088B0F58E
:101DD0007A7F01D1002008800A200DF0EBFBDEE7BE
:101DE000EC010020E4010020400E002010B5024864
:101DF00001F022F910BD0000BC10002010B502480F
:101E000001F01AF910BD0000E00D0020014608782D
:101E100010381823B0FBF3F20848805CC865032A29
:101E200005D908686FF30900001D886503E008689C
:101E30006FF309008865886D704700002C11010858
:101E4000014600208A6A8B69CBB932B1012A0DD0D4
:101E5000022A03D0032A10D10EE000BFCB6A03F0A0
:101E60008073B3F1807F00D1012007E0CB6AB3F12A
:101E7000C07F00D1012001E000E000BF34E08B69A9
:101E8000B3F5005F1AD132B1012A07D0022A03D07C
:101E9000032A11D10AE000BF01200EE0CB6A03F053
:101EA0008073B3F1807F00D1012006E0CB6AB3F1EB
:101EB000C07F00D1012000E000BF15E032B1012A4F
:101EC00005D0022A04D0032A0CD103E000BF00BFD2
:101ED000012008E0CB6A03F08073B3F1807F00D16A
:101EE000012000E000BF00BF7047000008B50848AF
:101EF00040680090074900980968884204D2064863
:101F00000068401C0449086002490098086008BD48
:101F1000001000E008020020040200200C4948687C
:101F2000F0EE400A00BF0A494968091A01EE101A8A
:101F3000F8EE411A074991ED001AB8EE411A20EE69
:101F4000811AF4EEC11AF1EE10FAECD370470000DA
:101F5000001000E0F801002010B52DED028B82B0DA
:101F600004460E484068019020680199081A00EE66
:101F7000100AF8EE400A0A4890ED000AB8EE400A4E
:101F800080EE801AB0EE418A01982060FFF7AEFF24
:101F9000B0EE480A02B0BDEC028B10BD001000E0AC
:101FA000F801002010B52DED028B00F059F80F4814
:101FB00090ED000AB8EE400A808800EE900AF8EE34
:101FC000600A9FED0B1A00EE810A0848C08800EEF7
:101FD000900AF8EE600A9FED071A00EE810AB0EE53
:101FE000408AB0EE480ABDEC028B10BDF001002023
:101FF0006F12833ABD3786351249096841F0807106
:10200000104A11600021104A51601146096841F0E0
:10201000010111600D4941430D4A116011460968E3
:102020004FF47A72B1FBF2F10A4A1160084909686B
:10203000064AB1FBF2F1084A11600021074A11601B
:1020400070470000FCED00E0001000E040420F008F
:10205000F8010020FC010020000200200402002002
:1020600038B5294840680090FFF740FF27480068CE
:102070004FF0FF31A0FB01310098181841F1000129
:10208000234A03C2234800232149026803C9FEF7FB
:102090009EF9214A03C220480CC81E48006800244B
:1020A000A2FB001503FB005002FB04021848D0E914
:1020B0000030591A60EB0200184AC2E900101648B5
:1020C000006817490860174800231449026803C9CB
:1020D000FEF77DF912498880084680881149096811
:1020E00041430E48D0E90030591A60F100000E4A11
:1020F000C2E900100D4800230B49026803C9FEF72E
:1021000066F90749C88038BD001000E004020020CD
:1021100010020020F80100201802002020020020F8
:10212000F0010020FC010020280200200002002015
:10213000704710B5012001F02BF910BD10B5082033
:1021400001F026F910BD10B5102001F021F910BDE5
:1021500010B5202001F01CF910BDD2ED020A92ED5D
:10216000021AB6EE000A00EEC10AD2ED030A92EDA1
:10217000031A00EEC10AD0ED000A20EE200AD2EDCB
:10218000010A92ED021A60EE810A92ED001AD2ED78
:10219000031A41EE210A90ED011A00EE810AD2EDF8
:1021A000010A92ED031A60EE810A92ED001AD2ED57
:1021B000021A41EE610A90ED021A00EE810AF0EE79
:1021C000000A20EE200A81ED000A92ED010AD2ED0C
:1021D000020A20EE200AD2ED000A92ED031A00EE68
:1021E000C10AD0ED000A60EE200A92ED011AD2ED8C
:1021F000011AB6EE000A01EE610AD2ED031A92ED61
:10220000032AB0EE401A01EEC21AD0ED011AB0EE68
:10221000600A01EE210AD2ED020A92ED031A60EE85
:10222000810A92ED001AD2ED011A41EE210A90EDD9
:10223000021A00EE810AF0EE000A20EE200A81ED7B
:10224000010A92ED010AD2ED030A20EE200AD2ED36
:10225000000A92ED021A00EE810AD0ED000A20EE8B
:10226000200AD2ED020A92ED031A60EE810A92ED85
:10227000001AD2ED011A41EE610A90ED011A00EE4A
:10228000810A92ED011AD2ED011AF6EE000A41EE32
:10229000610A92ED021AD2ED021A41EE610A90ED46
:1022A000021A00EE810AF0EE000A20EE200A81ED0B
:1022B000020A704772B600BFFEE700002DED108BDA
:1022C00082B0F4E07A48B0F9B50000EE100AB8EE3A
:1022D000C00ADFED780A80EE201A774880ED031AF5
:1022E0007648B0F9B50000EE100AB8EEC00AB1EEBB
:1022F000400ADFED700A80EE201A6F4880ED071A61
:102300006F48B0F9B50000EE100AB8EEC00ADFED74
:10231000690A80EE201A684880ED0B1A90ED030AD6
:10232000DFED680A20EE200A80ED020A90ED070A30
:10233000DFED640A20EE200A80ED060A90ED0B0A1C
:10234000DFED600A20EE200A80ED0A0A90ED020A15
:10235000D0ED060A30EE600AD0ED0A0A30EE200A0F
:10236000B1EE400ADFED580A80EE201A80ED111A16
:102370009FED560B0AF0CCFEB0EE40CAF0EE60CAFC
:102380004D4890ED060A10EE101A08460EF0A2FD18
:1023900041EC1D0B53EC1C2B0EF0A8FB41EC1A0B6F
:1023A0009FED4A0B0AF0B4FEB0EE40CAF0EE60CAF0
:1023B000414890ED060A10EE101A08460EF08AFD0C
:1023C00041EC1D0B53EC1C2B0EF090FB41EC190B58
:1023D00053EC1A2B0EF030F941EC180B9FED3D0B2E
:1023E00053EC102B0EF0D0F941EC1B0B0EF0F2F871
:1023F0003149C8639FED390B0AF08AFEB0EE40CA3E
:10240000F0EE60CA2C4890ED0A0A10EE101A084649
:102410000EF060FD41EC1D0B53EC1C2B0EF066FB27
:1024200041EC1A0B9FED2D0B0AF072FEB0EE40EA64
:10243000F0EE60EA204890ED060A10EE101A084609
:102440000EF048FD41EC1F0B53EC1E2B0EF04EFB23
:1024500041EC1C0B184890ED020A10EE101A0846C9
:102460000EF038FD41EC1D0B53EC1C2B0EF048FC1C
:1024700041EC1B0B53EC1A2B0EF042FC41EC190BF8
:102480000EF09CF841EC180B9FED160B53EC102B43
:102490000EF07AF9CDE900019DED000B51EC100B27
:1024A0000EF098F8044908640D200DF083F809E750
:1024B000C493002000001042049300208594002063
:1024C000469500206E6CCE3E00007042BF58F28BE5
:1024D00025BFF03F0000000000000040BF58F28B15
:1024E00025BFE03F000000000000104070B50A4822
:1024F0000468001D0568001D0668344454B10822B4
:102500000649204605F0AAF904220449103128465C
:1025100005F0A4F970BD0000107AFF1F4A000020EA
:1025200006F0DAFB0BE006480BF022FCFFF7B8FBE5
:10253000044905480CF094F80A200DF03BF8F2E746
:10254000AC900020FB920020840C002010B50246C5
:1025500092F82030012B01D0022B06D1106840697F
:10256000084314686061002010BD506A40F4802068
:1025700050620120F8E7F0B504460D461E4694F877
:10258000207020688368A86800B900E000BF012FB0
:1025900001D0022F7CD103F0806030B903F00060DD
:1025A00018B903F08050002873D0C3F301610229E9
:1025B00005D9606A40F4000060620120F0BD01208E
:1025C00088403060A86860B9B5F800C0E86840EAA3
:1025D0004C5C206800F5C07000EB0110C0F800C032
:1025E0000FE0D5E901C040EACC00D5F80CC040EAC4
:1025F0000C00D4F800C00CF5C07C0CEB011CCCF82E
:102600000000D5F810C0206800F5C07000EB011084
:10261000C0F804C0287D01280ED1206800F5C070E4
:1026200000EB0110406840F4807C206800F5C07029
:1026300000EB0110C0F804C0D079000692F806C083
:1026400040EA0C4092F805C040EA0C2C10794CEAA4
:10265000000C206800F5C07000EB0110C0F80CC041
:10266000D078000692F802C040EA0C4092F801C00F
:1026700040EA0C2092F800C040EA0C00D4F800C0F8
:102680000CF5C07C0CEB011CCCF80800206801E0C4
:1026900016E00FE000F5C07000EB0110006840F09C
:1026A000010C206800F5C07000EB0110C0F800C0FC
:1026B000002083E7606A40F40010606201207DE73B
:1026C000606A40F480206062012077E7F0B504463C
:1026D0000A46216894F82050012D01D0022D7ED1A8
:1026E000424901F50071086840F00100086008687F
:1026F00020F47C5008600868566A40EA06200860AA
:10270000107D00F01F06012000FA06F3C869984307
:10271000C861A1F50071D069C8B9D1F80C0298431D
:10272000C1F80C02908880B2968940EA064601F50D
:102730001070576940F83760108880B2168940EAF7
:10274000064601F51070576900EBC7004660D06976
:10275000012819D1D1F80C021843C1F80C02908855
:1027600080B2168840EA064601F51070576940F8B5
:102770003760908980B2168940EA064601F51070EC
:10278000576900EBC7004660906928B9D1F8040288
:102790009843C1F8040204E0D1F804021843C1F8D8
:1027A0000402106928B9D1F814029843C1F8140240
:1027B00004E0D1F814021843C1F81402106A012889
:1027C00004D1D1F81C021843C1F81C02D1F8000250
:1027D00020F00100C1F800020020F0BDFFE7606AB0
:1027E00040F4802060620120F7E7000000640040B0
:1027F000704770B5044694F82050012D01D0022D89
:102800007DD151B92068C06800F0030080B9606ACA
:1028100040F400106062012070BD2068006900F083
:10282000030028B9606A40F4001060620120F3E7F9
:10283000206800F5D87000EB0110006800F004007B
:102840009060906840B9206800F5D87000EB0110E6
:102850000068400D106007E0206800F5D87000EBBC
:1028600001100068C0085060206800F5D87000EBC7
:102870000110006800F00200D060206800F5D870F8
:1028800000EB0110406800F00F001061206800F5B7
:10289000D87000EB0110406800F47F40000A90619E
:1028A000206800F5D87000EB01104068000C506102
:1028B000206800F5D87000EB01108068187020685F
:1028C00000F5D87000EB0110806800F47F40000A2A
:1028D0005870206800F5D87000EB0110806800F493
:1028E0007F00000C9870206800F5D87000EB011094
:1028F0008068000ED870206800F5D87000E02FE0E6
:1029000000EB0110C0681871206800F5D87000EB6A
:102910000110C06800F47F40000A5871206800F57B
:10292000D87000EB0110C06800F47F00000C9871B3
:10293000206800F5D87000EB0110C068000ED87157
:1029400031B92068C06840F020002668F06005E0DA
:102950002068006940F020002668306100205BE7B5
:10296000606A40F480206062012055E72DE9F05F45
:1029700004460025206846692068D0F80490206845
:1029800087682068D0F80CA02068D0F810B02068C4
:10299000D0F8188006F00100002855D007F001009B
:1029A000C0B101202168886007F0020018B12046FC
:1029B00000F0D1FA0EE007F0040010B145F4006514
:1029C00008E007F0080010B145F4805502E0204609
:1029D00000F0C0FA07F48070C8B14FF4807021682D
:1029E000886007F4007018B1204600F0B6FA0EE0D7
:1029F00007F4806010B145F4005508E007F400606A
:102A000010B145F4804502E0204600F0A5FA07F435
:102A10008030C8B14FF480302168886007F40030FE
:102A200018B1204600F09BFA0EE007F4802010B1A8
:102A300045F4004508E007F4002010B145F4803566
:102A400002E0204600F08AFA06F0080038B10AF0E9
:102A5000100020B145F4007510202168C86006F010
:102A6000040040B10AF0080028B108202168C860BD
:102A7000204600F015FA06F0020038B12068C06860
:102A800000F0030010B1204600F00CFA06F0400000
:102A900038B10BF0100020B145F48065102021689A
:102AA000086106F0200040B10BF0080028B10820B2
:102AB00021680861204600F01BFA06F0100038B1CA
:102AC0002068006900F0030010B1204600F011FA00
:102AD00006F4003040B109F0100028B11020216840
:102AE0004860204600F006FA06F4803040B109F054
:102AF000080028B1082021684860204600F030FA1C
:102B000006F4004088B309F0040078B306F480703E
:102B100020B108F0010008B145F0010506F400708D
:102B200020B108F0020008B145F0020506F480600B
:102B300020B108F0040008B145F0040506F4006077
:102B4000A0B108F0700088B108F07000402817D0DC
:102B500006DC10280BD020280CD0302819D10CE02E
:102B6000502810D0602814D110E01DE019E045F085
:102B700008050FE045F010050CE045F0200509E0E0
:102B800045F0400506E045F0800503E045F480751A
:102B900000E000BF00BF2068806920F0700021685D
:102BA00088610420216848602DB1606A2843606212
:102BB0002046FFF71DFEBDE8F09F70B504460CB936
:102BC000012070BD94F8200010B9204600F0B0F844
:102BD0002068006840F001002168086000F0E6FC11
:102BE00005460DE000F0E2FC401B0A2808D9606AA7
:102BF00040F400306062052084F820000120E0E706
:102C00002068406800F001000028EBD020680068D0
:102C100020F002002168086000F0C8FC05460DE0C5
:102C200000F0C4FC401B0A2808D9606A40F4003058
:102C30006062052084F820000120C2E72068406817
:102C400000F002000028EBD1207E012806D1206888
:102C5000006840F080002168086005E02068006896
:102C600020F0800021680860607E012806D120687D
:102C7000006840F040002168086005E020680068B6
:102C800020F0400021680860A07E012806D120685D
:102C9000006840F020002168086005E020680068B6
:102CA00020F0200021680860E07E012806D120681D
:102CB000006820F010002168086005E020680068C6
:102CC00040F0100021680860207F012806D12068AC
:102CD000006840F008002168086005E0206800688E
:102CE00020F0080021680860607F012806D1206874
:102CF000006840F004002168086005E02068006872
:102D000020F0040021680860D4E902010843216929
:102D10000843616908436168491E08432168C86126
:102D200000206062012084F82000002049E70000B4
:102D300010B586B00446142101A8FDF760FC524985
:102D40002068884249D151480068401C4F490860BA
:102D50000846006801280FD100BF002000904C48B1
:102D6000006840F000704A4908600846006800F0BA
:102D70000070009000BF00BF00BF002000904448DA
:102D80001038006840F008004149103908600846D2
:102D9000006800F00800009000BF00BF0320019011
:102DA0000220029000200390032004900920059047
:102DB00001A9384800F0FAFA00220521132000F09A
:102DC000D1FD132000F0BEFD00220521142000F0EB
:102DD000C9FD142000F0B6FD54E02F492068884258
:102DE00050D100BF002000902948006840F080606A
:102DF000274908600846006800F08060009000BF26
:102E000000BF22480068401C20490860084600684E
:102E100001280FD100BF002000901D48006840F03D
:102E200000701B4908600846006800F000700090C0
:102E300000BF00BF00BF0020009015481038006898
:102E400040F002001249103908600846006800F09E
:102E50000200009000BF00BF60200190022002909D
:102E600000200390032004900920059001A90B483D
:102E700000F09CFA00220521402000F073FD402064
:102E800000F060FD06B010BD00640040100000209E
:102E900040380240000C024000680040000402403C
:102EA0007047000010B58AB004460D49206888427A
:102EB0000AD101AB03AA00210A48FFF79AFC03A933
:102EC00001A805F071FF09E007492068884205D193
:102ED00001AB03AA00210548FFF78BFC0AB010BD27
:102EE00000640040840C002000680040AC0C00200E
:102EF00070477047704770B5044694F82000012869
:102F000022D1022084F820002068006820F001000F
:102F10002168086000F04AFB05460DE000F046FB22
:102F2000401B0A2808D9606A40F40030606205201E
:102F300084F82000012070BD2068406800F0010086
:102F40000028EBD16062F6E7606A40F4002060621E
:102F50000120F0E77047704770477047704770472F
:102F6000704770B50446A56D00F020FB064694F846
:102F70003500022808D08020606500BF002084F85A
:102F8000340000BF012070BD2068006820F01600EA
:102F9000216808602068406920F08000216848614D
:102FA000206C08B9A06C28B12068006820F00800E7
:102FB000216808602068006820F00100216808602E
:102FC00010E000F0F3FA801B05280BD92020606583
:102FD000032084F8350000BF002084F8340000BFCF
:102FE0000320D0E72068006800F001000028E8D145
:102FF00094F85C103F208840A860012084F83500D8
:1030000000BF002084F8340000BF00BFBBE70146CA
:1030100091F83500022803D08020486501207047D0
:10302000052081F835000868006820F001000A6872
:1030300010600020F3E70000F8B50446002000907F
:103040008C4800684FF41651B0FBF1F7A56D2E685F
:1030500094F85C1008208840304098B120680068DF
:1030600000F0040070B12068006820F004002168BE
:10307000086094F85C1008208840A860606D40F0FB
:103080000100606594F85C1001208840304068B110
:103090002068406900F0800040B194F85C10012085
:1030A0008840A860606D40F00200606594F85C1094
:1030B00004208840304068B12068006800F00200B9
:1030C00040B194F85C1004208840A860606D40F026
:1030D0000400606594F85C1010208840304078B39C
:1030E0002068006800F0080050B394F85C101020CD
:1030F0008840A8602068006800F4802080B12068C3
:10310000006800F4002028B9206CC8B12046216C6A
:10311000884715E0A06C98B12046A16C88470FE065
:103120002068006800F4807028B92068006820F0EA
:10313000080021680860206C10B12046216C884787
:1031400094F85C10202088403040002865D020682A
:10315000006800F0100000285FD094F85C10202078
:103160008840A86094F83500052828D120680068B8
:1031700020F01600216808602068406920F0800077
:1031800021684861206C08B9A06C28B120680068EB
:1031900020F008002168086094F85C103F20884007
:1031A000A860012084F8350000BF002084F83400B6
:1031B00000BF206D10B12046216D8847F8BD206802
:1031C000006800F4802080B12068006800F40020CE
:1031D00028B9606C10B12046616C88471DE0E06B37
:1031E000D8B12046E16B884717E02068006800F4FA
:1031F000807068B92068006820F0100021680860BD
:10320000012084F8350000BF002084F8340000BF9E
:10321000E06B10B12046E16B8847606D38B3606D9C
:1032200000F00100F0B1052084F835002068006846
:1032300020F001002168086000BF0098401C009049
:10324000B84200D905E02068006800F001000028BD
:10325000F3D100BF012084F8350000BF002084F8BE
:10326000340000BFE06C10B12046E16C884700BF1D
:10327000A4E70000840000202DE9F0410446002569
:1032800000F094F9074614B90120BDE8F081606AA6
:1032900000B100BF022084F8350000BF002084F890
:1032A000340000BF2068006820F001002168086039
:1032B0000AE000F07BF9C01B052805D920206065D5
:1032C000032084F83500E0E72068006800F0010082
:1032D0000028EED12068056821480540D4E90101A5
:1032E0000843E16808432169084361690843A1690B
:1032F0000843E1690843216A08430543606A0428DA
:1033000003D1D4E90B010843054320680560206818
:10331000456925F00705606A0543606A04280DD1F8
:10332000A06A0543E06A48B12046FEF789FD28B14E
:1033300040206065012084F83500A6E720684561DB
:103340002046FEF763FD064694F85C103F20884057
:10335000B06000206065012084F83500002094E70B
:103360003F8010F070B5044600F020F9064625466F
:10337000681C10B104480078054400BF00F016F93D
:10338000801BA842FAD370BD800000207047000067
:1033900010B5044604480068204020B1024804608B
:1033A0002046FFF7F3FF10BD143C0140F8B502467C
:1033B0000B460025002400200021D6E0012606FA55
:1033C00001F51E6806EA0504AC4274D11E7906F0C8
:1033D0000306012E04D01E7906F00306022E13D137
:1033E00090684F000326BE40B0434F00DE68BE40E9
:1033F00030439060506801268E40B0431E79C6F37A
:1034000000168E40304350601E7906F00306032EEE
:1034100009D0D0684F000326BE40B0434F009E68DD
:10342000BE403043D0601E7906F00306022E13D151
:10343000CF0802F1200656F827004E07F70E0F2698
:10344000BE40B0434F07FF0E1E69BE403043CF0859
:1034500002F1200646F8270010684F000326BE4000
:10346000B0431E7906F003064F00BE4030431060A3
:103470005E6806F44036002E76D000BF0026009627
:103480003C4E366846F480463A4F3E603E463668CB
:1034900006F48046009600BF00BF374E8F0856F8EE
:1034A00027008E07370F0F26BE40B043334EB2427F
:1034B00002D1002624E057E0314EB24201D101266C
:1034C0001EE0304EB24201D1022619E02E4EB24229
:1034D00001D1032614E02D4EB24201D104260FE0A3
:1034E0002B4EB24201D105260AE02A4EB24201D14A
:1034F000062605E0284EB24201D1072600E0082644
:103500008F073F0FBE4030431B4E8F0846F8270001
:10351000224E3068A0435E6806F4801606B1204350
:103520001E4E3060361D3068A0435E6806F40016FB
:1035300006B12043194E361D3060184E361F3068D4
:10354000A0435E6806F4003606B12043134E361FD2
:103550003060361F3068A0435E6806F4803606B1DE
:1035600020430E4E083E3060491C1029FFF426AF60
:10357000F8BD000044380240083801400000024015
:103580000004024000080240000C0240001002400B
:103590000014024000180240001C0240083C014098
:1035A0000AB1816101E00B04836170470148006842
:1035B000704700007800002070B504460CB9012067
:1035C00070BD94F83D0028B9002084F83C002046E6
:1035D00000F0DAF8242084F83D002068006820F02C
:1035E0000100216808602068006840F400402168FC
:1035F00008602068006820F400402168086001F03D
:10360000B1F905465C496068884206D85B48854246
:1036100001D2012007E0002005E05948854201D28F
:10362000012000E00020012800D1C9E75548B5FB82
:10363000F0F62068406820F03F0030432168486081
:103640004D496068884201D8701C07E04FF49670BD
:1036500070434FF47A71B0FBF1F0401C2168096AA5
:1036600021F03F01084321680862434960688842AD
:1036700014D8681E61684900B0FBF1F0401CC0F32B
:103680000B00042801D204203DE0681E6168490057
:10369000B0FBF1F0401CC0F30B0034E0A06838B977
:1036A000681E616801EB4101B0FBF1F0401C0AE0CB
:1036B000681E616801EBC10202EB0111B0FBF1F081
:1036C000401C40F48040C0F30B0008B901201AE010
:1036D000A06848B9681E616801EB4101B0FBF1F0D8
:1036E000401CC0F30B000CE0681E616801EBC102D6
:1036F00002EB0111B0FBF1F0401CC0F30B0040F4F1
:10370000804040F400402168C9694CF6FF72914343
:1037100008432168C861D4E90701084321680968A2
:1037200021F0C001084321680860D4E90310084370
:103730002168896848F2FF32914308432168886014
:10374000D4E9050108432168C96821F0FF01084355
:103750002168C8602068006840F0010021680860A6
:1037600000202064202084F83D000020206384F89D
:103770003E0000BF24E70000A086010080841E00F8
:1037800000093D0040420F0010B586B004461421E8
:1037900001A8FCF734FF2A49206888424DD100BFB8
:1037A000002000902748006840F004002549086088
:1037B0000846006800F00400009000BF00BF00BF92
:1037C000002000900846006840F0010008600846AC
:1037D000006800F00100009000BF00BF4815019094
:1037E00012200290012003900320049004200590F1
:1037F00001A91548FFF7DAFD4FF4807001901220FF
:10380000029001200390032004900420059001A958
:103810000E48FFF7CBFD00BF002000900948103094
:10382000006840F40000074910310860084600684D
:1038300000F40000009000BF00BF06B010BD000003
:10384000005C0040303802400008024000000240A6
:103850000348006803490978084401490860704733
:10386000780000208000002010B50D48006840F46A
:1038700000700B4908600846006840F480600860EA
:103880000846006840F480700860032000F0A8F843
:103890000F2000F007F800F02BF8002010BD00000A
:1038A000003C024070B504460E4800784FF47A712F
:1038B000B1FBF0F00C490968B1FBF0F5284601F0C6
:1038C0003CFD08B1012070BD102C07D2002221461A
:1038D000501E00F047F80548046001E00120F2E7BF
:1038E0000020F0E780000020840000207C00002001
:1038F00008B500BF002000901148006840F48040E7
:103900000F4908600846006800F48040009000BF3E
:1039100000BF00BF00200090081F006840F08050EA
:10392000091F08600846006800F08050009000BF42
:1039300000BF00220F21901E00F014F808BD000007
:103940004438024001460846002809DB00F01F0306
:1039500001229A4043099B0003F1E023C3F80021B0
:1039600000BF70472DE9F05F80460D4616460027E0
:1039700009F004F9074639462A46334601F00700A4
:10398000C0F1070ABAF1040F02D94FF0040A01E0AE
:10399000C0F1070AD14600F1040ABAF1070F02D2BA
:1039A0004FF0000A01E0A0F1030AD4464FF0010AEB
:1039B0000AFA09FAAAF1010A0AEA020A0AFA0CFA50
:1039C0004FF0010B0BFA0CFBABF1010B0BEA030BF5
:1039D0004AEA0B042146404609F0D8F8BDE8F09FBA
:1039E00000BF00F00702064B19684FF6FF031940AD
:1039F000044B0B4343EA0221014B196000BF70479F
:103A00000CED00E00000FA057047024610684162C4
:103A100000207047F0B5034615461868446A21B97E
:103A200044EA05401E68B06219E01868806A04EB39
:103A30001044002208E0186800F5827050F8220057
:103A400004EB1044501CC2B2481E9042F3D844EA22
:103A50000547186800F582704E1E40F82670002059
:103A6000F0BD10B50446D4F8080507F020FB10BDE2
:103A700070B504460D4605EBC50304F13C0101EBAE
:103A800083010A692946D4F8080507F00BFA70BDCE
:103A900070B504460D4605EBC50304F51F7101EB37
:103AA00083010A692946D4F8080507F07FFA70BD3A
:103AB00010B50446D4F8080507F0FCFA10BD2DE94E
:103AC000F04104460D4605F08000802808D105F03D
:103AD0000F0000EBC00104F13C0000EB810607E0A1
:103AE00005F00F0000EBC00104F51F7000EB81062C
:103AF0003146206808F0D0FD07463846BDE8F08121
:103B000070B504460E4606F0800080280AD106F003
:103B10000F0000EBC00104F13C0000EB8105012027
:103B2000687009E006F00F0000EBC00104F51F709B
:103B300000EB81050020687006F00F00287000BFC0
:103B400094F8BC04012801D1022070BD012084F842
:103B5000BC0400BF2946206808F07EF800BF0020A2
:103B600084F8BC0400BF00BFEFE770B504460E4602
:103B700006F00F006168884201D9012070BD06F08F
:103B8000800080280AD106F00F0000EBC00104F18C
:103B90003C0000EB81050120687009E006F00F0091
:103BA00000EBC00104F51F7000EB81050020687078
:103BB0000020A87006F00F00287000BF94F8BC0425
:103BC000012801D10220D9E7012084F8BC0400BFFC
:103BD0002946206808F028FB00BF002084F8BC04B8
:103BE00000BF00BFCAE7024601F00F0000EBC003B0
:103BF00002F51F7000EB8300006A70472DE9F04763
:103C000005460E4690461F464FF0000906F080001C
:103C100080280AD106F00F0000EBC00105F13C003E
:103C200000EB81040120607009E006F00F0000EB5A
:103C3000C00105F51F7000EB81040020607006F0E4
:103C40000F002070C4F80C802771607808B12078CC
:103C50002081022F01D10020607100BF95F8BC04C3
:103C6000012802D10220BDE8F087012085F8BC04BC
:103C700000BF2146286807F005FF00BF002085F837
:103C8000BC0400BF4846EEE72DE9F04104460E466D
:103C90001746984606F00F0000EBC00104F51F70B0
:103CA00000EB81052F61C5F818800020286268703C
:103CB00006F00F0028702069012800D16F6106F01E
:103CC0000F0028B9227C2946206808F087F904E013
:103CD000227C2946206808F03BFB0020BDE8F081EB
:103CE00070B504460D4605F00F006168884201D9A1
:103CF000012070BD05F0800080280AD105F00F007A
:103D000000EBC00104F13C0000EB81060120707063
:103D100007E005EBC50104F51F7000EB81060020EC
:103D200070700120B07005F00F00307000BF94F883
:103D3000BC04012801D10220DBE7012084F8BC0487
:103D400000BF3146206808F0B6FA05F00F0028B928
:103D5000217C04F2C442206808F02EFA00BF002043
:103D600084F8BC0400BF00BFC3E72DE9F04104465E
:103D70000E461746984606F00F0000EBC00104F10E
:103D80003C0000EB81052F61C5F8188000202862F7
:103D90000120687006F00F0028702069012800D10A
:103DA0006F6106F00F0028B9227C2946206808F0D0
:103DB00015F904E0227C2946206808F0C9FA0020A1
:103DC000BDE8F0812DE9FE4F0446D4F800B05E4610
:103DD000206808F048FD002874D1206808F082FDB2
:103DE00008B9BDE8FE8F40F608008059C0F30D20E9
:103DF000C4F8FC04206808F075FD00F002000228F9
:103E000005D12068406900F00200216848612068FF
:103E100008F068FD00F01000102845D12068806986
:103E200020F0100021688861DBF8209009F00F0075
:103E300000EBC00104F51F7000EB810AC9F3434099
:103E400002281AD147F6F07009EA000030B3C9F32E
:103E50000A125846DAF8101008F049FDC9F30A11A1
:103E6000DAF810000844CAF81000C9F30A11DAF8A9
:103E700020000844CAF8200010E0C9F34340062897
:103E80000CD1082204F2C441584608F030FDC9F3B1
:103E90000A11DAF820000844CAF820002068806976
:103EA00040F0100021688861206808F01BFD00F4D4
:103EB0000020B0F5002F7BD10025206808F0E2FC3F
:103EC000029072E0E1E2029800F00100002868D060
:103ED000E9B2206808F0F9FC804608F0010048B11A
:103EE000012106F5306000EB45108160294620462F
:103EF00005F044F908F00800082809D1082106F562
:103F0000306000EB451081602946204605F004F939
:103F100008F01000102805D1102106F5306000EBE4
:103F20004510816008F00200022824D1DBF814005B
:103F300000F08000802807D140F60400805940F44A
:103F4000806140F60400815105EBC50104F51F7046
:103F500000EB810A9AF80300012806D100208AF8B4
:103F60000300E9B2204600F09BFA022106F530601A
:103F700000EB4510816008F02000202805D12021A9
:103F800006F5306000EB4510816008F40050B0F594
:103F9000005F06D14FF4005106F5306000EB45108C
:103FA00081606D1C029840080290029800288AD116
:103FB000206808F097FC00F48020B0F5802F7DD1B8
:103FC000206808F055FC029000259AE0029800F065
:103FD0000100002873D0E9B2206808F05DFC80463B
:103FE00008F00100F0B305F00F01012088400190B6
:103FF00040F634008159019821EA000040F634016E
:104000008851012106F5106000EB451081602069A0
:10401000012824D105EBC50104F13C0000EB81002F
:1040200005EBC502016904F13C0000EB8200C068A9
:10403000014405EBC50204F13C0000EB8200016184
:104040006DB905EBC50104F13C0000EB810080690E
:1040500028B904F2C4420121206808F0ADF8E9B2A1
:10406000204600E001E0FFF703FD08F00800082803
:1040700005D1082106F5106000EB4510816008F0BD
:104080001000102805D1102106F5106000EB451036
:10409000816008F04000402805D1402106F51060FD
:1040A00000EB4510816008F0020002281DD129466E
:1040B000584608F099FB05EBC50101E025E01CE03E
:1040C00004F13C0000EB810A9AF80300012806D1B4
:1040D00000208AF80300E9B2204600F0D8F9022156
:1040E00006F5106000EB4510816008F08000802824
:1040F00003D12946204605F0E3F86D1C02984008DC
:104100000290029800287FF461AF206808F0EAFB73
:1041100000F00040B0F1004F1CD140F6040080597F
:1041200020F0010140F60400815194F8F4040128C4
:1041300007D1002084F8F40400212046FFF764FC36
:1041400002E0204600F0D4FA2068406900F0004008
:1041500021684861206808F0C5FB00F40060B0F5F4
:10416000006F0ED140F60800805900F0010010B138
:10417000204600F015FB2068406900F400602168CB
:104180004861206808F0AEFB00F48050B0F5805F15
:104190007ED140F60400805920F0010140F6040071
:1041A00081511021206808F01FFB002732E04FF6F4
:1041B0007F3106F5106000EB4710816006F5106056
:1041C00000EB4710006820F4001106F5106000EBCA
:1041D000471001604FF67F3106F5306000EB471065
:1041E000816006F5306000EB4710006820F4001194
:1041F00006F5306000EB4710016006F5306000EB1B
:104200004710006840F0006106F5306000EB471091
:1042100001607F1C6068B842C9D840F61C00805914
:1042200040F0011140F61C008151206B70B1D6F8AE
:10423000840840F00B01C6F8841840F64400805909
:1042400040F00B0140F6440081510FE040F61400AD
:10425000805942F22B01084340F614018851081F8F
:10426000805940F00B014FF401608151D6F80008ED
:1042700020F4FE60C6F80008217C04F2C4422068E5
:1042800007F09AFF2068406900F48050216800E040
:1042900000E04861206808F025FB00F40050B0F50C
:1042A000005F17D1206807F055FC206808F0C8FAB5
:1042B000E06000F051FB0090227B2068009908F03C
:1042C00099FB204600F0FCF92068406900F400509A
:1042D00021684861206808F005FB00F00800082804
:1042E00008D1204600F00BFA2068406900F0080071
:1042F00021684861206808F0F5FA00F08000802805
:1043000018D1DBF8180020F08000CBF81800012548
:104310000DE005EBC50104F51F7000EB8100C078CE
:10432000012803D1E9B22046FFF7C9FB6D1C606884
:10433000A842EED8206808F0D5FA00F48010B0F555
:10434000801F2DD1012522E006F5106000EB4510FD
:10435000D0F8009005EBC50104F13C0000EB8100B2
:104360000079012812D109F00040B0F1004F0DD1C1
:10437000012105EBC50204F13C0000EB8200C17095
:10438000E8B240F080012046FFF799FB6D1C6068A1
:10439000A842D9D82068406900F48010216848619B
:1043A000206808F09FFA00F40010B0F5001F44D117
:1043B000012538E006F5306000EB4510D0F800909C
:1043C00005EBC50104F51F7000EB810000790128A1
:1043D00028D109F00040B0F1004F23D109F480301A
:1043E00094F8FC1401F0010188421BD1012105EB76
:1043F000C50204F51F7000EB8200C170DBF81800E5
:1044000040F08000CBF81800DBF8140000F08000CA
:1044100040B940F60400805940F4007140F60400B1
:10442000815103E06D1C6068A842C3D800BF2068BA
:10443000406900F4001021684861206808F052FAD1
:1044400000F08040B0F1804F08D12046FFF709FB13
:104450002068406900F0804021684861206808F0C9
:1044600041FA00F0040004280FD12068D0F804902D
:1044700009F00400042802D12046FFF719FB206848
:10448000406840EA09002168486000BFA9E470B5AF
:1044900004460D462946D4F8080506F077FE70BD9F
:1044A00070B504460D462946D4F8080506F092FE7C
:1044B00070BD70B58AB0044614B901200AB070BD51
:1044C000266894F8BD0428B9002084F8BC0420466E
:1044D00000F0A2F8032084F8BD04F06B00F48070B3
:1044E00008B900212161206807F070FD282204F13D
:1044F00010016846FCF727F894E80F0007F03EFB30
:1045000020B1022084F8BD040120D7E700212068F3
:1045100008F01DFA002531E0012105EBC50204F188
:104520003C0000EB8200417005EBC50104F13C004A
:1045300000F8215005EBC50100EB81000581002149
:1045400005EBC50204F13C0000EB8200017105EBB4
:10455000C50204F13C0000EB8200C16005EBC5021E
:1045600004F13C0000EB8200016105EBC50204F19F
:104570003C0000EB82008161681CC5B26068A84203
:10458000CAD800252AE0002105EBC50204F51F70FA
:1045900000EB8200417005EBC50104F51F7000F8C7
:1045A0002150002105EBC50200EB8200017105EBF3
:1045B000C50204F51F7000EB8200C16005EBC50267
:1045C00004F51F7000EB8200016105EBC50204F5E4
:1045D0001F7000EB82008161681CC5B26068A84250
:1045E000D1D8282204F110016846FBF7ACFF94E80B
:1045F0000F0007F0FBFB20B1022084F8BD0401206E
:104600005CE7002084F83800012084F8BD042068AD
:1046100007F0DAFB002051E710B586B004461421FC
:1046200001A8FBF7ECFF2068B0F1A04F42D100BF1A
:10463000002000902048006840F001001E490860FA
:104640000846006800F00100009000BF00BF4FF472
:10465000C05001900220029000200390032004909B
:104660000A20059001A91548FEF7A0FE00BF1248D8
:10467000001D006840F080000F49091D086000BF60
:10468000002000900C481430006840F480400A4933
:10469000143108600846006800F48040009000BFB4
:1046A00000BF00BF002205214320FFF75BF9432034
:1046B000FFF748F906B010BD303802400000024054
:1046C00070B504460125E06808B9002506E0E068F9
:1046D000022801D1012501E0FDF7ECFD2946D4F8BF
:1046E000080506F020FED4F8080506F0C7FD70BDE9
:1046F00010B50446D4F8080506F0F6FD10BD10B557
:104700000446D4F8080506F0FAFD10BD70B504465D
:104710000D4600BF94F8BC04012801D1022070BDF1
:10472000012084F8BC0400BF84F838502946206872
:1047300008F041F900BF002084F8BC0400BF00BFAE
:10474000EDE710B5044604F2C441D4F8080506F0BC
:1047500001FE10BD70B50446256800BF94F8BC0486
:10476000012801D1022070BD012084F8BC0400BFE3
:10477000A06A012806D1A069012803D0A86B40F4E3
:104780008030A863206807F0FDFF206807F00AFB6F
:1047900000BF002084F8BC0400BF00BFE3E70000B6
:1047A00010B50446D4F8080506F031FE2068D0F8AC
:1047B000000E40F001002168C1F8000E206A28B107
:1047C0000348006840F006000149086010BD000081
:1047D00010ED00E070B504460D460CB9012070BD27
:1047E0005848006800F00700A84209D255490D70EA
:1047F0000846006800F00700A84201D00120EEE75B
:10480000207800F0020002281DD1207800F004007A
:10481000042805D14C48006840F4E0504A4908603B
:10482000207800F00800082805D14748006840F4C7
:104830006040454908604448006820F0F000A168E5
:10484000084341490860207800F00100A8B360687F
:10485000012807D13C4808380068C0F34040B8B987
:104860000120BCE76068022802D06068032807D1F5
:10487000354808380068C0F3406048B90120AEE709
:10488000314808380068C0F3400008B90120A6E7A5
:104890002D48006820F00300616808432A49086039
:1048A000FEF784FE064609E0FEF780FE801B41F21B
:1048B0008831884202D9032091E707E02248006846
:1048C00000F00C006168B0EB810FEDD11D4800686D
:1048D00000F00700A84209D91A490D70084600687F
:1048E00000F00700A84201D0012078E7207800F00E
:1048F0000400042807D11448006820F4E050E1685F
:10490000084311490860207800F00800082808D101
:104910000D48006820F46040216940EAC1000A495E
:10492000086000F03FF808490968C1F30311074A1D
:10493000515CC8400649086006480068FEF7B2FFAF
:1049400000204CE7003C02400838024034110108C6
:10495000840000207C0000200148006870470000AF
:104960008400002000B5FFF7F7FF04490968C1F390
:104970008221034A515CC84000BD00000838024053
:104980004411010800B5FFF7E7FF04490968C1F3C6
:104990004231034A515CC84000BD00000838024063
:1049A000441101082DE9F047002400250026A14606
:1049B0002548006800F00C0020B1042805D0082824
:1049C0003AD105E0DFF8849039E0DFF8849036E0F2
:1049D0001D48001F006800F03F041B48001F0068CE
:1049E00000F4800078B11A481749091F0968C1F31B
:1049F0008811A0FB01700146224600233846FBF7D0
:104A0000E6FC05460EE011480F49091F0968C1F38D
:104A10008811A0FB01700146224600233846FBF7AF
:104A2000D6FC05460848001F0068C0F30140401C42
:104A30004600B5FBF6F902E0DFF8109000BF00BFBA
:104A40004846BDE8F0870000083802400024F40022
:104A5000001BB700F8B504460CB90120F8BD20785A
:104A600000F00100002874D0F948006800F00C0044
:104A700004280DD0F648006800F00C00082813D177
:104A8000F348001F006800F48000B0F5800F0BD1E0
:104A9000EF4808380068C0F34040002859D06068EB
:104AA000002856D10120D9E700BF6068B0F5803FEB
:104AB00008D1E7480838006840F48030E4490839F4
:104AC00008601EE06068B0F5A02F0DD1E0480838FE
:104AD000006840F48020DE49083908600846006814
:104AE00040F4803008600CE0D9480838006820F4B1
:104AF0008030D749083908600846006820F48020D3
:104B0000086000BF606890B1FEF750FD054606E002
:104B1000FEF74CFD401B642801D903209EE7CC48DA
:104B200008380068C0F340400028F1D011E0FEF7DB
:104B30003DFD054606E0FEF739FD401B642801D91E
:104B400003208BE7C24808380068C0F340400028C3
:104B5000F1D1207800F0020002285FD1BC48006843
:104B600000F00C0058B1BA48006800F00C000828AA
:104B70001CD1B748001F006800F48000B0B9B448E9
:104B800008380068C0F3400020B1E068012801D077
:104B9000012063E7AE480838006820F0F80021697A
:104BA00040EAC100AA490839086037E0E06800B36C
:104BB0000120A8490860FEF7F9FC054606E0FEF76B
:104BC000F5FC401B022801D9032047E7A04808381C
:104BD0000068C0F340000028F1D09D480838006804
:104BE00020F0F800216940EAC100994908390860BD
:104BF00014E0002097490860FEF7D8FC054606E05F
:104C0000FEF7D4FC401B022801D9032026E7904878
:104C100008380068C0F340000028F1D1207800F087
:104C2000080008282CD16069A8B101208A490860D1
:104C3000FEF7BCFC054606E0FEF7B8FC401B022868
:104C400001D903200AE782486C300068C0F34000B5
:104C50000028F1D014E000207F490860FEF7A6FC90
:104C6000054606E0FEF7A2FC401B022801D90320FE
:104C7000F4E677486C300068C0F340000028F1D1BA
:104C8000207800F00400042870D1002770483830E4
:104C9000006800F0805090B900BF002000906C4880
:104CA0003830006840F08050694938310860084663
:104CB000006800F08050009000BF00BF01276748E7
:104CC000006800F48070B0B96448006840F48070F7
:104CD00062490860FEF76AFC054606E0FEF766FCDE
:104CE000401B022801D90320B8E65C48006800F4A4
:104CF00080700028F2D000BFA068012808D1544875
:104D00006830006840F001005149683108601DE0DA
:104D1000A06805280DD14E486830006840F00400B6
:104D20004B49683108600846006840F0010008609F
:104D30000CE047486830006820F0010044496831C1
:104D400008600846006820F00400086000BFA06802
:104D5000A8B1FEF72BFC054609E0FEF727FC401B37
:104D600041F28831884202D9032077E626E03848AC
:104D700068300068C0F340000028EED013E0FEF772
:104D800015FC054608E0FEF711FC401B41F2883196
:104D9000884201D9032061E62D4868300068C0F3DD
:104DA00040000028EFD1012F07D129483830006892
:104DB00020F0805026493831086000BFA0690028E3
:104DC00045D02348006800F00C0008285DD0A06999
:104DD000022845D100201F490866FEF7E7FB05467B
:104DE00006E0FEF7E3FB401B022801D9032035E66D
:104DF000174808380068C0F340600028F1D1D4E9B2
:104E000007010843616A40EA81110122A06AC2EBEE
:104E1000500041EA00412C20005D41EA00600C494D
:104E2000091F086001200B490866FEF7BFFB054615
:104E300006E0FEF7BBFB401B022801D903200DE66C
:104E4000034808380068C0F340600028F1D049E00A
:104E50000838024000004742800E47420070004080
:104E6000002021490866FEF7A1FB054606E0FEF793
:104E70009DFB401B022801D90320EFE51B48006879
:104E8000C0F340600028F2D12CE0A069012800D1D5
:104E9000E4E51648001D0668A069012820D006F444
:104EA0008001E06981421BD106F03F01206A814206
:104EB00016D147F6C0703040616AB0EB811F0FD148
:104EC00006F440310122A06AC2EB5000B1EB004F62
:104ED00006D106F070612C20005DB1EB006F01D0AF
:104EE0000120BBE50020B9E5000047420038024040
:104EF00010B504460CB9012010BD606A38B960686D
:104F0000B0F5827F00D105E00021E16102E00021DF
:104F1000216161610021A16294F8510028B900204B
:104F200084F85000204600F047F8022084F8510031
:104F30002068006820F0400021680860A08800F424
:104F40008270218901F404410843A18901F40061C0
:104F50000843217C01F002010843217D01F0010199
:104F60000843218B01F400710843217F01F03801CF
:104F700008432021095D01F080010843218D01F4DF
:104F800000510843216808600421A06901EA10402B
:104F900094F8241001F0100108432168486020684B
:104FA000C06920F400602168C861002060650120AC
:104FB00084F8510000209FE710B586B00446142104
:104FC00001A8FBF71CFB4B49206888427ED100BF3B
:104FD000002000904848006840F48050464908602E
:104FE0000846006800F48050009000BF00BF00BF7A
:104FF0000020009040481438006840F002003E490C
:10500000143908600846006800F00200009000BFF4
:1050100000BF00BF002000900846006840F001007B
:1050200008600846006800F00100009000BF00BF63
:105030001820019002200290012003900320049088
:105040000520059001A92D48FEF7B0F980200190B8
:105050000220029001200390032004900520059077
:1050600001A92748FEF7A2F92648274908604FF012
:10507000C0604860002124488160C1604FF48061B5
:105080000161002141618161C1614FF440310162E0
:1050900000214162FEF7F0F808B1FDF70BF900BFFF
:1050A0001948E064846300BF164818301749086047
:1050B0004FF0C06048604021144881600021C16009
:1050C0004FF4806101610021416100E010E08161E5
:1050D000C1614FF40031016200214162FEF7CCF85A
:1050E00008B1FDF7E7F800BF0848A064846300BF7B
:1050F00006B010BD003001404438024000040240B8
:105100000000024040640240800D0020E00D0020BD
:105110002DE9FF5F0446884691461D460E9E0120FC
:1051200002900020019000BF94F85000012803D1A4
:10513000022004B0BDE8F09F012084F8500000BFB9
:10514000FEF734FA074694F851B060680390AA4617
:10515000BBF1010F0BD00398B0F5827F04D1A0689A
:1051600010B9BBF1040F02D002200190DBE0B8F1CE
:10517000000F03D0B9F1000F00D015B90120019044
:10518000D1E094F85100042802D0052084F85100A1
:1051900000206065C4F83890E587A587C4F83080A2
:1051A000E586A586206460642068006800F0400001
:1051B000402805D02068006840F040002168086061
:1051C000E068B0F5006F4AD1606810B1BAF1010F24
:1051D00009D1206B00882168C860206B801C206387
:1051E000E08E401EE08633E02068806800F0020018
:1051F000022810D1E08E70B1029801280BD1206BEB
:1052000000882168C860206B801C2063E08E401EEF
:10521000E086002002902068806800F0010068B1FC
:10522000E08F58B12068C068A16B0880A06B801C1B
:10523000A063E08F401EE08701200290FEF7B6F9E0
:10524000C01BB04204D3701C10B1032001906AE06F
:10525000E08E0028C8D1E08F0028C5D14AE0606800
:1052600010B1BAF1010F09D1206B007821680873E1
:10527000206B401C2063E08E401EE08634E02068F6
:10528000806800F00200022810D1E08E70B1029810
:1052900001280BD1206B007821680873206B401C1B
:1052A0002063E08E401EE086002002902068806827
:1052B00000F0010068B1E08F58B12068C068A16BB0
:1052C0000870A06B401CA063E08F401EE0870120A7
:1052D0000290FEF76BF9C01BB04201D3701C00B9FD
:1052E00016B9032001901EE0E08E0028C7D1E08FA0
:1052F0000028C4D13A463146204604F003FA20B1D2
:1053000001200190202060650DE0A06850B900BF29
:10531000002000902068C06800902068806800909D
:1053200000BF00BF00BF012084F8510000BF002073
:1053300084F8500000BF0198FBE670B5044625468E
:10534000681EB0F1807F01D301200FE0681E4FF08E
:10535000E02148610F214FF0FF3007F017FC0020DB
:105360004FF0E021886107200861002070BD704780
:10537000704710B50346002200BF93F83C00012897
:1053800001D1022010BD012083F83C0000BF22F0B3
:10539000FF00CC6840EA040222F440708C6840EAC6
:1053A000040222F480604C6840EA040222F40060A7
:1053B0000C6840EA040222F480500C6940EA0402BE
:1053C00022F400504C6940EA040222F48040CC6987
:1053D00040EA04021868426400BF002083F83C00E1
:1053E00000BF00BFCEE7000030B502460B4600BF4D
:1053F00092F83C00012801D1022030BD012082F842
:105400003C0000BF022082F83D001068446810682C
:10541000816824F070041868044310684460184DD3
:105420001068A8421BD01068B0F1804F17D0154DFE
:105430001068A84213D0144D1068A8420FD0134D25
:105440001068A8420BD0124D1068A84207D0114D29
:105450001068A84203D0104D1068A84205D121F071
:1054600080015868014310688160012082F83D0086
:1054700000BF002082F83C0000BF00BFBDE7000075
:10548000000001400004004000080040000C004003
:1054900000040140004001400018004010B50446DF
:1054A0000CB9012010BD94F83D0028B9002084F803
:1054B0003C00204600F026F8022084F83D00211D23
:1054C000206804F07BFA012084F8460000BF84F8CD
:1054D0003E0001213F20015540200155412001554A
:1054E00000BF00BF012084F8420043200155442042
:1054F00001554520015500BF012084F83D000020E2
:10550000D0E7000010B586B00446142101A8FBF7CF
:1055100076F85949206888420FD100BF00200090DA
:105520005648006840F00100544908600846006889
:1055300000F00100009000BF9BE0514920688842C4
:105540001AD100BF002000904C48001F006840F0B6
:1055500002004A49091F08600846006800F002007E
:10556000009000BF00BF002205211D20FEF7FAF9C0
:105570001D20FEF7E7F97CE04249206888421AD1F5
:1055800000BF002000903D48001F006840F004006C
:105590003A49091F08600846006800F004000090BE
:1055A00000BF00BF002205211E20FEF7DBF91E20F0
:1055B000FEF7C8F95DE034492068884211D100BF88
:1055C000002000902D48001F006840F010002B497B
:1055D000091F08600846006800F01000009000BF36
:1055E00047E02A49206888420FD100BF0020009080
:1055F0002248006840F00200204908600846006820
:1056000000F00200009000BF33E02149206888428A
:105610002FD100BF002000901848006840F40030EF
:10562000164908600846006800F40030009000BF8A
:1056300000BF00BF0020009010481438006840F000
:1056400020000E49143908600846006800F0200068
:10565000009000BF00BF4020019002200290012076
:105660000390022004900320059001A90948FDF74A
:105670009DFE06B010BD000000000140443802400D
:1056800000040040000800400010004000040140F9
:105690000044014000140240014691F83D000128F9
:1056A00001D001207047022081F83D001A4B0868A4
:1056B00098421BD00868B0F1804F17D0174B08688C
:1056C000984213D0164B086898420FD0154B0868C3
:1056D00098420BD0144B0868984207D0134B0868C7
:1056E000984203D0124B086898420CD10868806831
:1056F00000F00702062A0CD00868006840F001009C
:105700000B68186005E00868006840F001000B684D
:1057100018600020C6E700000000014000040040BF
:1057200000080040000C004000040140004001401F
:10573000001800402DE9F04104460D46002700BF47
:1057400094F83C00012802D10220BDE8F08101203C
:1057500084F83C0000BF022084F83D002068866881
:1057600026F0770626F47F46206886602868502851
:1057700033D00CDC202850D004DC00284BD010287B
:1057800051D149E0302849D040284CD139E0602837
:105790002DD0702807D0B0F5805F03D0B0F5005F42
:1057A00041D10DE041E0D5E902136A68206804F0B8
:1057B00082F92068866846F077062068866034E0C3
:1057C000D5E902136A68206804F075F920688068DA
:1057D00040F480402168886027E0EA6869682068B2
:1057E00004F077FA5021206804F070F91DE0EA68AF
:1057F0006968206804F080FA6021206804F066F986
:1058000013E0EA686968206804F063FA40212068C0
:1058100004F05CF909E000BF00BF00BF2968206800
:1058200004F054F901E0012700BF00BF012084F813
:105830003D0000BF002084F83C0000BF384684E7EC
:10584000704710B5044620680069C0F34000D8B125
:105850002068C068C0F34000B0B16FF0020021685A
:105860000861012020772068806900F0030018B1EA
:105870002046FFF7E5FF05E0204600F02BF9204623
:1058800000F0DFF90020207720680069C0F3800075
:10589000D8B12068C068C0F38000B0B16FF00400D8
:1058A00021680861022020772068806900F4407038
:1058B00018B12046FFF7C4FF05E0204600F00AF9C2
:1058C000204600F0BEF90020207720680069C0F370
:1058D000C000D8B12068C068C0F3C000B0B16FF09C
:1058E000080021680861042020772068C06900F062
:1058F000030018B12046FFF7A3FF05E0204600F0A3
:10590000E9F8204600F09DF9002020772068006922
:10591000C0F30010D8B12068C068C0F30010B0B167
:105920006FF0100021680861082020772068C069A6
:1059300000F4407018B12046FFF782FF05E02046D2
:1059400000F0C8F8204600F07CF90020207720689D
:10595000006900F0010058B12068C06800F0010043
:1059600030B16FF0010021680861204600F0F0F9C5
:1059700020680069C0F3C01058B12068C068C0F347
:10598000C01030B16FF08000216808612046FFF739
:10599000EEFC20680069C0F3801058B12068C06830
:1059A000C0F3801030B16FF04000216808612046DC
:1059B00000F0CFF920680069C0F3401058B12068AA
:1059C000C068C0F3401030B16FF02000216808615A
:1059D0002046FFF7CDFC10BD10B586B0044614215B
:1059E00001A8FAF70CFE3449206888421ED100BF96
:1059F000002000903148006840F010002F490860F6
:105A00000846006800F01000009000BF00BF481575
:105A100001900220029001200390022004900120B6
:105A2000059001A92648FDF7C1FC43E025492068FF
:105A300088421ED100BF002000902048006840F03E
:105A400008001E4908600846006800F00800009041
:105A500000BF00BF4FF48040019002200290002060
:105A6000039004900220059001A91748FDF79EFCC1
:105A700020E01649206888421CD100BF0020009019
:105A80000E48006840F004000C49086008460068B1
:105A900000F00400009000BF00BF402001900220F1
:105AA00002900020039004900320059001A908486B
:105AB000FDF77CFC06B010BD00000140303802400C
:105AC0000010024000080040000C024000040140A9
:105AD0000008024070472DE9F04104460D46164685
