:020000040800F2
:1000000010DF00205D020008A99000086567000865
:100010001D8F00085B190008C5D000080000000013
:100020000000000000000000000000009D0100082A
:100030005D24000800000000F9010008BB9D0008D5
:1000400077020008770200087702000877020008AC
:1000500077020008770200085F2400087702000892
:10006000770200086924000873240008770200085A
:10007000770200087702000877020008770200087C
:10008000770200087702000877020008711900085B
:100090006119000877020008770200087D24000833
:1000A000770200087702000877020008770200084C
:1000B00077020008999E0008A99E000877020008B0
:1000C000770200087702000877020008770200082C
:1000D000770200088DA60008770200087702000862
:1000E000770200087702000877020008770200080C
:1000F00077020008770200087702000877020008FC
:1001000077020008770200087702000877020008EB
:1001100077020008770200087702000877020008DB
:1001200077020008770200087702000829210008FA
:1001300077020008770200087702000877020008BB
:10014000811900087702000877020008519300081F
:10015000770200087702000877020008770200089B
:10016000770200087702000877020008770200088B
:1001700077020008770200087702000800000000FC
:100180007702000877020008DFF80CD000F0A0FC2E
:10019000004800472DEC000810DF00202C4B1968A8
:1001A0000868B0E8F04F80F30988BFF36F8F4FF015
:1001B000000080F3118870470000000008480068C4
:1001C000006880F308884FF0000080F3148862B65E
:1001D00061B6BFF34F8FBFF36F8F00DF00BF00BF6B
:1001E00008ED00E0DFF80C00016841F470010160E7
:1001F000704700BF88ED00E0EFF30980BFF36F8F19
:10020000134B1A681EF0100F08BF20ED108A20E96A
:10021000F04F106009B44FF0500080F31188BFF325
:100220004F8FBFF36F8F0FF04FFE4FF0000080F342
:10023000118809BC19680868B0E8F04F1EF0100F6B
:1002400008BFB0EC108A80F30988BFF36F8F704746
:1002500024000020EFF30580704700000648804727
:1002600006480047FEE7FEE7FEE7FEE7FEE7FEE79B
:10027000FEE7FEE7FEE7FEE7859E0008890100082D
:100280002DE9F05F0546002092469B4688460646CB
:10029000814640241BE0284641464746224600F05E
:1002A00060FB53465A46C01A914110D31146184676
:1002B000224600F047FB2D1A67EB01084F46224605
:1002C0000120002100F03EFB17EB00094E41201EEB
:1002D000A4F10104DFDC484631462A464346BDE826
:1002E000F09F40EA01039B0703D009E008C9121FF1
:1002F00008C0042AFAD203E011F8013B00F8013BE0
:10030000521EF9D27047D2B201E000F8012B491E0B
:10031000FBD270470022F6E710B513460A460446A2
:100320001946FFF7F0FF204610BDF0B480EA010245
:10033000D40F4200B2EB410F02D2024608461146EA
:100340004A0042D0C30DDDB2C1F3C752AD1A202D11
:1003500035DAC1F3160141F4000204B15242C5F18D
:10036000200602FA06F12A411044B3EBD05F23D0F5
:10037000C4B1012DA0EBC35009DCF0BC4FF000422A
:1003800002EAC352DBB200F5000000F015BB4000EA
:1003900000F1807000EBC350A0F1807040EAD17092
:1003A000490009E0490841EAC071A0EBC35000F5DB
:1003B0000000400800EBC350F0BC00F0F4BA61420A
:1003C000012202EB4101001BF6E7F0BC704781F00F
:1003D0000041AAE780F00040A7E780EA010210B5DB
:1003E00002F00043400022D04A001FD0010E01EB72
:1003F0001261C0F35600C2F3560240F4000042F40A
:100400000002A0FB022000047F39140400D0401C2D
:1004100050EA124001D44000491EC2B20C0604EB5F
:10042000D010401C4008802A02D003E0002010BDFC
:1004300020F00100002900DA0020184310BD30B47C
:1004400080EA010202F0004530F0004221F0004055
:1004500013D090B1C30DD40DC2F31601C0F3160032
:10046000E41A41F4000140F400027D34914201D3CA
:10047000641C00E04900002C02DA30BC0020704708
:100480004FF400000023914201D3891A034340082E
:100490004FEA4101F7D151B1914202D14FF00041F1
:1004A00005E002D24FF0010101E06FF0010103EB22
:1004B000C450284430BC00F076BA2DE9FE4F804687
:1004C00081EA0300C00F0C46009021F0004123F0A8
:1004D0000045B8EB0200A94105D2404621469046AE
:1004E0001C460B46024623F00040104347D0270D20
:1004F000C7F30A00C3F30A510290401A0190402842
:100500006BDAC3F3130040F4801B0098924620B1CD
:100510000023D2EB030A63EB0B0B01985946C0F1A1
:100520004002504600F00EFA06460D465046594627
:10053000019A00F026FA10EB08006141002487EAD6
:10054000115284EAE7731A4340D0009A62B3019AC9
:10055000012A4FEA075215DC001B61EB02014FF044
:10056000004202EA0752CDE90042001C41F5801129
:1005700032462B4600F05DFA03B0BDE8F08F4046EE
:100580002146F9E7001B61EB0201001C41F58013D5
:1005900000185B412018A2F5001747EB030140EA61
:1005A000D570B6196D4111E06D084FEA360645EA7F
:1005B000C0754FEA0752001B61EB0201001C41F5B8
:1005C000801149084FEA30000019514132462B464C
:1005D00003B0BDE8F04F00F01DBA009801224000C2
:1005E0000023D0EB020263EBE073009821464FEA50
:1005F000E074B8EB000061EB0401E9E783F000432D
:100600005BE781F0004158E72DE9FE4F81EA0304E2
:1006100004F0004421F0004100944FF0000B23F05F
:10062000004350EA01045ED052EA03045BD0C3F3F6
:100630000A54C1F30A552C44A4F2F3340194A0FBEC
:100640000254C1F3130141F48011C3F3130343F4C3
:10065000801301FB024400FB034E840A970A44EA1C
:10066000815447EA8357A4FB076802958D0A05FB6E
:1006700007854FEA932C04FB0C542705029D4FEA93
:10068000065847EA1637B5EB08056EEB070C870EE0
:10069000920E47EA811742EA8312A7FB0201B6EBEA
:1006A0000B0164EB00042B0D43EA0C335E1844EBA2
:1006B0001C50DA465146E7FB0201C5F313044FEA2A
:1006C0000B3343EA14534FEA0432019C43EA060316
:1006D000A4F10C040294009CCDE900B400F0A9F947
:1006E00003B0BDE8F08F00200146F9E72DE9F04D99
:1006F00081EA030404F0004B21F0004514464FF05A
:10070000000A23F0004150EA050220D054EA010219
:100710001DD0C5F30A570246C5F31303C1F31300F6
:10072000C1F30A5640F4801543F48013A7EB060882
:10073000101BD64608F2FD3873EB050002D308F112
:10074000010801E092185B41B8F1000F03DA0020C4
:100750000146BDE8F08D00204FF480110646844626
:100760000EE0171B73EB050705D3121B63EB0503A4
:1007700006434CEA010C49084FEA300092185B41ED
:1007800050EA0107EDD152EA030012D082EA0400D8
:1007900083EA0501084305D0101BAB4106D20122B4
:1007A000002306E000224FF0004302E06FF0010258
:1007B00053101AEB06004CEB085110EB0A0041EB0A
:1007C0000B01BDE8F04D00F025B9002801DBC0F1B8
:1007D0000040002901DBC1F10041814201D8012024
:1007E000704700207047002801DBC0F1004000295D
:1007F00001DBC1F10041814201D20120704700209C
:100800007047002801DBC0F10040002901DBC1F185
:100810000041814201D90120704700207047002823
:1008200001DBC0F10040002901DBC1F10041814240
:1008300001D101207047002070470EB5C10F80EA3A
:10084000E0700844CA07002140F233438DE80E00EF
:100850000A460B4600F0EDF803B000BD0EB540F2BD
:10086000334102910021CDE900110A460B4600F008
:10087000E0F803B000BD70B5C1F30A5201F00045C5
:100880000024C1F3130140F2FF3341F480119A4276
:1008900001DA002070BD40F233439A42A2F23342A3
:1008A00003DC524200F05DF800E090402C43F1D0B0
:1008B000404270BD00F0004230F000400AD0C10D4F
:1008C00001F56071C0F3160042EA0151C208400709
:1008D00011437047002001467047000030B5041EE8
:1008E00071F1000404DB4FF00044404264EB01016D
:1008F000141E73F1000405DB1C464FF00043524206
:1009000063EB04038B4208BF824230BD01F0004319
:1009100030B421F0004150EA010206D00A0DA2F5E0
:100920006072C1F31301002A02DC30BC0020704762
:10093000440F44EAC104C100E01830BC00EBC250CF
:1009400000F031B8202A04DB203A00FA02F100203E
:1009500070479140C2F1200320FA03F319439040FD
:100960007047202A04DB203A21FA02F00021704768
:1009700021FA02F3D040C2F1200291400843194607
:100980007047202A06DBCB17203A41FA02F043EAEF
:10099000E07306E041FA02F3D040C2F12002914038
:1009A0000843194670470029A8BF7047401C4900FA
:1009B00008BF20F00100704710B4B0FA80FC00FAC4
:1009C0000CF050EA010404BF10BC704749B1CCF1EF
:1009D000200421FA04F411FA0CF118BF012121437B
:1009E0000843A3EB0C01CB1D4FEA00614FEA102036
:1009F00042BF002010BC704700EBC35010440029D8
:100A0000A4BF10BC7047401C490008BF20F0010083
:100A100010BC704710B5141E73F1000408DA401CB6
:100A200041F1000192185B411A4301D120F001000D
:100A300010BD2DE9F04D92469B4611B1B1FA81F2FD
:100A400002E0B0FA80F220329046FFF77BFF0446C6
:100A50000F4640EA0A0041EA0B0153465A46084352
:100A600013D0114653EA010019D0C8F14002504694
:100A7000FFF777FF05460E46504659464246FFF7B8
:100A800061FF084305D0012004E020463946BDE857
:100A9000F08D0020054346EAE0762C4337430A9860
:100AA0006305E40AA0EB08000022FD0A44EA47546B
:100AB0000A3002D500200146E9E701051019694115
:100AC000DDE9084500196941BDE8F04DA2E70000E5
:100AD000064C074D06E0E06840F0010394E807008B
:100AE00098471034AC42F6D3FFF752FB3C11010893
:100AF0005C11010870B58C1810F8015B15F0070344
:100B000001D110F8013B2A1106D110F8012B03E0A6
:100B100010F8016B01F8016B5B1EF9D12B0705D4AE
:100B20000023521E0DD401F8013BFAE710F8013BF7
:100B3000CB1A921C03E013F8015B01F8015B521E13
:100B4000F9D5A142D8D3002070BD00002DE9F041B5
:100B500003880F88BB423FD147884E88B7423BD1BC
:100B60001688B34238D15688B74235D146685468A2
:100B70004D6807FB03F80020B0EB980F1BD04FEA3D
:100B80009800474230682968FFF7CFFB2060706803
:100B90006968FFF7CAFB6060B068A968FFF7C5FB2A
:100BA000A060F068E968FFF7C0FBE0601034103522
:100BB00010360137E6D118F003000BD0474200BFD2
:100BC00056F8040B55F8041BFFF7AFFB44F8040B71
:100BD0000137F5D1002000E0FD2040B2BDE8F081F2
:100BE00043604280018070472DE9F04F93B0B0F828
:100BF00002A0B0F800B0D34540F05D810A88FD2521
:100C0000934540F059814B889A4240F0558147689E
:100C1000BBF1000F00F039814C686FF003000197C1
:100C200000274FF07E585E46CDF820A000EB8B09E0
:100C300020460494BBEB060008D0B9002046FFF71D
:100C400069FB0020013004348742FBD104F1040A1F
:100C5000751EC4F800800FD0A9EB87015046FFF73E
:100C600059FB0120544600BF013004348642FBD1B9
:100C70000137002D2E46DDD1019FDDF820A0BBF10C
:100C8000000F00F00281042007EB8A023C1DABF14B
:100C900001080021CDF824A0CDF81CB000EB8A009B
:100CA0000290CAF100000B904FEA8A00129000BF38
:100CB000594580F0058101FB0AF0109104990597D0
:100CC000002593460392CDF8188057F8209001EB49
:100CD000800107EB80004F460E910D9008E000BFA9
:100CE0001298DBF80070A8F1010835465844834695
:100CF00038460021FFF769FD40B938462946FFF71D
:100D000080FD00283E4608D008E000BF87F000467E
:100D100028463146FFF767FD00B92E46B8F1000FAF
:100D2000DED130460021FFF77AFD002840F0C88070
:100D300029F000403146FFF772FDDDE9062140B998
:100D40001098C043401804D0002000BF01308242F8
:100D5000FCD148460021FFF762FD099E002840F0C3
:100D6000AF800D994FF07E500F9408601098AAEB59
:100D70000001012908460C910BD00F9D012400BFF2
:100D800028684946FFF75BFB013445F8040BA6428F
:100D9000F6D10B9C0E9D00BF28684946FFF74FFB1C
:100DA00045F8040B0134F7D10C98DDF81C804FF0A6
:100DB000000B01380A90DDE90465DDE90F4100BF51
:100DC0008B4505D10C9806EB8A0605EB80053CE0C7
:100DD0000D98D5F8009001684846FFF7FEFA0146E5
:100DE0004846FFF7F4FA45F8040B0A98E0B1CDF84D
:100DF0004480DDF8248001274FF0000A54F80A10DF
:100E00004846FFF7EAFA014655F80A00FFF7DFFA0D
:100E1000013745F80A000AF1040AB845EED15544F5
:100E2000DDF820A0DDF844800B9F0E9C54F8041BD5
:100E30004846FFF7D2FA01463068FFF7C8FA46F88D
:100E4000040B0137F2D1DDE90F4105EB81050BF110
:100E5000010BB8F10108B3D10298039ADDF81880AC
:100E6000059FDDF81CB00131044402440998A8F143
:100E700001080437013809907FF41AAF4846002171
:100E80000025FFF7CCFC019FB0B10AFB0BF5002455
:100E9000002645B138680021FFF7C1FC18B10136C2
:100EA0000437AE42F6D3AE4208BF6FF004042046CA
:100EB00013B0BDE8F08FFD2568B213B0BDE8F08F28
:100EC000FB25F9E72DE9F04F91B047880B889F4249
:100ED00040F0AF80068813889E4240F0AA804D887B
:100EE00053889D4240F0A58052684FF00009496840
:100EF0004FEA850805960497039502924268A9EB8C
:100F000097000191079027F0030002EB80000C92FC
:100F10000990B8080B90684301EB00102946009037
:100F200007F003000A904042069000BF029800EBD1
:100F3000890ADDE9000BCDF8209010900B980F91F5
:100F4000002847D0CDF838A0CDF834B0D946DDF828
:100F50001CA0DDF830B000249BE8C100D9F80010D7
:100F6000DBF80C50FFF739FA01462046FFF7DDF9B0
:100F700059F8081004463046FFF72FFA014620467C
:100F8000FFF7D3F909EB08060446384656F808106F
:100F9000FFF723FA01462046FFF7C7F94644044607
:100FA000284656F80810FFF718FA01462046FFF7C2
:100FB000BCF9044606EB08000BF1100B1AF1010A0C
:100FC00000EB0809C8D1109DDDE90896DDE90DBAEE
:100FD00003E000BF0C9E00245D460A9868B1069F9E
:100FE00056F8040B2968FFF7F8F901462046FFF789
:100FF0009CF9044645440137F2D110980F994AF8FC
:10100000044B0BF1040B04300139109096D1049875
:10101000099901EB800109910C9901EB8001059878
:101020000C9103990138894405907FF47FAF00202B
:1010300000E0FD2040B211B0BDE8F08F2DE9F04195
:1010400003880F88BB423FD147884E88B7423BD1C7
:101050001688B34238D15688B74235D146685468AD
:101060004D6807FB03F80020B0EB980F1BD04FEA48
:101070009800474230682968FFF7A9F92060706836
:101080006968FFF7A4F96060B068A968FFF79FF985
:10109000A060F068E968FFF79AF9E0601034103555
:1010A00010360137E6D118F003000BD0474200BFDD
:1010B00056F8040B55F8041BFFF789F944F8040BA4
:1010C0000137F5D1002000E0FD2040B2BDE8F081FD
:1010D0002DE9F04F82B0B0F800E04B889E454BD12F
:1010E00044880B889C4247D100234E6804F0030BD0
:1010F00040684FEA0E184FEA940AA3EB9401CBF133
:10110000000901914FEA8E0132460096BAF1000FB4
:101110001CD0019F344600BF2546046801372C606F
:1011200044686C5005EB0104D0F808C044F801C0D5
:101130000C44C26800F11000625004EB010202EBA3
:101140000104E9D105EB080703E000BF009A02EBB8
:101150008307BBF1000F07D04D4600BF50F8042BAA
:1011600001353A600F44F9D10436BEF1010E03F1A6
:101170000103CBD1002000E0FD2040B202B0BDE869
:10118000F08F70B505460C4600260DB1022C00D834
:1011900070BDA11E4FF6FF72284601F03DFB0646CA
:1011A000A01E2E54310A601E295400BFF0E7000033
:1011B00010B501221021024802F0B0FB10BD000062
:1011C0000000024010B500221021024802F0A6FBE8
:1011D00010BD00000000024010B501221146024877
:1011E00002F09CFB10BD00000004024010B500227C
:1011F0000121024802F092FB10BD000000040240F1
:1012000010B50446FFF7DEFF922000F0DFF906225A
:10121000B249122000F0BAF9FFF7CAFFAF48407890
:10122000000200B2AD4909780843AD49088008467C
:10123000B0F9000000EE100AB8EEC00AA94880ED2F
:10124000000A0846B0F9000000EE100AB8EEC00A25
:10125000A548D0ED000A20EE200AD4ED080A20EEC1
:10126000200A84ED000A9D48C078000200B29B4924
:10127000897808439A4908800846B0F9000000EED2
:10128000100AB8EEC00A974880ED010A0846B0F986
:10129000000000EE100AB8EEC00A9348D0ED000A34
:1012A00020EE200AD4ED080A20EE200A84ED010A7F
:1012B0008A484079000200B2884909790843884980
:1012C00008800846B0F9000000EE100AB8EEC00A27
:1012D000844880ED020A0846B0F9000000EE100ACA
:1012E000B8EEC00A8048D0ED000A20EE200AD4ED06
:1012F000080A20EE200A84ED020AFFF777FF082291
:101300007649002000F042F9FFF766FF7348007845
:101310000F286CD175480078002869D06F48C078D4
:10132000000200B26D49897808436D49088008467B
:10133000B0F9000000EE100AB8EEC00A694880ED6E
:10134000030A94ED090A0846B0F9000000EE900A7D
:10135000F8EEE00A664890ED001A10EE810A84ED7E
:10136000030A5E484079000200B25C4909790843EB
:101370005B4908800846B0F9000000EE100AB8EE9C
:10138000C00A584880ED040A94ED0A0A0846B0F9EC
:10139000000000EE900AF8EEE00A554890ED001AC1
:1013A00010EE810A84ED040A4C48C079000200B2B4
:1013B0004A49897908434A4908800846B0F900003B
:1013C00000EE100AB8EEC00A464880ED050A94ED1A
:1013D0000B0A0846B0F9000000EE900AF8EEE00AA9
:1013E000434890ED001A10EE810A84ED050A44E0AE
:1013F0003A48C078000200B2384989780843384931
:1014000008800846B0F9000000EE100AB8EEC00AE5
:101410003748D0ED000A20EE200A84ED030A2F4859
:101420004079000200B22D49097908432C4908800F
:101430000846B0F9000000EE100AB8EEC00A2C48C9
:10144000D0ED000A20EE200A84ED040A2348C0797A
:10145000000200B2214989790843214908800846E1
:10146000B0F9000000EE100AB8EEC00A2048D0ED36
:10147000000A20EE200A84ED050AFFF7A3FEA22051
:1014800000F0A4F802221549222000F07FF8FFF7AF
:101490008FFE12480078C0001049497840EA611078
:1014A0000F4908800846B0F90000B0F5806F05DBF1
:1014B00008460088A0F5006000B208800848B0F92E
:1014C000000000EE100AF8EEC00AB4EE001AB3EE07
:1014D000070A00EE810A84ED070A10BDEE04002021
:1014E000F6040020A8820020B0040020C0040020E0
:1014F000B404002070B504460D461C48046000206A
:101500001B4908700CF0C4FD1949097808431849B3
:1015100008700CF073FE16490978084314490870E6
:101520001DB1144800F0A4FA1CE09FED130A114805
:1015300080ED090A9FED110A80ED0A0A9FED0F0A5E
:1015400080ED0B0A9FED0E0A80ED0C0A90ED0C0A5F
:10155000DFED0C0A80EE801A80ED081A9FED0A0A72
:1015600080ED060A0248007870BD0000F8040020F3
:10157000BA04002074820020AC38223BB016CE3969
:101580003F161B41C3F51C410000204270B50646C2
:101590000C46154646F0800000F018F806E055208D
:1015A00000F014F82070641C681EC5B2002DF6D13E
:1015B00070BD70B504460D4644F0800000F006F89A
:1015C000552000F003F8287070BD000001B582B00E
:1015D0004FF47A70012301AA02A900900348006821
:1015E00003F054FF9DF804000EBD0000F804002035
:1015F00070B505460C462846FFF7E8FF2046FFF782
:10160000E5FF70BD10B52DED0E8B044694ED010A7B
:10161000D4ED020AB2EE0E1A10EE810A704880ED87
:10162000000A9FED700B0CF06FF8B0EE40BAF0EED0
:1016300060BA94ED000A10EE101A0846FFF73AF966
:1016400041EC1C0B53EC1B2BFEF7DEFF41EC190B9E
:101650009FED640B0BF0E8FFB0EE40DAF0EE60DADD
:1016600094ED010A10EE101A0846FFF723F941EC39
:101670001E0B53EC1D2BFEF7C7FF41EC1B0B94ED2B
:10168000020AF2EE0E0A20EE200A10EE101A0846A8
:10169000FFF710F941EC1C0B53EC1B2BFEF70DFF71
:1016A00041EC1A0B53EC192BFEF707FF41EC180B1A
:1016B000FFF72CF94A4908619FED4A0B0CF024F81A
:1016C000B0EE40BAF0EE60BA94ED000A10EE101AD7
:1016D0000846FFF7EFF841EC1C0B53EC1B2BFEF711
:1016E00093FF41EC190B9FED3F0B0BF09DFFB0EE0C
:1016F00040DAF0EE60DA94ED010A10EE101A0846B6
:10170000FFF7D8F841EC1E0B53EC1D2BFEF77CFFC6
:1017100041EC1B0B94ED020AF2EE0E0A20EE200AB9
:1017200010EE101A0846FFF7C5F841EC1C0B53ECFD
:101730001B2BFEF7C2FE41EC1A0B53EC192BFEF7E4
:101740005DFF41EC180BFFF7E1F8254908620846F8
:1017500090ED000ADFED250A20EE200A80ED010A57
:1017600090ED040ADFED210A20EE200A80ED050A43
:1017700090ED080ADFED1D0A20EE200A80ED090A2F
:1017800090ED010ADFED1A0A20EE200ABDEEC00A34
:1017900010EE100A00B21749A1F8AF00104890ED02
:1017A000050ADFED130A20EE200ABDEEC00A10EE96
:1017B000100A00B21049A1F8AF00094890ED090ADB
:1017C000DFED0B0A20EE200ABDEEC00A10EE100A73
:1017D00000B20A49A1F8AF00BDEC0E8B10BD0000AD
:1017E00040760020000000A025BFF03FBABD1E409B
:1017F000000010421E770020DF770020A078002034
:10180000D2ED020A92ED021AB6EE000A00EEC10A0B
:10181000D2ED030A92ED031A00EEC10AD0ED000AE0
:1018200020EE200AD2ED010A92ED021A60EE810A42
:1018300092ED001AD2ED031A41EE610A90ED011A01
:1018400000EE810AD2ED010A92ED031A60EE810AE0
:1018500092ED001AD2ED021A41EE210A90ED021A21
:1018600000EE810AF0EE000A20EE200A81ED000A67
:1018700092ED010AD2ED020A20EE200AD2ED000A12
:1018800092ED031A00EE810AD0ED000A60EE200A04
:1018900092ED011AD2ED011AB6EE000A01EE610ACC
:1018A000D2ED031A92ED032AB0EE401A01EEC21AED
:1018B000D0ED011AB0EE600A01EE210AD2ED020A63
:1018C00092ED031A60EE810A92ED001AD2ED011A30
:1018D00041EE610A90ED021A00EE810AF0EE000A74
:1018E00020EE200A81ED010A92ED010AD2ED030AF1
:1018F00020EE200AD2ED000A92ED021A00EEC10A93
:10190000D0ED000A20EE200AD2ED020A92ED031A71
:1019100060EE810A92ED001AD2ED011A41EE210A21
:1019200090ED011A00EE810A92ED011AD2ED011A32
:10193000F6EE000A41EE610A92ED021AD2ED021AA9
:1019400041EE610A90ED021A00EE810AF0EE000A03
:1019500020EE200A81ED020A704700BFFEE700007A
:1019600010B5024801F0C0F910BD0000A40C002021
:1019700010B5024801F0B8F910BD0000A40C002019
:1019800010B5024801F0B0F910BD0000CC0C0020E9
:101990000346042B15D007DC7BB1012B0ED0022BA4
:1019A0000DD0032B12D10BE0202B0BD0212B0AD012
:1019B000222B09D0232B09D107E008E007E006E03D
:1019C00005E004E003E002E001E000E000BF00BF4A
:1019D000002070470020704710B5002204490548D8
:1019E00009F0F7F80449034809F0E4F8002010BDB5
:1019F0009C8F0020C08200209C87002070B5054687
:101A00000C46284621680BF05FFB18B12846216878
:101A10000CF0C0FC2946044809F0CCF8024809F053
:101A200095F8002070BD0000C082002010B503466C
:101A30000C460021084610BD2DE9F04104460D4634
:101A400000260A48D0F8BC72D7F8140210B1012061
:101A5000BDE8F0812A462146044809F0BAF8034857
:101A600009F06AF906463046F2E70000C08200201D
:101A700070B52DED048B88B00446002006900790C9
:101A800000F026FCFE4880ED000A00BF00F020FCBC
:101A9000FB48D0ED000A30EE600AF2EE040AB4EE24
:101AA000E00AF1EE10FA14DD9FEDF60A84ED090A62
:101AB0009FEDF50A84ED0A0A9FEDF30A84ED0B0A07
:101AC0009FEDF20A84ED0C0A9FEDF10A84ED060AFF
:101AD00055E29FEDF00A00F0B7FB9FEDEF0A84EDB1
:101AE0000C0A9FEDED0A84ED090A9FEDEB0A84EDE7
:101AF0000A0A9FEDE90A84ED0B0A002673E1FFF75D
:101B000061FB9220FFF762FD062206A91220FFF773
:101B10003DFDFFF74DFB9DF81900000200B29DF856
:101B2000181040EA010500EE105AB8EEC00ADB4872
:101B3000D0ED000A20EE200A84ED000A9DF81B007B
:101B4000000200B29DF81A1040EA010500EE105A9A
:101B5000B8EEC00AD148D0ED000A20EE200A84ED8C
:101B6000010A9DF81D00000200B29DF81C1040EA19
:101B7000010500EE105AB8EEC00AC848D0ED000AC0
:101B800020EE200A84ED020AD4ED000A60EEA00ADD
:101B900094ED011AD4ED011A41EE210A94ED021AD6
:101BA000D4ED021A41EE210AB0EE600A0BF010FEED
:101BB000B0EE408A94ED0C0A30EE080A84ED0C0A6F
:101BC000FFF714FB082206A90020FFF7DFFCFFF750
:101BD00003FB9DF818000F2850D19DF81B00000250
:101BE00000B29DF81A1040EA010500EE105AB8EE56
:101BF000C00AAB48D0ED000A20EE200A84ED030AAB
:101C000094ED090AD4ED030A30EE200A84ED090AA6
:101C10009DF81D00000200B29DF81C1040EA01056D
:101C200000EE105AB8EEC00A9D48D0ED000A20EE32
:101C3000200A84ED040A94ED0A0AD4ED040A30EE79
:101C4000200A84ED0A0A9DF81F00000200B29DF8E8
:101C50001E1040EA010500EE105AB8EEC00A904886
:101C6000D0ED000A20EE200A84ED050A94ED0B0A5F
:101C7000D4ED050A30EE200A84ED0B0A06BBF0EE27
:101C8000488AB0EE489A002017E004F10C0101EBFD
:101C9000800191ED000A03A901EB800181ED000AAA
:101CA00004F10C0101EB800191ED000A694601EBA2
:101CB000800181ED000A411CC8B20328E5DB49E040
:101CC000B4EEE88AF1EE10FA01DDF0EE488AB4EEE7
:101CD000C98AF1EE10FA01D2B0EE489A002037E03E
:101CE00004F10C0101EB800191ED000A03A901EB65
:101CF0008001D1ED000AB4EEE00AF1EE10FA0ADD3F
:101D000004F10C0101EB800191ED000A03A901EB44
:101D1000800181ED000A04F10C0101EB800191EDDD
:101D2000000A694601EB8001D1ED000AB4EEE00A39
:101D3000F1EE10FA0AD204F10C0101EB800191EDF1
:101D4000000A694601EB800181ED000A411CC8B21E
:101D50000328C5DB38EEC90A524880ED000A00208E
:101D600012E003A901EB800191ED000A694601EB45
:101D70008001D1ED000A30EE600A4B4901EB800191
:101D800081ED000A411CC8B20328EADB454890ED0A
:101D9000000AF6EE000AB4EEE00AF1EE10FA1BDCDF
:101DA000414890ED000ADFED410AB4EEE00AF1EEA1
:101DB00010FA11DC90ED010ADFED3C0AB4EEE00A06
:101DC000F1EE10FA08DC90ED020ADFED380AB4EE0D
:101DD000E00AF1EE10FA00DD0AE09FED350A00F0AE
:101DE00033FA701C86B2334800888642FFF687AE0D
:101DF00000BFD4ED0C0A2F48008800EE100AB8EEA0
:101E0000400A80EE801A84ED0C1A002015E004F1DF
:101E1000240101EB8001D1ED000A2649098800EE7A
:101E2000101AB8EE400A80EE801A04F1240101EB8A
:101E3000800181ED001A411CC8B20328E7DBFFF7DF
:101E4000C1F9A220FFF7C2FB022206A92220FFF758
:101E50009DFBFFF7ADF99DF81800C0009DF8191023
:101E600040EA6115B5F5806F02DBA5F5006005B2AB
:101E700000EE105AF8EEC00AB4EE001A1CE00000A2
:101E8000E8040020AC38223BB016CE393F161B4187
:101E9000000020420AD7A33B00000000B00400204D
:101EA000B4040020BC040020688200209A99193EE6
:101EB0006F12033AEC040020B3EE070A00EE810A29
:101EC00084ED060A34480088401C00B2324908807C
:101ED000324890ED000AF6EE000AB4EEE00AF1EEA8
:101EE00010FA3FF7D3AD94ED0C0ADFED2D0A30EE7A
:101EF000600AB0EEC00AF6EE000AB4EEE00AF1EEB7
:101F000010FAEEDC274890ED000A5FED180AB4EEF7
:101F1000E00AF1EE10FAE4DC90ED010A5FED1D0A33
:101F2000B4EEE00AF1EE10FADBDC90ED020A5FEDB0
:101F3000210AB4EEE00AF1EE10FAD2DC94ED090ABF
:101F4000B0EEC00ADFED180AB4EEE00AF1EE10FAC6
:101F5000C7DC94ED0A0AB0EEC00ADFED130AB4EE56
:101F6000E00AF1EE10FABCDC94ED0B0AB0EEC00A08
:101F7000DFED0D0AB4EEE00AF1EE10FAB1DC00BFBD
:101F800094ED0C0ADFED090A80EE801A84ED081A40
:101F900008B0BDEC048B70BDC2040020BC0400205E
:101FA000CDCC1C41688200200AD7233CC3F51C41DC
:101FB00010B52F48B0F9AF0001EE100AB8EEC11A03
:101FC000F0EE410A2A48B0F9B50001EE100AB8EE69
:101FD000C11AB0EE410A2648401D07F0F0FABDEEE6
:101FE000C00A10EE100A01B22148A0F8B31021482F
:101FF000B0F9AF0001EE100AB8EEC11AF0EE410AD6
:102000001C48B0F9B50001EE100AB8EEC11AB0EEE6
:10201000410A1848401D07F0D2FABDEEC00A10EE82
:10202000100A01B21348A0F8B3101348B0F9AF007A
:1020300001EE100AB8EEC11AF0EE410A0E48B0F9EE
:10204000B50001EE100AB8EEC11AB0EE410A0A4816
:10205000401D07F0B4FABDEEC00A10EE100A01B23E
:102060000548A0F8B31005480CF064FA10BD000054
:102070001E770020DF770020A07800203776002030
:1020800010B5B3EE020A064880ED000AD0ED000A52
:10209000B0EE600A0021034807F06EFD10BD00009D
:1020A00000010020600E002001460879012804D1BB
:1020B0009FED050A81ED000A05E0087918B9B3EE35
:1020C000020A81ED000A70470000B442FFF7D8FF12
:1020D00022E01248FFF7E8FF11480088322190FB08
:1020E000F1F201FB120040B90C48D0ED000AB0EE4D
:1020F000600A00210B4807F03FFD09480088401C9A
:102100000749088008460088B0F57A7F01D1002091
:10211000088014200DF0F8FDDBE70000000100202E
:1021200008010020600E002010B5024801F042F9BD
:1021300010BD0000000E002001460878103818235A
:10214000B0FBF3F20848805CC865032A05D908682B
:102150006FF30900001D886503E008686FF309004C
:102160008865886D704700002C0D0108014600202D
:102170008A6A8B69CBB932B1012A0DD0022A03D009
:10218000032A10D10EE000BFCB6A03F08073B3F1D5
:10219000807F00D1012007E0CB6AB3F1C07F00D17E
:1021A000012001E000E000BF34E08B69B3F5005F7F
:1021B0001AD132B1012A07D0022A03D0032A11D141
:1021C0000AE000BF01200EE0CB6A03F08073B3F198
:1021D000807F00D1012006E0CB6AB3F1C07F00D13F
:1021E000012000E000BF15E032B1012A05D0022A2B
:1021F00004D0032A0CD103E000BF00BF012008E097
:10220000CB6A03F08073B3F1807F00D1012000E03E
:1022100000BF00BF7047000008B508484068009044
:10222000074900980968884204D206480068401CA3
:102230000449086002490098086008BD001000E0E9
:1022400028010020240100200C494868F0EE400AD3
:1022500000BF0A494968091A01EE101AF8EE411A3E
:10226000074991ED001AB8EE411A20EE811AF4EEFA
:10227000C11AF1EE10FAECD370470000001000E034
:102280001801002010B52DED028B82B004460E48D7
:102290004068019020680199081A00EE100AF8EED3
:1022A000400A0A4890ED000AB8EE400A80EE801A13
:1022B000B0EE418A01982060FFF7AEFFB0EE480A09
:1022C00002B0BDEC028B10BD001000E01801002030
:1022D00010B52DED028B00F059F80F4890ED000A73
:1022E000B8EE400A808800EE900AF8EE600A9FED92
:1022F0000B1A00EE810A0848C08800EE900AF8EE3A
:10230000600A9FED071A00EE810AB0EE408AB0EE37
:10231000480ABDEC028B10BD100100206F12833AF9
:10232000BD3786351249096841F08071104A116045
:102330000021104A51601146096841F00101116005
:102340000D4941430D4A1160114609684FF47A72F4
:10235000B1FBF2F10A4A116008490968064AB1FB6B
:10236000F2F1084A11600021074A1160704700002D
:10237000FCED00E0001000E040420F0018010020DA
:102380001C010020200100202401002038B529482C
:1023900040680090FFF740FF274800684FF0FF318A
:1023A000A0FB01310098181841F10001234A03C233
:1023B000234800232149026803C9FDF761FF214A30
:1023C00003C220480CC81E4800680024A2FB001568
:1023D00003FB005002FB04021848D0E90030591AF0
:1023E00060EB0200184AC2E900101648006817495D
:1023F0000860174800231449026803C9FDF740FF2D
:1024000012498880084680881149096841430E486E
:10241000D0E90030591A60F100000E4AC2E90010FC
:102420000D4800230B49026803C9FDF729FF07493E
:10243000C88038BD001000E02401002030010020D9
:102440001801002038010020400100201001002068
:102450001C0100204801002020010020704710B519
:10246000012001F053F910BD10B5082001F04EF91C
:1024700010BD10B5102001F049F910BD10B5202095
:1024800001F044F910BDD2ED020A92ED021AB6EE47
:10249000000A00EEC10AD2ED030A92ED031A00EE23
:1024A000C10AD0ED000A20EE200AD2ED010A92ED19
:1024B000021A60EE810A92ED001AD2ED031A41EE83
:1024C000210A90ED011A00EE810AD2ED010A92ED87
:1024D000031A60EE810A92ED001AD2ED021A41EE63
:1024E000610A90ED021A00EE810AF0EE000A20EE79
:1024F000200A81ED000A92ED010AD2ED020A20EED7
:10250000200AD2ED000A92ED031A00EEC10AD0EDC6
:10251000000A60EE200A92ED011AD2ED011AB6EE21
:10252000000A01EE610AD2ED031A92ED032AB0EE21
:10253000401A01EEC21AD0ED011AB0EE600A01EEA7
:10254000210AD2ED020A92ED031A60EE810A92EDA1
:10255000001AD2ED011A41EE210A90ED021A00EEA6
:10256000810AF0EE000A20EE200A81ED010A92EDC8
:10257000010AD2ED030A20EE200AD2ED000A92ED04
:10258000021A00EE810AD0ED000A20EE200AD2EDF8
:10259000020A92ED031A60EE810A92ED001AD2ED62
:1025A000011A41EE610A90ED011A00EE810A92EDE6
:1025B000011AD2ED011AF6EE000A41EE610A92ED1F
:1025C000021AD2ED021A41EE610A90ED021A00EEF3
:1025D000810AF0EE000A20EE200A81ED020A70471F
:1025E00072B600BFFEE700002DED108B82B0F4E064
:1025F0007A48B0F9B50000EE100AB8EEC00ADFED77
:10260000780A80EE201A774880ED031A7648B0F9F0
:10261000B50000EE100AB8EEC00AB1EE400ADFEDD8
:10262000700A80EE201A6F4880ED071A6F48B0F9E3
:10263000B50000EE100AB8EEC00ADFED690A80EEC0
:10264000201A684880ED0B1A90ED030ADFED680A46
:1026500020EE200A80ED020A90ED070ADFED640A01
:1026600020EE200A80ED060A90ED0B0ADFED600AED
:1026700020EE200A80ED0A0A90ED020AD0ED060A4B
:1026800030EE600AD0ED0A0A30EE200AB1EE400AC0
:10269000DFED580A80EE201A80ED111A9FED560BDF
:1026A0000BF032F8B0EE40CAF0EE60CA4D4890ED43
:1026B000060A10EE101A0846FEF7FCF841EC1D0B56
:1026C00053EC1C2BFDF7A0FF41EC1A0B9FED4A0BBE
:1026D0000BF01AF8B0EE40CAF0EE60CA414890ED37
:1026E000060A10EE101A0846FEF7E4F841EC1D0B3E
:1026F00053EC1C2BFDF788FF41EC190B53EC1A2B04
:10270000FDF7DBFE41EC180B9FED3D0B53EC102B5E
:10271000FDF7ECFF41EC1B0BFEF7F8F83149C863FD
:102720009FED390B0AF0F0FFB0EE40CAF0EE60CA40
:102730002C4890ED0A0A10EE101A0846FEF7BAF877
:1027400041EC1D0B53EC1C2BFDF75EFF41EC1A0B0B
:102750009FED2D0B0AF0D8FFB0EE40EAF0EE60EAF4
:10276000204890ED060A10EE101A0846FEF7A2F86F
:1027700041EC1F0B53EC1E2BFDF746FF41EC1C0BED
:10278000184890ED020A10EE101A0846FEF792F86B
:1027900041EC1D0B53EC1C2BFDF730FF41EC1B0BE8
:1027A00053EC1A2BFDF72AFF41EC190B81F0004185
:1027B00041EC180B9FED160B53EC102BFDF796FF19
:1027C000CDE900019DED000B51EC100BFEF79EF8DA
:1027D000044908640D200DF097FA09E71E770020E0
:1027E0000000104240760020DF770020A078002013
:1027F0006E6CCE3E00007042BF58F28B25BFF03F9A
:102800000000000000000040BF58F28B25BFE03FF1
:10281000000000000000104030B5034613B94FF629
:10282000FF7030BD09E013F8014B82EA0400C0B22A
:10283000054D35F8100080EA2222081EA1F10101A1
:10284000F1D11046EDE700004C0D010870B50A48C3
:102850000468001D0568001D0668344454B1082250
:102860000649204605F06EF9042204491031284635
:1028700005F068F970BD0000107AFF1F32050020D6
:1028800006F04EFB19E00AF0D9FB0C4890ED011A56
:10289000F0EE410A90ED001AB0EE410A011D07F07A
:1028A00091F906480BF0A4FDFFF782FB04490548A7
:1028B0000CF080FA14200DF027FAE4E7E87300200A
:1028C00037760020A40C002010B5024692F8203084
:1028D000012B01D0022B06D110684069084314680F
:1028E0006061002010BD506A40F4802050620120D9
:1028F000F8E7F0B504460D461E4694F820702068AF
:102900008368A86800B900E000BF012F01D0022F42
:102910007CD103F0806030B903F0006018B903F097
:102920008050002873D0C3F30161022905D9606A81
:1029300040F4000060620120F0BD0120884030605A
:10294000A86860B9B5F800C0E86840EA4C5C206847
:1029500000F5C07000EB0110C0F800C00FE0D5E931
:1029600001C040EACC00D5F80CC040EA0C00D4F815
:1029700000C00CF5C07C0CEB011CCCF80000D5F8B5
:1029800010C0206800F5C07000EB0110C0F804C052
:10299000287D01280ED1206800F5C07000EB0110E1
:1029A000406840F4807C206800F5C07000EB0110A6
:1029B000C0F804C0D079000692F806C040EA0C4086
:1029C00092F805C040EA0C2C10794CEA000C206803
:1029D00000F5C07000EB0110C0F80CC0D078000604
:1029E00092F802C040EA0C4092F801C040EA0C2084
:1029F00092F800C040EA0C00D4F800C00CF5C07C8E
:102A00000CEB011CCCF80800206801E016E00FE098
:102A100000F5C07000EB0110006840F0010C206868
:102A200000F5C07000EB0110C0F800C0002083E783
:102A3000606A40F40010606201207DE7606A40F443
:102A400080206062012077E7F0B504460A462168DD
:102A500094F82050012D01D0022D7ED1424901F57C
:102A60000071086840F001000860086820F47C509C
:102A700008600868566A40EA06200860107D00F089
:102A80001F06012000FA06F3C8699843C861A1F542
:102A90000071D069C8B9D1F80C029843C1F80C0292
:102AA000908880B2968940EA064601F51070576911
:102AB00040F83760108880B2168940EA064601F572
:102AC0001070576900EBC7004660D069012819D122
:102AD000D1F80C021843C1F80C02908880B2168815
:102AE00040EA064601F51070576940F83760908952
:102AF00080B2168940EA064601F51070576900EB6E
:102B0000C7004660906928B9D1F804029843C1F81B
:102B1000040204E0D1F804021843C1F80402106969
:102B200028B9D1F814029843C1F8140204E0D1F88E
:102B300014021843C1F81402106A012804D1D1F814
:102B40001C021843C1F81C02D1F8000220F0010059
:102B5000C1F800020020F0BDFFE7606A40F4802069
:102B600060620120F7E7000000640040704770B524
:102B7000044694F82050012D01D0022D7DD151B989
:102B80002068C06800F0030080B9606A40F400105B
:102B90006062012070BD2068006900F0030028B960
:102BA000606A40F4001060620120F3E7206800F5DD
:102BB000D87000EB0110006800F00400906090688D
:102BC00040B9206800F5D87000EB01100068400D96
:102BD000106007E0206800F5D87000EB0110006875
:102BE000C0085060206800F5D87000EB0110006844
:102BF00000F00200D060206800F5D87000EB0110F2
:102C0000406800F00F001061206800F5D87000EBFC
:102C10000110406800F47F40000A9061206800F5D0
:102C2000D87000EB01104068000C5061206800F57E
:102C3000D87000EB011080681870206800F5D8701B
:102C400000EB0110806800F47F40000A5870206893
:102C500000F5D87000EB0110806800F47F00000CD4
:102C60009870206800F5D87000EB01108068000EA5
:102C7000D870206800F5D87000E02FE000EB01105C
:102C8000C0681871206800F5D87000EB0110C068AA
:102C900000F47F40000A5871206800F5D87000EBFE
:102CA0000110C06800F47F00000C9871206800F5E6
:102CB000D87000EB0110C068000ED87131B92068DF
:102CC000C06840F020002668F06005E020680069D8
:102CD00040F020002668306100205BE7606A40F425
:102CE00080206062012055E72DE9F05F0446002551
:102CF000206846692068D0F80490206887682068BA
:102D0000D0F80CA02068D0F810B02068D0F8188057
:102D100006F00100002855D007F00100C0B10120E5
:102D20002168886007F0020018B1204600F0D1FA4F
:102D30000EE007F0040010B145F4006508E007F06C
:102D4000080010B145F4805502E0204600F0C0FABA
:102D500007F48070C8B14FF480702168886007F470
:102D6000007018B1204600F0B6FA0EE007F480605B
:102D700010B145F4005508E007F4006010B145F4C7
:102D8000804502E0204600F0A5FA07F48030C8B183
:102D90004FF480302168886007F4003018B1204675
:102DA00000F09BFA0EE007F4802010B145F40045D6
:102DB00008E007F4002010B145F4803502E0204619
:102DC00000F08AFA06F0080038B10AF0100020B1CD
:102DD00045F4007510202168C86006F0040040B179
:102DE0000AF0080028B108202168C860204600F0D9
:102DF00015FA06F0020038B12068C06800F0030040
:102E000010B1204600F00CFA06F0400038B10BF08B
:102E1000100020B145F4806510202168086106F09B
:102E2000200040B10BF0080028B10820216808619B
:102E3000204600F01BFA06F0100038B12068006947
:102E400000F0030010B1204600F011FA06F4003043
:102E500040B109F0100028B11020216848602046D8
:102E600000F006FA06F4803040B109F0080028B1FD
:102E7000082021684860204600F030FA06F400403F
:102E800088B309F0040078B306F4807020B108F02C
:102E9000010008B145F0010506F4007020B108F00A
:102EA000020008B145F0020506F4806020B108F088
:102EB000040008B145F0040506F40060A0B108F074
:102EC000700088B108F07000402817D006DC102888
:102ED0000BD020280CD0302819D10CE0502810D06D
:102EE000602814D110E01DE019E045F008050FE05E
:102EF00045F010050CE045F0200509E045F04005DF
:102F000006E045F0800503E045F4807500E000BF71
:102F100000BF2068806920F070002168886104206B
:102F2000216848602DB1606A284360622046FFF73F
:102F30001DFEBDE8F09F70B504460CB9012070BDC0
:102F400094F8200010B9204600F0B0F8206800681E
:102F500040F001002168086000F0E6FC05460DE045
:102F600000F0E2FC401B0A2808D9606A40F40030F7
:102F70006062052084F820000120E0E720684068B6
:102F800000F001000028EBD02068006820F002006B
:102F90002168086000F0C8FC05460DE000F0C4FCA4
:102FA000401B0A2808D9606A40F40030606205209E
:102FB00084F820000120C2E72068406800F0020089
:102FC0000028EBD1207E012806D12068006840F05F
:102FD00080002168086005E02068006820F080001B
:102FE00021680860607E012806D12068006840F0F2
:102FF00040002168086005E02068006820F040007B
:1030000021680860A07E012806D12068006840F091
:1030100020002168086005E02068006820F020009A
:1030200021680860E07E012806D12068006820F051
:1030300010002168086005E02068006840F010007A
:1030400021680860207F012806D12068006840F0D0
:1030500008002168086005E02068006820F008008A
:1030600021680860607F012806D12068006840F070
:1030700004002168086005E02068006820F0040072
:1030800021680860D4E902010843216908436169A5
:1030900008436168491E08432168C86100206062D6
:1030A000012084F82000002049E7000010B586B018
:1030B0000446142101A8FDF72DF9524920688842E1
:1030C00049D151480068401C4F49086008460068D3
:1030D00001280FD100BF002000904C48006840F04C
:1030E00000704A4908600846006800F000700090CF
:1030F00000BF00BF00BF00200090444810380068A7
:1031000040F008004149103908600846006800F0A6
:103110000800009000BF00BF032001900220029031
:1031200000200390032004900920059001A938484D
:1031300000F0FAFA00220521132000F0D1FD13203F
:1031400000F0BEFD00220521142000F0C9FD14206E
:1031500000F0B6FD54E02F492068884250D100BFEE
:10316000002000902948006840F0806027490860EE
:103170000846006800F08060009000BF00BF224851
:103180000068401C204908600846006801280FD1EB
:1031900000BF002000901D48006840F000701B49EF
:1031A00008600846006800F00070009000BF00BF93
:1031B00000BF0020009015481038006840F0020061
:1031C0001249103908600846006800F002000090BB
:1031D00000BF00BF602001900220029000200390F9
:1031E000032004900920059001A90B4800F09CFAE7
:1031F00000220521402000F073FD402000F060FD1A
:1032000006B010BD006400401000002040380240AD
:10321000000C0240006800400004024070470000BB
:1032200010B58AB004460D49206888420AD101AB26
:1032300003AA00210A48FFF79AFC03A901A805F098
:10324000D7FE09E007492068884205D101AB03AAEF
:1032500000210548FFF78BFC0AB010BD0064004058
:10326000A40C002000680040CC0C00207047704780
:10327000704770B5044694F82000012822D102203E
:1032800084F820002068006820F0010021680860B0
:1032900000F04AFB05460DE000F046FB401B0A2803
:1032A00008D9606A40F400306062052084F820008C
:1032B000012070BD2068406800F001000028EBD1BB
:1032C0006062F6E7606A40F4002060620120F0E787
:1032D000704770477047704770477047704770B5C8
:1032E0000446A56D00F020FB064694F83500022840
:1032F00008D08020606500BF002084F8340000BF43
:10330000012070BD2068006820F016002168086068
:103310002068406920F0800021684861206C08B96D
:10332000A06C28B12068006820F0080021680860BF
:103330002068006820F001002168086010E000F0BB
:10334000F3FA801B05280BD920206065032084F840
:10335000350000BF002084F8340000BF0320D0E710
:103360002068006800F001000028E8D194F85C10A3
:103370003F208840A860012084F8350000BF00206D
:1033800084F8340000BF00BFBBE7014691F8350068
:10339000022803D08020486501207047052081F86D
:1033A00035000868006820F001000A6810600020FD
:1033B000F3E70000F8B50446002000908C48006850
:1033C0004FF41651B0FBF1F7A56D2E6894F85C1020
:1033D00008208840304098B12068006800F0040060
:1033E00070B12068006820F004002168086094F83B
:1033F0005C1008208840A860606D40F001006065A6
:1034000094F85C1001208840304068B12068406921
:1034100000F0800040B194F85C1001208840A86062
:10342000606D40F00200606594F85C1004208840F4
:10343000304068B12068006800F0020040B194F8A4
:103440005C1004208840A860606D40F00400606556
:1034500094F85C1010208840304078B320680068F1
:1034600000F0080050B394F85C1010208840A86069
:103470002068006800F4802080B12068006800F4B3
:10348000002028B9206CC8B12046216C884715E07F
:10349000A06C98B12046A16C88470FE020680068B6
:1034A00000F4807028B92068006820F008002168C6
:1034B0000860206C10B12046216C884794F85C109D
:1034C000202088403040002865D02068006800F047
:1034D000100000285FD094F85C1020208840A8607D
:1034E00094F83500052828D12068006820F01600DF
:1034F000216808602068406920F0800021684861E8
:10350000206C08B9A06C28B12068006820F0080081
:103510002168086094F85C103F208840A860012072
:1035200084F8350000BF002084F8340000BF206D0F
:1035300010B12046216D8847F8BD2068006800F46E
:10354000802080B12068006800F4002028B9606CF9
:1035500010B12046616C88471DE0E06BD8B1204671
:10356000E16B884717E02068006800F4807068B954
:103570002068006820F0100021680860012084F8AD
:10358000350000BF002084F8340000BFE06B10B1AC
:103590002046E16B8847606D38B3606D00F0010034
:1035A000F0B1052084F835002068006820F00100A3
:1035B0002168086000BF0098401C0090B84200D904
:1035C00005E02068006800F001000028F3D100BF8A
:1035D000012084F8350000BF002084F8340000BFCB
:1035E000E06C10B12046E16C884700BFA4E7000002
:1035F000200000202DE9F0410446002500F094F958
:10360000074614B90120BDE8F081606A00B100BF2F
:10361000022084F8350000BF002084F8340000BF89
:103620002068006820F00100216808600AE000F0CE
:103630007BF9C01B052805D920206065032084F88C
:103640003500E0E72068006800F001000028EED1B6
:103650002068056821480540D4E901010843E16874
:1036600008432169084361690843A1690843E16986
:103670000843216A08430543606A042803D1D4E95A
:103680000B0108430543206805602068456925F063
:103690000705606A0543606A04280DD1A06A0543E6
:1036A000E06A48B12046FEF761FD28B14020606520
:1036B000012084F83500A6E7206845612046FEF722
:1036C0003BFD064694F85C103F208840B060002027
:1036D0006065012084F83500002094E73F8010F0F9
:1036E00070B5044600F020F906462546681C10B166
:1036F00004480078054400BF00F016F9801BA8427A
:10370000FAD370BD1C0000207047000010B50446BD
:1037100004480068204020B1024804602046FFF7BA
:10372000F3FF10BD143C0140F8B502460B460025DE
:10373000002400200021D6E0012606FA01F51E68CB
:1037400006EA0504AC4274D11E7906F00306012E88
:1037500004D01E7906F00306022E13D190684F00A4
:103760000326BE40B0434F00DE68BE403043906049
:10377000506801268E40B0431E79C6F300168E4075
:10378000304350601E7906F00306032E09D0D0683E
:103790004F000326BE40B0434F009E68BE403043FA
:1037A000D0601E7906F00306022E13D1CF0802F175
:1037B000200656F827004E07F70E0F26BE40B043EE
:1037C0004F07FF0E1E69BE403043CF0802F12006AE
:1037D00046F8270010684F000326BE40B0431E790C
:1037E00006F003064F00BE40304310605E6806F4EA
:1037F0004036002E76D000BF002600963C4E36683C
:1038000046F480463A4F3E603E46366806F48046AF
:10381000009600BF00BF374E8F0856F827008E076E
:10382000370F0F26BE40B043334EB24202D10026BE
:1038300024E057E0314EB24201D101261EE0304E65
:10384000B24201D1022619E02E4EB24201D1032626
:1038500014E02D4EB24201D104260FE02B4EB242AD
:1038600001D105260AE02A4EB24201D1062605E022
:10387000284EB24201D1072600E008268F073F0FED
:10388000BE4030431B4E8F0846F82700224E30685A
:10389000A0435E6806F4801606B120431E4E3060D9
:1038A000361D3068A0435E6806F4001606B120435A
:1038B000194E361D3060184E361F3068A0435E68C2
:1038C00006F4003606B12043134E361F3060361F13
:1038D0003068A0435E6806F4803606B120430E4E81
:1038E000083E3060491C1029FFF426AFF8BD0000E7
:1038F0004438024008380140000002400004024001
:1039000000080240000C0240001002400014024077
:1039100000180240001C0240083C01400AB18161CD
:1039200001E00B04836170470148006870470000A4
:103930001400002070B504460CB9012070BD94F845
:103940003D0028B9002084F83C00204600F0DAF859
:10395000242084F83D002068006820F001002168E0
:1039600008602068006840F4004021680860206812
:10397000006820F400402168086001F0B1F90546B4
:103980005C496068884206D85B48854201D20120C4
:1039900007E0002005E05948854201D2012000E0FF
:1039A0000020012800D1C9E75548B5FBF0F6206892
:1039B000406820F03F003043216848604D4960680E
:1039C000884201D8701C07E04FF4967070434FF4A2
:1039D0007A71B0FBF1F0401C2168096A21F03F01C7
:1039E00008432168086243496068884214D8681E09
:1039F00061684900B0FBF1F0401CC0F30B000428E3
:103A000001D204203DE0681E61684900B0FBF1F07E
:103A1000401CC0F30B0034E0A06838B9681E616830
:103A200001EB4101B0FBF1F0401C0AE0681E616847
:103A300001EBC10202EB0111B0FBF1F0401C40F4BC
:103A40008040C0F30B0008B901201AE0A06848B913
:103A5000681E616801EB4101B0FBF1F0401CC0F34E
:103A60000B000CE0681E616801EBC10202EB011162
:103A7000B0FBF1F0401CC0F30B0040F4804040F478
:103A800000402168C9694CF6FF72914308432168E0
:103A9000C861D4E9070108432168096821F0C00121
:103AA000084321680860D4E9031008432168896845
:103AB00048F2FF329143084321688860D4E9050148
:103AC00008432168C96821F0FF0108432168C860E4
:103AD0002068006840F00100216808600020206430
:103AE000202084F83D000020206384F83E0000BFC1
:103AF00024E70000A086010080841E0000093D002C
:103B000040420F0010B586B00446142101A8FCF70E
:103B100001FC2A49206888424DD100BF0020009056
:103B20002748006840F004002549086008460068FE
:103B300000F00400009000BF00BF00BF0020009014
:103B40000846006840F0010008600846006800F080
:103B50000100009000BF00BF4815019012200290A4
:103B600001200390032004900420059001A915482A
:103B7000FFF7DAFD4FF480700190122002900120CF
:103B80000390032004900420059001A90E48FFF73C
:103B9000CBFD00BF0020009009481030006840F4C1
:103BA00000000749103108600846006800F4000072
:103BB000009000BF00BF06B010BD0000005C0040D8
:103BC000303802400008024000000240034800680C
:103BD000034909780844014908607047140000202F
:103BE0001C00002010B50D48006840F400700B491F
:103BF00008600846006840F4806008600846006875
:103C000040F480700860032000F0A8F80F2000F056
:103C100007F800F02BF8002010BD0000003C024027
:103C200070B504460E4800784FF47A71B1FBF0F09D
:103C30000C490968B1FBF0F5284601F03CFD08B1DC
:103C4000012070BD102C07D200222146501E00F02A
:103C500047F80548046001E00120F2E70020F0E7A2
:103C60001C000020200000201800002008B500BF24
:103C7000002000901148006840F480400F4908601F
:103C80000846006800F48040009000BF00BF00BFFD
:103C900000200090081F006840F08050091F086055
:103CA0000846006800F08050009000BF00BF00226E
:103CB0000F21901E00F014F808BD000044380240A7
:103CC00001460846002809DB00F01F0301229A4044
:103CD00043099B0003F1E023C3F8002100BF7047B4
:103CE0002DE9F05F80460D461646002709F036FAAA
:103CF000074639462A46334601F00700C0F1070A55
:103D0000BAF1040F02D94FF0040A01E0C0F1070A2A
:103D1000D14600F1040ABAF1070F02D24FF0000AAF
:103D200001E0A0F1030AD4464FF0010A0AFA09FAA9
:103D3000AAF1010A0AEA020A0AFA0CFA4FF0010B88
:103D40000BFA0CFBABF1010B0BEA030B4AEA0B0479
:103D50002146404609F00AFABDE8F09F00BF00F096
:103D60000702064B19684FF6FF031940044B0B433B
:103D700043EA0221014B196000BF70470CED00E0DF
:103D80000000FA0570470246106841620020704743
:103D9000F0B5034615461868446A21B944EA05405F
:103DA0001E68B06219E01868806A04EB10440022B3
:103DB00008E0186800F5827050F8220004EB104407
:103DC000501CC2B2481E9042F3D844EA0547186816
:103DD00000F582704E1E40F826700020F0BD10B530
:103DE0000446D4F8080507F012FC10BD70B504466F
:103DF0000D4605EBC50304F13C0101EB83010A69A3
:103E00002946D4F8080507F0FDFA70BD70B50446E0
:103E10000D4605EBC50304F51F7101EB83010A692B
:103E20002946D4F8080507F071FB70BD10B50446AB
:103E3000D4F8080507F0EEFB10BD2DE9F04104466B
:103E40000D4605F08000802808D105F00F0000EB3A
:103E5000C00104F13C0000EB810607E005F00F0013
:103E600000EBC00104F51F7000EB810631462068AD
:103E700008F0C2FE07463846BDE8F08170B504463A
:103E80000E4606F0800080280AD106F00F0000EBF5
:103E9000C00104F13C0000EB81050120687009E0DD
:103EA00006F00F0000EBC00104F51F7000EB810568
:103EB0000020687006F00F00287000BF94F8BC0462
:103EC000012801D1022070BD012084F8BC0400BF8C
:103ED0002946206808F070F900BF002084F8BC046F
:103EE00000BF00BFEFE770B504460E4606F00F00B6
:103EF0006168884201D9012070BD06F080008028E9
:103F00000AD106F00F0000EBC00104F13C0000EB09
:103F100081050120687009E006F00F0000EBC00188
:103F200004F51F7000EB8105002068700020A87068
:103F300006F00F00287000BF94F8BC04012801D1DE
:103F40000220D9E7012084F8BC0400BF294620687C
:103F500008F01AFC00BF002084F8BC0400BF00BFBA
:103F6000CAE7024601F00F0000EBC00302F51F7024
:103F700000EB8300006A70472DE9F04705460E46C6
:103F800090461F464FF0000906F0800080280AD1B5
:103F900006F00F0000EBC00105F13C0000EB8104CE
:103FA0000120607009E006F00F0000EBC00105F58C
:103FB0001F7000EB81040020607006F00F0020707D
:103FC000C4F80C802771607808B120782081022F16
:103FD00001D10020607100BF95F8BC04012802D116
:103FE0000220BDE8F087012085F8BC0400BF21460F
:103FF000286807F0F7FF00BF002085F8BC0400BF69
:104000004846EEE72DE9F04104460E46174698462D
:1040100006F00F0000EBC00104F51F7000EB8105F6
:104020002F61C5F8188000202862687006F00F0024
:1040300028702069012800D16F6106F00F0028B9AF
:10404000227C2946206808F079FA04E0227C29467F
:10405000206808F02DFC0020BDE8F08170B5044612
:104060000D4605F00F006168884201D9012070BD3E
:1040700005F0800080280AD105F00F0000EBC00198
:1040800004F13C0000EB81060120707007E005EBB5
:10409000C50104F51F7000EB81060020707001203F
:1040A000B07005F00F00307000BF94F8BC04012818
:1040B00001D10220DBE7012084F8BC0400BF3146B7
:1040C000206808F0A8FB05F00F0028B9217C04F255
:1040D000C442206808F020FB00BF002084F8BC0424
:1040E00000BF00BFC3E72DE9F04104460E46174666
:1040F000984606F00F0000EBC00104F13C0000EB15
:1041000081052F61C5F818800020286201206870A1
:1041100006F00F0028702069012800D16F6106F0B9
:104120000F0028B9227C2946206808F007FA04E02D
:10413000227C2946206808F0BBFB0020BDE8F08106
:104140002DE9FE4F0446D4F800B05E46206808F022
:104150003AFE002874D1206808F074FE08B9BDE862
:10416000FE8F40F608008059C0F30D20C4F8FC040F
:10417000206808F067FE00F00200022805D12068E0
:10418000406900F0020021684861206808F05AFE8A
:1041900000F01000102845D12068806920F0100040
:1041A00021688861DBF8209009F00F0000EBC00166
:1041B00004F51F7000EB810AC9F3434002281AD1AD
:1041C00047F6F07009EA000030B3C9F30A12584606
:1041D000DAF8101008F03BFEC9F30A11DAF8100003
:1041E0000844CAF81000C9F30A11DAF8200008449C
:1041F000CAF8200010E0C9F3434006280CD1082279
:1042000004F2C441584608F022FEC9F30A11DAF854
:1042100020000844CAF820002068806940F010009F
:1042200021688861206808F00DFE00F40020B0F5D8
:10423000002F7BD10025206808F0D4FD029072E0A9
:10424000E1E2029800F00100002868D0E9B220689D
:1042500008F0EBFD804608F0010048B1012106F5A9
:10426000306000EB451081602946204605F0AAF831
:1042700008F00800082809D1082106F5306000EB95
:10428000451081602946204605F06AF808F01000C4
:10429000102805D1102106F5306000EB4510816033
:1042A00008F00200022824D1DBF8140000F080009E
:1042B000802807D140F60400805940F4806140F620
:1042C0000400815105EBC50104F51F7000EB810A64
:1042D0009AF80300012806D100208AF80300E9B209
:1042E000204600F09BFA022106F5306000EB4510F5
:1042F000816008F02000202805D1202106F53060DB
:1043000000EB4510816008F40050B0F5005F06D165
:104310004FF4005106F5306000EB451081606D1CD4
:10432000029840080290029800288AD1206808F07C
:1043300089FD00F48020B0F5802F7DD1206808F041
:1043400047FD029000259AE0029800F00100002845
:1043500073D0E9B2206808F04FFD804608F00100F4
:10436000F0B305F00F0101208840019040F63400C1
:104370008159019821EA000040F634018851012159
:1043800006F5106000EB451081602069012824D1FA
:1043900005EBC50104F13C0000EB810005EBC50213
:1043A000016904F13C0000EB8200C068014405EBA8
:1043B000C50204F13C0000EB820001616DB905EB20
:1043C000C50104F13C0000EB8100806928B904F2CA
:1043D000C4420121206808F09FF9E9B2204600E0BC
:1043E00001E0FFF703FD08F00800082805D10821C7
:1043F00006F5106000EB4510816008F010001028F1
:1044000005D1102106F5106000EB4510816008F021
:104410004000402805D1402106F5106000EB451012
:10442000816008F0020002281DD12946584608F094
:104430008BFC05EBC50101E025E01CE004F13C002C
:1044400000EB810A9AF80300012806D100208AF8BF
:104450000300E9B2204600F0D8F9022106F5106009
:1044600000EB4510816008F08000802803D12946C8
:10447000204605F049F86D1C029840080290029809
:1044800000287FF461AF206808F0DCFC00F00040F9
:10449000B0F1004F1CD140F60400805920F001011A
:1044A00040F60400815194F8F404012807D100205B
:1044B00084F8F40400212046FFF764FC02E0204663
:1044C00000F0D4FA2068406900F00040216848619B
:1044D000206808F0B7FC00F40060B0F5006F0ED162
:1044E00040F60800805900F0010010B1204600F0AD
:1044F00015FB2068406900F400602168486120686D
:1045000008F0A0FC00F48050B0F5805F7ED140F64A
:104510000400805920F0010140F60400815110216F
:10452000206808F011FC002732E04FF67F3106F5D5
:10453000106000EB4710816006F5106000EB47103B
:10454000006820F4001106F5106000EB47100160D0
:104550004FF67F3106F5306000EB4710816006F5BD
:10456000306000EB4710006820F4001106F5306061
:1045700000EB4710016006F5306000EB4710006863
:1045800040F0006106F5306000EB471001607F1CD1
:104590006068B842C9D840F61C00805940F001114B
:1045A00040F61C008151206B70B1D6F8840840F0B1
:1045B0000B01C6F8841840F64400805940F00B0106
:1045C00040F6440081510FE040F61400805942F259
:1045D0002B01084340F614018851081F805940F010
:1045E0000B014FF401608151D6F8000820F4FE6001
:1045F000C6F80008217C04F2C442206808F08CF858
:104600002068406900F48050216800E000E04861C3
:10461000206808F017FC00F40050B0F5005F17D1D7
:10462000206807F047FD206808F0BAFBE06000F062
:1046300051FB0090227B2068009908F08BFC2046FB
:1046400000F0FCF92068406900F4005021684861DE
:10465000206808F0F7FB00F00800082808D1204681
:1046600000F00BFA2068406900F0080021684861FA
:10467000206808F0E7FB00F08000802818D1DBF804
:10468000180020F08000CBF8180001250DE005EBA4
:10469000C50104F51F7000EB8100C078012803D12B
:1046A000E9B22046FFF7C9FB6D1C6068A842EED84E
:1046B000206808F0C7FB00F48010B0F5801F2DD1F2
:1046C000012522E006F5106000EB4510D0F80090BF
:1046D00005EBC50104F13C0000EB810000790128E5
:1046E00012D109F00040B0F1004F0DD1012105EBCE
:1046F000C50204F13C0000EB8200C170E8B240F05A
:1047000080012046FFF799FB6D1C6068A842D9D84C
:104710002068406900F4801021684861206808F032
:1047200091FB00F40010B0F5001F44D1012538E0E2
:1047300006F5306000EB4510D0F8009005EBC501A0
:1047400004F51F7000EB81000079012828D109F0E1
:104750000040B0F1004F23D109F4803094F8FC14EC
:1047600001F0010188421BD1012105EBC50204F5CE
:104770001F7000EB8200C170DBF8180040F0800071
:10478000CBF81800DBF8140000F0800040B940F6C8
:104790000400805940F4007140F60400815103E0A8
:1047A0006D1C6068A842C3D800BF2068406900F44F
:1047B000001021684861206808F044FB00F0804048
:1047C000B0F1804F08D12046FFF709FB206840690F
:1047D00000F0804021684861206808F033FB00F059
:1047E000040004280FD12068D0F8049009F00400D8
:1047F000042802D12046FFF719FB2068406840EAF0
:1048000009002168486000BFA9E470B504460D4660
:104810002946D4F8080506F069FF70BD70B5044656
:104820000D462946D4F8080506F084FF70BD70B522
:104830008AB0044614B901200AB070BD266894F805
:10484000BD0428B9002084F8BC04204600F0A2F87A
:10485000032084F8BD04F06B00F4807008B90021D7
:104860002161206807F062FE282204F110016846E9
:10487000FBF737FD94E80F0007F030FC20B1022071
:1048800084F8BD040120D7E70021206808F00FFB61
:10489000002531E0012105EBC50204F13C0000EBED
:1048A0008200417005EBC50104F13C0000F8215085
:1048B00005EBC50100EB81000581002105EBC50278
:1048C00004F13C0000EB8200017105EBC50204F12C
:1048D0003C0000EB8200C16005EBC50204F13C0026
:1048E00000EB8200016105EBC50204F13C0000EB26
:1048F00082008161681CC5B26068A842CAD80025E0
:104900002AE0002105EBC50204F51F7000EB8200D0
:10491000417005EBC50104F51F7000F8215000211E
:1049200005EBC50200EB8200017105EBC50204F541
:104930001F7000EB8200C16005EBC50204F51F701B
:1049400000EB8200016105EBC50204F51F7000EB6E
:1049500082008161681CC5B26068A842D1D8282253
:1049600004F110016846FBF7BCFC94E80F0007F067
:10497000EDFC20B1022084F8BD0401205CE700209A
:1049800084F83800012084F8BD04206807F0CCFCCE
:10499000002051E710B586B00446142101A8FBF7AA
:1049A000B9FC2068B0F1A04F42D100BF00200090B8
:1049B0002048006840F001001E4908600846006871
:1049C00000F00100009000BF00BF4FF4C050019004
:1049D0000220029000200390032004900A200590FA
:1049E00001A91548FEF7A0FE00BF1248001D00688F
:1049F00040F080000F49091D086000BF00200090B2
:104A00000C481430006840F480400A4914310860B2
:104A10000846006800F48040009000BF00BF00BF5F
:104A2000002205214320FFF75BF94320FFF748F9F7
:104A300006B010BD303802400000024070B5044698
:104A40000125E06808B9002506E0E068022801D1E8
:104A5000012501E0FDF7C4FD2946D4F8080506F05C
:104A600012FFD4F8080506F0B9FE70BD10B5044673
:104A7000D4F8080506F0E8FE10BD10B50446D4F8D9
:104A8000080506F0ECFE10BD70B504460D4600BFEB
:104A900094F8BC04012801D1022070BD012084F8E3
:104AA000BC0400BF84F838502946206808F033FA67
:104AB00000BF002084F8BC0400BF00BFEDE710B5C4
:104AC000044604F2C441D4F8080506F0F3FE10BD14
:104AD00070B50446256800BF94F8BC04012801D1D4
:104AE000022070BD012084F8BC0400BFA06A012828
:104AF00006D1A069012803D0A86B40F48030A863D8
:104B0000206808F0EFF8206807F0FCFB00BF0020E9
:104B100084F8BC0400BF00BFE3E7000010B5044602
:104B2000D4F8080506F023FF2068D0F8000E40F006
:104B300001002168C1F8000E206A28B1034800680E
:104B400040F006000149086010BD000010ED00E0D3
:104B500070B504460D460CB9012070BD5848006878
:104B600000F00700A84209D255490D7008460068B8
:104B700000F00700A84201D00120EEE7207800F005
:104B8000020002281DD1207800F00400042805D17D
:104B90004C48006840F4E0504A490860207800F032
:104BA0000800082805D14748006840F4604045499E
:104BB00008604448006820F0F000A16808434149BB
:104BC0000860207800F00100A8B36068012807D1D0
:104BD0003C4808380068C0F34040B8B90120BCE741
:104BE0006068022802D06068032807D13548083879
:104BF0000068C0F3406048B90120AEE7314808388A
:104C00000068C0F3400008B90120A6E72D480068FD
:104C100020F00300616808432A490860FEF784FE1B
:104C2000064609E0FEF780FE801B41F2883188428B
:104C300002D9032091E707E02248006800F00C0049
:104C40006168B0EB810FEDD11D48006800F00700EE
:104C5000A84209D91A490D700846006800F00700FB
:104C6000A84201D0012078E7207800F00400042851
:104C700007D11448006820F4E050E1680843114966
:104C80000860207800F00800082808D10D48006866
:104C900020F46040216940EAC1000A49086000F040
:104CA0003FF808490968C1F30311074A515CC8403D
:104CB0000649086006480068FEF7B2FF00204CE78E
:104CC000003C024008380240340D0108200000205A
:104CD00018000020014800687047000020000020F4
:104CE00000B5FFF7F7FF04490968C1F38221034AC1
:104CF000515CC84000BD000008380240440D010866
:104D000000B5FFF7E7FF04490968C1F34231034AE0
:104D1000515CC84000BD000008380240440D010845
:104D20002DE9F047002400250026A146254800680B
:104D300000F00C0020B1042805D008283AD105E085
:104D4000DFF8849039E0DFF8849036E01D48001FDA
:104D5000006800F03F041B48001F006800F480005A
:104D600078B11A481749091F0968C1F38811A0FBD7
:104D700001700146224600233846FBF781FA0546BA
:104D80000EE011480F49091F0968C1F38811A0FB03
:104D900001700146224600233846FBF771FA0546AA
:104DA0000848001F0068C0F30140401C4600B5FBE6
:104DB000F6F902E0DFF8109000BF00BF4846BDE8FA
:104DC000F0870000083802400024F400001BB70000
:104DD000F8B504460CB90120F8BD207800F00100B8
:104DE000002874D0F948006800F00C0004280DD0A9
:104DF000F648006800F00C00082813D1F348001FA3
:104E0000006800F48000B0F5800F0BD1EF4808383F
:104E10000068C0F34040002859D06068002856D18F
:104E20000120D9E700BF6068B0F5803F08D1E748AE
:104E30000838006840F48030E449083908601EE012
:104E40006068B0F5A02F0DD1E0480838006840F444
:104E50008020DE49083908600846006840F4803048
:104E600008600CE0D9480838006820F48030D74941
:104E7000083908600846006820F48020086000BFF8
:104E8000606890B1FEF750FD054606E0FEF74CFD68
:104E9000401B642801D903209EE7CC4808380068ED
:104EA000C0F340400028F1D011E0FEF73DFD05467B
:104EB00006E0FEF739FD401B642801D903208BE78B
:104EC000C24808380068C0F340400028F1D120787B
:104ED00000F0020002285FD1BC48006800F00C001E
:104EE00058B1BA48006800F00C0008281CD1B74837
:104EF000001F006800F48000B0B9B44808380068AA
:104F0000C0F3400020B1E068012801D0012063E730
:104F1000AE480838006820F0F800216940EAC10076
:104F2000AA490839086037E0E06800B30120A849C1
:104F30000860FEF7F9FC054606E0FEF7F5FC401BAD
:104F4000022801D9032047E7A04808380068C0F3C9
:104F500040000028F1D09D480838006820F0F80093
:104F6000216940EAC10099490839086014E000202D
:104F700097490860FEF7D8FC054606E0FEF7D4FC2A
:104F8000401B022801D9032026E790480838006812
:104F9000C0F340000028F1D1207800F00800082874
:104FA0002CD16069A8B101208A490860FEF7BCFCD9
:104FB000054606E0FEF7B8FC401B022801D9032095
:104FC0000AE782486C300068C0F340000028F1D046
:104FD00014E000207F490860FEF7A6FC054606E0C5
:104FE000FEF7A2FC401B022801D90320F4E6774813
:104FF0006C300068C0F340000028F1D1207800F048
:105000000400042870D1002770483830006800F090
:10501000805090B900BF002000906C483830006884
:1050200040F080506949383108600846006800F057
:105030008050009000BF00BF01276748006800F45F
:105040008070B0B96448006840F4807062490860BC
:10505000FEF76AFC054606E0FEF766FC401B0228E8
:1050600001D90320B8E65C48006800F4807000288D
:10507000F2D000BFA068012808D154486830006809
:1050800040F001005149683108601DE0A068052822
:105090000DD14E486830006840F004004B4968313B
:1050A00008600846006840F0010008600CE04748CE
:1050B0006830006820F00100444968310860084603
:1050C000006820F00400086000BFA068A8B1FEF7E7
:1050D0002BFC054609E0FEF727FC401B41F2883116
:1050E000884202D9032077E626E038486830006815
:1050F000C0F340000028EED013E0FEF715FC054693
:1051000008E0FEF711FC401B41F28831884201D9CA
:10511000032061E62D4868300068C0F34000002895
:10512000EFD1012F07D129483830006820F0805096
:1051300026493831086000BFA069002845D02348BF
:10514000006800F00C0008285DD0A069022845D155
:1051500000201F490866FEF7E7FB054606E0FEF75C
:10516000E3FB401B022801D9032035E61748083825
:105170000068C0F340600028F1D1D4E9070108437A
:10518000616A40EA81110122A06AC2EB500041EA43
:1051900000412C20005D41EA00600C49091F0860B5
:1051A00001200B490866FEF7BFFB054606E0FEF747
:1051B000BBFB401B022801D903200DE60348083839
:1051C0000068C0F340600028F1D049E00838024090
:1051D00000004742800E47420070004000202149F5
:1051E0000866FEF7A1FB054606E0FEF79DFB401BA7
:1051F000022801D90320EFE51B480068C0F3406096
:105200000028F2D12CE0A069012800D1E4E516487D
:10521000001D0668A069012820D006F48001E0691D
:1052200081421BD106F03F01206A814216D147F628
:10523000C0703040616AB0EB811F0FD106F440317D
:105240000122A06AC2EB5000B1EB004F06D106F07C
:1052500070612C20005DB1EB006F01D00120BBE537
:105260000020B9E5000047420038024010B504466E
:105270000CB9012010BD606A38B96068B0F5827F52
:1052800000D105E00021E16102E0002121616161BE
:105290000021A16294F8510028B9002084F8500040
:1052A000204600F047F8022084F85100206800688A
:1052B00020F0400021680860A08800F482702189F5
:1052C00001F404410843A18901F400610843217CF1
:1052D00001F002010843217D01F001010843218B07
:1052E00001F400710843217F01F0380108432021B7
:1052F000095D01F080010843218D01F4005108434C
:10530000216808600421A06901EA104094F8241083
:1053100001F010010843216848602068C06920F44A
:1053200000602168C86100206065012084F8510098
:1053300000209FE710B586B00446142101A8FAF7B3
:10534000E9FF4B49206888427ED100BF00200090D1
:105350004848006840F480504649086008460068A4
:1053600000F48050009000BF00BF00BF00200090FC
:1053700040481438006840F002003E491439086083
:105380000846006800F00200009000BF00BF00BFA8
:10539000002000900846006840F0010008600846C0
:1053A000006800F00100009000BF00BF18200190CD
:1053B0000220029001200390032004900520059014
:1053C00001A92D48FEF7B0F980200190022002903B
:1053D00001200390032004900520059001A927488F
:1053E000FEF7A2F92648274908604FF0C0604860E0
:1053F000002124488160C1604FF480610161002177
:1054000041618161C1614FF440310162002141621B
:10541000FEF7F0F808B1FDF7E3F800BF1948E064C3
:10542000846300BF16481830174908604FF0C06009
:1054300048604021144881600021C1604FF48061C0
:1054400001610021416100E010E08161C1614FF420
:105450000031016200214162FEF7CCF808B1FDF78E
:10546000BFF800BF0848A064846300BF06B010BD49
:105470000030014044380240000402400000024075
:1054800040640240A00D0020000E00202DE9FF5FC7
:105490000446884691461D460E9E0120029000203B
:1054A000019000BF94F85000012803D1022004B0FD
:1054B000BDE8F09F012084F8500000BFFEF734FAE9
:1054C000074694F851B060680390AA46BBF1010FFB
:1054D0000BD00398B0F5827F04D1A06810B9BBF15E
:1054E000040F02D002200190DBE0B8F1000F03D0DE
:1054F000B9F1000F00D015B901200190D1E094F866
:105500005100042802D0052084F851000020606575
:10551000C4F83890E587A587C4F83080E586A5866D
:10552000206460642068006800F04000402805D0D6
:105530002068006840F0400021680860E068B0F52D
:10554000006F4AD1606810B1BAF1010F09D1206B28
:1055500000882168C860206B801C2063E08E401E9C
:10556000E08633E02068806800F00200022810D155
:10557000E08E70B1029801280BD1206B0088216861
:10558000C860206B801C2063E08E401EE0860020F7
:1055900002902068806800F0010068B1E08F58B187
:1055A0002068C068A16B0880A06B801CA063E08F9E
:1055B000401EE08701200290FEF7B6F9C01BB04202
:1055C00004D3701C10B1032001906AE0E08E002823
:1055D000C8D1E08F0028C5D14AE0606810B1BAF1A7
:1055E000010F09D1206B007821680873206B401CE3
:1055F0002063E08E401EE08634E02068806800F082
:105600000200022810D1E08E70B1029801280BD15F
:10561000206B007821680873206B401C2063E08EAB
:10562000401EE086002002902068806800F00100A3
:1056300068B1E08F58B12068C068A16B0870A06B9A
:10564000401CA063E08F401EE08701200290FEF71F
:105650006BF9C01BB04201D3701C00B916B903200E
:1056600001901EE0E08E0028C7D1E08F0028C4D151
:105670003A463146204604F0D3F920B1012001908A
:10568000202060650DE0A06850B900BF00200090A8
:105690002068C068009020688068009000BF00BF4C
:1056A00000BF012084F8510000BF002084F85000A2
:1056B00000BF0198FBE670B504462546681EB0F1B0
:1056C000807F01D301200FE0681E4FF0E021486188
:1056D0000F214FF0FF3007F049FD00204FF0E0218F
:1056E000886107200861002070BD7047704710B5C1
:1056F0000346002200BF93F83C00012801D102209C
:1057000010BD012083F83C0000BF22F0FF00CC68F0
:1057100040EA040222F440708C6840EA040222F459
:1057200080604C6840EA040222F400600C6840EAA1
:10573000040222F480500C6940EA040222F4005072
:105740004C6940EA040222F48040CC6940EA040239
:105750001868426400BF002083F83C0000BF00BF0F
:10576000CEE7000030B502460B4600BF92F83C0081
:10577000012801D1022030BD012082F83C0000BF89
:10578000022082F83D00106844681068816824F0A7
:1057900070041868044310684460184D1068A842EB
:1057A0001BD01068B0F1804F17D0154D1068A8427B
:1057B00013D0144D1068A8420FD0134D1068A842A2
:1057C0000BD0124D1068A84207D0114D1068A842A6
:1057D00003D0104D1068A84205D121F0800158680F
:1057E000014310688160012082F83D0000BF002065
:1057F00082F83C0000BF00BFBDE700000000014090
:105800000004004000080040000C0040000401407B
:10581000004001400018004010B504460CB90120BA
:1058200010BD94F83D0028B9002084F83C002046C3
:1058300000F026F8022084F83D00211D206804F0C5
:105840003BFB012084F8460000BF84F83E000121A4
:105850003F200155402001554120015500BF00BFA8
:10586000012084F842004320015544200155452081
:10587000015500BF012084F83D000020D0E7000062
:1058800010B586B00446142101A8FAF743FD594922
:10589000206888420FD100BF002000905648006861
:1058A00040F00100544908600846006800F001001B
:1058B000009000BF9BE05149206888421AD100BF88
:1058C000002000904C48001F006840F002004A4948
:1058D000091F08600846006800F00200009000BF41
:1058E00000BF002205211D20FEF7FAF91D20FEF75A
:1058F000E7F97CE04249206888421AD100BF0020C5
:1059000000903D48001F006840F004003A49091F1C
:1059100008600846006800F00400009000BF00BF67
:10592000002205211E20FEF7DBF91E20FEF7C8F934
:105930005DE034492068884211D100BF002000900A
:105940002D48001F006840F010002B49091F086017
:105950000846006800F01000009000BF47E02A49A8
:10596000206888420FD100BF0020009022480068C4
:1059700040F00200204908600846006800F002007C
:10598000009000BF33E02149206888422FD100BF3A
:10599000002000901848006840F400301649086064
:1059A0000846006800F40030009000BF00BF00BF50
:1059B0000020009010481438006840F020000E4984
:1059C000143908600846006800F02000009000BF0D
:1059D00000BF40200190022002900120039002208D
:1059E00004900320059001A90948FDF79DFE06B02B
:1059F00010BD000000000140443802400004004097
:105A00000008004000100040000401400044014034
:105A100000140240014691F83D00012801D0012008
:105A20007047022081F83D001A4B086898421BD04D
:105A30000868B0F1804F17D0174B0868984213D010
:105A4000164B086898420FD0154B086898420BD047
:105A5000144B0868984207D0134B0868984203D04B
:105A6000124B086898420CD10868806800F0070261
:105A7000062A0CD00868006840F001000B68186026
:105A800005E00868006840F001000B68186000201D
:105A9000C6E700000000014000040040000800408C
:105AA000000C00400004014000400140001800408C
:105AB0002DE9F04104460D46002700BF94F83C0054
:105AC000012802D10220BDE8F081012084F83C00C9
:105AD00000BF022084F83D002068866826F0770623
