:020000040800F2
:1000000068DC002031030008CD9200081D6800085C
:10001000B5900008F71600080DD900080000000090
:100020000000000000000000000000007102000855
:10003000E51B000800000000CD020008EFA4000846
:100040004B0300084B0300084B0300084B03000858
:100050004B0300084B030008E71B00084B03000894
:100060004B030008F11B0008FB1B00084B030008B2
:100070004B0300084B0300084B0300084B03000828
:100080004B0300084B0300084B0300080D17000842
:10009000FD1600084B0300084B030008051C000870
:1000A0004B0300084B0300084B0300084B030008F8
:1000B0004B0300084B030008CDA500084B030008C4
:1000C0004B0300084B0300084B0300084B030008D8
:1000D0004B03000809AE00084B0300084B0300085F
:1000E0004B0300084B0300084B0300084B030008B8
:1000F0004B0300084B0300084B0300084B030008A8
:100100004B0300084B0300084B0300084B03000897
:100110004B0300084B0300084B0300084B03000887
:100120004B0300084B0300084B030008111A00089A
:100130004B0300084B0300084B0300084B03000867
:100140004B0300084B0300084B030008759500089B
:100150004B0300084B0300084B0300084B03000847
:100160004B0300084B0300084B0300084B03000837
:100170004B0300084B0300084B030008000000007D
:100180004B0300084B03000800F002F800F060F891
:100190000AA090E8000C82448344AAF10107DA45E2
:1001A00001D100F055F8AFF2090EBAE80F0013F0D4
:1001B000010F18BFFB1A43F001031847404001002C
:1001C000604001000A444FF0000C10F8013B13F0AE
:1001D000070408BF10F8014B1D1108BF10F8015BA0
:1001E000641E05D010F8016B641E01F8016BF9D193
:1001F00013F0080F1EBF10F8014BAD1C0C1B09D1EA
:100200006D1E58BF01F801CBFAD505E014F8016B5B
:1002100001F8016B6D1EF9D59142D6D370470000ED
:100220000023002400250026103A28BF78C1FBD8FF
:10023000520728BF30C148BF0B6070471FB513F08D
:10024000F4FB9DE8030000F021FA1FBD10B510BDBE
:1002500000F0AEFA1146FFF7F1FF10F011FC00F0CC
:10026000CCFA03B4FFF7F2FF03BC00F0FDFA000084
:100270002C4B19680868B0E8F04F80F30988BFF389
:100280006F8F4FF0000080F311887047000000006E
:1002900008480068006880F308884FF0000080F389
:1002A000148862B661B6BFF34F8FBFF36F8F00DF64
:1002B00000BF00BF08ED00E0DFF80C00016841F46A
:1002C00070010160704700BF88ED00E0EFF3098026
:1002D000BFF36F8F134B1A681EF0100F08BF20ED8D
:1002E000108A20E9F04F106009B44FF0500080F3FD
:1002F0001188BFF34F8FBFF36F8F11F089FD4FF05F
:10030000000080F3118809BC19680868B0E8F04F54
:100310001EF0100F08BFB0EC108A80F30988BFF3FD
:100320006F8F704728000020EFF3058070470000B2
:100330000948804709480047FEE7FEE7FEE7FEE779
:10034000FEE7FEE7FEE7FEE7FEE7FEE704480549B5
:10035000054A064B70470000B9A50008890100084E
:10036000689C002068DC002068BC002068BC00207D
:1003700070B5064600F06EF9056806F10B0020F036
:100380000704B4429CBF002070BD2B466A68BAB116
:100390001068A04210D304F1080188423CBF5068A5
:1003A000586007D35168101941601168091B01603A
:1003B00058601460101D70BD13465268002AE7D1C2
:1003C0002146284600F04EF90028DED170BD53EAE0
:1003D000020C00F069802DE9F04B4FF00006002B75
:1003E0001FBFB3FA83F503FA05F424FA05F65E405D
:1003F00012BF1643B2FA82F502FA05F4C5F12005E0
:100400001EBF22FA05FC44EA0C04203556EA044CCF
:100410004FEA144418BF641C4FF000084FF0000965
:10042000904271EB030C39D3002919BFB1FA81F75F
:1004300001FA07F6B0FA80F700FA07F6C7F12007CD
:100440001EBF20FA07FC46EA0C062037B6FBF4FC78
:10045000A7EB0507103F07F01F0BCBF120060CFAA6
:100460000BFB2CFA06F644BFB3460026202FA4BF90
:100470005E464FF0000B5BEA060C08BF4FF0010B25
:1004800019EB0B09ABFB027C48EB0608C01B06FB13
:1004900002CC0BFB03CC71EB0C01C1E70B4602460F
:1004A00041464846BDE8F08B13B54FF000004FF0D1
:1004B0000001AFF30080BDE81C407047032A40F202
:1004C000308010F0030C00F0158011F8013BBCF1F6
:1004D000020F624498BF11F801CB00F8013B38BF0E
:1004E00011F8013BA2F1040298BF00F801CB38BF1C
:1004F00000F8013B11F0030300F02580083AC0F03A
:10050000088051F8043B083A51F804CBA0E80810E1
:10051000F5E7121D5CBF51F8043B40F8043BAFF314
:100520000080D20724BF11F8013B11F801CB48BF6E
:1005300011F8012B24BF00F8013B00F801CB48BFA4
:1005400000F8012B704710B5203AC0F00B80B1E8DD
:100550001850203AA0E81850B1E81850A0E81850F8
:10056000BFF4F5AF5FEA027C24BFB1E81850A0E801
:10057000185044BF18C918C0BDE810405FEA827C1B
:1005800024BF51F8043B40F8043B08BF7047D20732
:1005900028BF31F8023B48BF11F8012B28BF20F8D3
:1005A000023B48BF00F8012B704702F0FF0343EA0B
:1005B000032242EA024200F002B84FF0000204298E
:1005C000C0F0128010F0030C00F01B80CCF1040C82
:1005D000BCF1020F18BF00F8012BA8BF20F8022BB6
:1005E000A1EB0C0100F00DB85FEAC17C24BF00F85C
:1005F000012B00F8012B48BF00F8012B70474FF08A
:10060000000200B5134694469646203922BFA0E862
:100610000C50A0E80C50B1F12001BFF4F7AF09076E
:1006200028BFA0E80C5048BF0CC05DF804EB89005F
:1006300028BF40F8042B08BF704748BF20F8022BA2
:1006400011F0804F18BF00F8012B704770477047BA
:100650007047000000487047109C002070477047AA
:100660007047704738B504460A4600206946AFF324
:100670000080002808BF38BD02460099204600F0DF
:1006800075F8012038BD012000F08AB8F8B5AFF345
:100690000080054600200C46102000BF0646A81921
:1006A000A0420DD9324669460020AFF30080070012
:1006B00008BF00F075F80098A04218BF0546C4199D
:1006C000FFF7C8FF05600746F01D20F00700461938
:1006D000284600F00AF8B44208BFF8BDA21B314614
:1006E0003868BDE8F84000F041B800210160C0E979
:1006F000011070471020704770B50446051FFFF7C2
:10070000A9FF0068002C14BF446870BD002C18BFFE
:10071000AC423CBF20466468F8D301680A18AA427C
:1007200018BF456003D12A68054611440160286856
:100730004119A1421CBF6C6070BD6168696021688D
:100740000844286070BD10B500F00CF8006810BDBA
:1007500010B5044600F006F8046010BD004870476C
:10076000089C002000487047089C00200346406811
:100770008C46002818BF88423CBF03464068F8D327
:1007800018681844884207D00CF1030020F00700D5
:10079000001D411A521A0146081D0A60FFF7ACBF3E
:1007A00010B500F039F8BDE8104000F02FB87047E0
:1007B0007546FFF7D3FFAE4605006946534620F065
:1007C0000700854618B020B5FFF7C0FDBDE8204002
:1007D0004FF000064FF000074FF000084FF0000BFD
:1007E00021F00701AC46ACE8C009ACE8C009ACE8B0
:1007F000C009ACE8C0098D46704710B50446AFF398
:1008000000802046BDE81040FFF72BBD002801D036
:1008100000F02AB87047000010B5012805D000216B
:1008200003A000F027F8012010BD09A1F8E700009F
:1008300053494752544D454D3A204F7574206F66C9
:100840002068656170206D656D6F72790000000031
:100850003A2048656170206D656D6F727920636F15
:10086000727275707465640001491820ABBEFEE7B2
:100870002600020070B505460C460A2000E06D1CFB
:1008800000F011F835B128780028F8D102E0641C96
:1008900000F009F814B120780028F8D1BDE87040C4
:1008A0000A20AFF3008008B569468DF800000320E8
:1008B000ABBE08BD2DE9F04103880F88BB423FD194
:1008C00047884E88B7423BD11688B34238D1568804
:1008D000B74235D1466854684D6807FB03F80020DD
:1008E000B0EB980F1BD04FEA980047423068296858
:1008F00012F0BBFF20607068696812F0B6FF60609C
:10090000B068A96812F0B1FFA060F068E96812F061
:10091000ACFFE0601034103510360137E6D118F026
:1009200003000BD0474200BF56F8040B55F8041BD8
:1009300012F09BFF44F8040B0137F5D1002000E0D2
:10094000FD2040B2BDE8F0814360428001807047E5
:100950002DE9F04F93B0B0F802A0B0F800B0D34545
:1009600040F05D810A88FD25934540F059814B8810
:100970009A4240F055814768BBF1000F00F0398181
:100980004C686FF00300019700274FF07E585E46D9
:10099000CDF820A000EB8B0920460494BBEB0600A9
:1009A00008D0B9002046FFF72AFE002001300434A9
:1009B0008742FBD104F1040A751EC4F800800FD0F1
:1009C000A9EB87015046FFF71AFE0120544600BFED
:1009D000013004348642FBD10137002D2E46DDD193
:1009E000019FDDF820A0BBF1000F00F00281042080
:1009F00007EB8A023C1DABF101080021CDF824A0D1
:100A0000CDF81CB000EB8A000290CAF100000B90F8
:100A10004FEA8A00129000BF594580F0058101FB22
:100A20000AF0109104990597002593460392CDF89A
:100A3000188057F8209001EB800107EB80004F46AB
:100A40000E910D9008E000BF1298DBF80070A8F13D
:100A500001083546584483463846002112F02AFFE3
:100A600040B93846294612F017FF00283E4608D004
:100A700008E000BF87F000462846314612F021FF0B
:100A800000B92E46B8F1000FDED13046002112F039
:100A9000F5FE002840F0C88029F00040314612F0F1
:100AA000EDFEDDE9062140B91098C043401804D09E
:100AB000002000BF01308242FCD14846002112F0E4
:100AC000DDFE099E002840F0AF800D994FF07E506A
:100AD0000F9408601098AAEB0001012908460C91B8
:100AE0000BD00F9D012400BF2868494612F0FCFE80
:100AF000013445F8040BA642F6D10B9C0E9D00BFB5
:100B00002868494612F0F0FE45F8040B0134F7D18D
:100B10000C98DDF81C804FF0000B01380A90DDE9DD
:100B20000465DDE90F4100BF8B4505D10C9806EB4C
:100B30008A0605EB80053CE00D98D5F80090016829
:100B4000484612F023FF0146484612F078FF45F868
:100B5000040B0A98E0B1CDF84480DDF82480012729
:100B60004FF0000A54F80A10484612F00FFF0146F1
:100B700055F80A0012F063FF013745F80A000AF140
:100B8000040AB845EED15544DDF820A0DDF84480D4
:100B90000B9F0E9C54F8041B484612F0F7FE0146CA
:100BA000306812F04CFF46F8040B0137F2D1DDE952
:100BB0000F4105EB81050BF1010BB8F10108B3D131
:100BC0000298039ADDF81880059FDDF81CB001310A
:100BD000044402440998A8F1010804370138099037
:100BE0007FF41AAF48460021002512F047FE019F0E
:100BF000B0B10AFB0BF50024002645B1386800218E
:100C000012F03CFE18B101360437AE42F6D3AE42C4
:100C100008BF6FF00404204613B0BDE8F08FFD2537
:100C200068B213B0BDE8F08FFB25F9E72DE9F04F6E
:100C300091B047880B889F4240F0AF8006881388A8
:100C40009E4240F0AA804D8853889D4240F0A58086
:100C500052684FF0000949684FEA850805960497E5
:100C6000039502924268A9EB97000191079027F043
:100C7000030002EB80000C920990B8080B906843C7
:100C800001EB00102946009007F003000A90404253
:100C9000069000BF029800EB890ADDE9000BCDF851
:100CA000209010900B980F91002847D0CDF838A0D5
:100CB000CDF834B0D946DDF81CA0DDF830B0002402
:100CC0009BE8C100D9F80010DBF80C5012F05EFE72
:100CD0000146204612F0C9FD59F808100446304676
:100CE00012F054FE0146204612F0BFFD09EB080643
:100CF0000446384656F8081012F048FE01462046D1
:100D000012F0B3FD46440446284656F8081012F087
:100D10003DFE0146204612F0A8FD044606EB080001
:100D20000BF1100B1AF1010A00EB0809C8D1109D54
:100D3000DDE90896DDE90DBA03E000BF0C9E002452
:100D40005D460A9868B1069F56F8040B296812F0B0
:100D50001DFE0146204612F088FD04464544013739
:100D6000F2D110980F994AF8044B0BF1040B0430A0
:100D70000139109096D10498099901EB80010991ED
:100D80000C9901EB800105980C9103990138894475
:100D900005907FF47FAF002000E0FD2040B211B04D
:100DA000BDE8F08F2DE9F04103880F88BB423FD1A9
:100DB00047884E88B7423BD11688B34238D156880F
:100DC000B74235D1466854684D6807FB03F80020E8
:100DD000B0EB980F1BD04FEA980047423068296863
:100DE00012F02DFE20607068696812F028FE6060C5
:100DF000B068A96812F023FEA060F068E96812F0FC
:100E00001EFEE0601034103510360137E6D118F0C0
:100E100003000BD0474200BF56F8040B55F8041BE3
:100E200012F00DFE44F8040B0137F5D1002000E06C
:100E3000FD2040B2BDE8F0812DE9F04F82B0B0F85E
:100E400000E04B889E454BD144880B889C4247D19B
:100E500000234E6804F0030B40684FEA0E184FEA77
:100E6000940AA3EB9401CBF1000901914FEA8E01A2
:100E700032460096BAF1000F1CD0019F344600BFE5
:100E80002546046801372C6044686C5005EB01046A
:100E9000D0F808C044F801C00C44C26800F110004A
:100EA000625004EB010202EB0104E9D105EB0807F3
:100EB00003E000BF009A02EB8307BBF1000F07D0ED
:100EC0004D4600BF50F8042B01353A600F44F9D16C
:100ED0000436BEF1010E03F10103CBD1002000E086
:100EE000FD2040B202B0BDE8F08F70B505460C465B
:100EF00000260DB1022C00D870BDA11E4FF6FF7266
:100F0000284601F053FE0646A01E2E54310A601EEC
:100F1000295400BFF0E7000010B50122102102485B
:100F200002F046FE10BD00000000024010B5002295
:100F30001021024802F03CFE10BD000000000240FB
:100F400010B501221146024802F032FE10BD000029
:100F50000004024010B500220121024802F028FEE0
:100F600010BD00000004024010B50446FFF7DEFF8C
:100F7000922000F0DBF90622B249122000F0B6F907
:100F8000FFF7CAFFAF484078000200B2AD490978C8
:100F90000843AD4908800846B0F9000000EE100A89
:100FA000B8EEC00AA94880ED000A0846B0F9000072
:100FB00000EE100AB8EEC00AA548D0ED000A20EEF7
:100FC000200AD4ED080A20EE200A84ED000A9D488C
:100FD000C078000200B29B49897808439A4908808A
:100FE0000846B0F9000000EE100AB8EEC00A9748B3
:100FF00080ED010A0846B0F9000000EE100AB8EED4
:10100000C00A9348D0ED000A20EE200AD4ED080A69
:1010100020EE200A84ED010A8A484079000200B2DD
:10102000884909790843884908800846B0F90000D2
:1010300000EE100AB8EEC00A844880ED020A0846A5
:10104000B0F9000000EE100AB8EEC00A8048D0EDFA
:10105000000A20EE200AD4ED080A20EE200A84EDD2
:10106000020AFFF777FF08227649002000F03EF9D8
:10107000FFF766FF734800780F286CD17548007839
:10108000002869D06F48C078000200B26D498978A5
:1010900008436D4908800846B0F9000000EE100AC8
:1010A000B8EEC00A694880ED030A94ED090A0846C3
:1010B000B0F9000000EE900AF8EEE00A664890ED04
:1010C000001A10EE810A84ED030A5E48407900029E
:1010D00000B25C49097908435B4908800846B0F9C9
:1010E000000000EE100AB8EEC00A584880ED040A6D
:1010F00094ED0A0A0846B0F9000000EE900AF8EEF6
:10110000E00A554890ED001A10EE810A84ED040AB9
:101110004C48C079000200B24A49897908434A49DB
:1011200008800846B0F9000000EE100AB8EEC00AC8
:10113000464880ED050A94ED0B0A0846B0F9000018
:1011400000EE900AF8EEE00A434890ED001A10EE27
:10115000810A84ED050A44E03A48C078000200B2F2
:10116000384989780843384908800846B0F90000B2
:1011700000EE100AB8EEC00A3748D0ED000A20EEA3
:10118000200A84ED030A2F484079000200B22D495D
:10119000097908432C4908800846B0F9000000EEA0
:1011A000100AB8EEC00A2C48D0ED000A20EE200A42
:1011B00084ED040A2348C079000200B221498979EC
:1011C0000843214908800846B0F9000000EE100AE3
:1011D000B8EEC00A2048D0ED000A20EE200A84EDC7
:1011E000050AFFF7A3FEA22000F0A0F8022215498D
:1011F000222000F07BF8FFF78FFE12480078C00035
:101200001049497840EA61100F4908800846B0F952
:101210000000B0F5806F05DB08460088A0F500608F
:1012200000B208800848B0F9000000EE100AF8EE9D
:10123000C00AB4EE001AB3EE070A00EE810A84ED8C
:10124000070A10BD3E05002046050020A07F0020B3
:1012500000050020100500200405002070B504469C
:101260000D46194804600020184908700EF056F920
:10127000164909780843154908700EF005FA134914
:1012800009780843114908709FED110A114880ED53
:10129000090A9FED110A80ED0A0A9FED100A80ED00
:1012A0000B0A9FED0F0A80ED0C0A90ED0C0ADFEDA2
:1012B0000D0A80EE801A80ED081A9FED0B0A80ED72
:1012C000060A0846007870BD480500200A0500207F
:1012D000BFD21D3B6C7F00202F820A3B7850443ADE
:1012E000B47D1C41C3F51C410000204270B5064688
:1012F0000C46154646F0800000F018F806E0552030
:1013000000F014F82070641C681EC5B2002DF6D1E0
:1013100070BD70B504460D4644F0800000F006F83C
:10132000552000F003F8287070BD000001B582B0B0
:101330004FF47A70012301AA02A9009003480068C3
:1013400004F0A2F89DF804000EBD0000480500203E
:1013500070B505460C462846FFF7E8FF2046FFF724
:10136000E5FF70BD10B52DED0E8B04468349606816
:101370000863A0684863E068886394ED020AD4EDCE
:10138000030AB2EE0E1A10EE810A10EE100A08607F
:101390009FED7B0B0DF004FCB0EE40BAF0EE60BAAE
:1013A00094ED010A10EE101A084612F033FA41ECDF
:1013B0001C0B53EC1B2B11F037FF41EC190B9FED6D
:1013C000700B0CF055FDB0EE40DAF0EE60DA94ED03
:1013D000020A10EE101A084612F01CFA41EC1E0B1D
:1013E00053EC1D2B11F020FF41EC1B0B94ED030A75
:1013F000F2EE0E0A20EE200A10EE101A084612F045
:1014000009FA41EC1C0B53EC1B2B11F063FC41EC73
:101410001A0B53EC192B11F05DFC41EC180B11F079
:1014200027FC564908619FED580B0CF021FDB0EEEA
:1014300040BAF0EE60BA94ED010A10EE101A0846B8
:1014400012F0E8F941EC1C0B53EC1B2B11F0ECFEF5
:1014500041EC190B9FED4C0B0DF0A2FBB0EE40DA06
:10146000F0EE60DA94ED020A10EE101A084612F05F
:10147000D1F941EC1E0B53EC1D2B11F0D5FE41ECC4
:101480001B0B94ED030AF2EE0E0A20EE200A10EE7A
:10149000101A084612F0BEF941EC1C0B53EC1B2B42
:1014A00011F018FC41EC1A0B53EC192B12F0C8F890
:1014B00041EC180B11F0DCFB30490862084600686B
:1014C00000EE100ADFED320A20EE200A10EE100ABC
:1014D00048600846006900EE100ADFED2D0A20EE94
:1014E000200A10EE100A48610846006A00EE100A51
:1014F000DFED270A20EE200A10EE100A48620846A7
:10150000406800EE100ADFED230A20EE200ABDEE4F
:10151000C00A10EE100A01B204F1EE00A4F89D1109
:101520001648406900EE100ADFED1A0A20EE200A84
:10153000BDEEC00A10EE100A01B2A4F85E120F4808
:10154000406A00EE100ADFED130A20EE200ABDEE1D
:10155000C00A10EE100A01B2A4F81F139FED0E0A84
:1015600084ED010A9FED0C0A84ED020A9FED0A0A40
:1015700084ED030ABDEC0E8B10BD0000BC7600208C
:101580000000002052C1F03F0000002052C1E03FA7
:10159000BABD1E400000104200000000D2ED020A59
:1015A00092ED021AB6EE000A00EEC10AD2ED030A6D
:1015B00092ED031A00EEC10AD0ED000A20EE200AD7
:1015C000D2ED010A92ED021A60EE810A92ED001A44
:1015D000D2ED031A41EE610A90ED011A00EE810A84
:1015E000D2ED010A92ED031A60EE810A92ED001A23
:1015F000D2ED021A41EE210A90ED021A00EE810AA4
:10160000F0EE000A20EE200A81ED000A92ED010AB8
:10161000D2ED020A20EE200AD2ED000A92ED031A62
:1016200000EE810AD0ED000A60EE200A92ED011A68
:10163000D2ED011AB6EE000A01EE610AD2ED031AEC
:1016400092ED032AB0EE401A01EEC21AD0ED011A53
:10165000B0EE600A01EE210AD2ED020A92ED031A01
:1016600060EE810A92ED001AD2ED011A41EE610A94
:1016700090ED021A00EE810AF0EE000A20EE200A38
:1016800081ED010A92ED010AD2ED030A20EE200A53
:10169000D2ED000A92ED021A00EEC10AD0ED000A66
:1016A00020EE200AD2ED020A92ED031A60EE810AC2
:1016B00092ED001AD2ED011A41EE210A90ED011AC5
:1016C00000EE810A92ED011AD2ED011AF6EE000A3F
:1016D00041EE610A92ED021AD2ED021A41EE610A60
:1016E00090ED021A00EE810AF0EE000A20EE200AC8
:1016F00081ED020A704700BFFEE7000010B5024806
:1017000001F098FC10BD0000E80C002010B5024864
:1017100001F090FC10BD0000E80C00200346042BF3
:1017200015D007DC7BB1012B0ED0022B0DD0032B83
:1017300012D10BE0202B0BD0212B0AD0222B09D069
:10174000232B09D107E008E007E006E005E004E00C
:1017500003E002E001E000E000BF00BF00207047AE
:101760000020704710B500220449054809F0EFFD3C
:101770000449034809F0DCFD002010BD948C0020D2
:10178000B87F00209484002070B505460C4628469A
:1017900021680CF0BDF818B1284621680EF070FAE7
:1017A0002946044809F0C4FD024809F08DFD0020D7
:1017B00070BD0000B87F002010B503460C46002124
:1017C000084610BD2DE9F04104460D4600260A48A2
:1017D000D0F8BC72D7F8140210B10120BDE8F08136
:1017E0002A462146044809F0B2FD034809F062FE8A
:1017F00006463046F2E70000B87F002010B52E48BC
:10180000B0F99D0101EE100AB8EEC11AF0EE410ADE
:101810002948B0F9A30101EE100AB8EEC11AB0EEE2
:10182000410A2548F33007F0DCFFBDEEC00A10EE98
:10183000100A01B22048A0F8A111B0F95E0201EE31
:10184000100AB8EEC11AF0EE410A1B48B0F9640262
:1018500001EE100AB8EEC11AB0EE410A174807F0BF
:10186000C0FFBDEEC00A10EE100A01B21248A0F887
:101870006212B0F91F0301EE100AB8EEC11AF0EEC1
:10188000410A0D48B0F9250301EE100AB8EEC11A5D
:10189000B0EE410A0948C13007F0A3FFBDEEC00A0F
:1018A00010EE100A01B20448A0F8231300F2313000
:1018B0000EF0CEFA10BD00008073002034750020B9
:1018C00000201049087007F0F7FB19E00D4890ED73
:1018D000021AF0EE410A90ED011AB0EE410A00F151
:1018E0000801001D08F00AFD06480EF00FFAFFF788
:1018F00085FF054905480FF0BDF9142010F0A8F93F
:10190000E4E7000080730020B1760020E80C00209E
:1019100010B59FED0D0A0D4880ED000AD0ED000ACC
:10192000B0EE600A00210A4808F0C2FC9FED090AE7
:10193000064880ED010AD0ED010AB0EE600A0421EC
:10194000034808F0B5FC10BD000070425477002039
:10195000280E002000001B430146087A4A7A904274
:1019600017D0087A012808D19FED0A0A81ED000AF4
:101970009FED090A81ED010A09E0087A38B99FED67
:10198000070A81ED000A9FED060A81ED010A087A37
:101990004872704700000E43000090420000704201
:1019A00000001B43FFF7B4FF2BE01648D0ED000A00
:1019B000B0EE600A0021144808F07AFC1148D0ED1E
:1019C000010AB0EE600A04210F4808F071FC0F48CC
:1019D0000088052190FBF1F201FB120010B90948C3
:1019E000FFF7BAFF09480088401C084908800846EC
:1019F0000088B0F57A7F01D100200880142010F013
:101A000027F9D2E754770020280E00200A01002091
:101A100010B5024801F002FE10BD0000C80D002004
:101A20000146087810381823B0FBF3F20848805CB0
:101A3000C865032A05D908686FF30900001D886589
:101A400003E008686FF309008865886D704700003F
:101A50005C3D0108014600208A6A8B69CBB932B12E
:101A6000012A0DD0022A03D0032A10D10EE000BFB4
:101A7000CB6A03F08073B3F1807F00D1012007E0CF
:101A8000CB6AB3F1C07F00D1012001E000E000BFCC
:101A900034E08B69B3F5005F1AD132B1012A07D067
:101AA000022A03D0032A11D10AE000BF01200EE070
:101AB000CB6A03F08073B3F1807F00D1012006E090
:101AC000CB6AB3F1C07F00D1012000E000BF15E078
:101AD00032B1012A05D0022A04D0032A0CD103E036
:101AE00000BF00BF012008E0CB6A03F08073B3F1B0
:101AF000807F00D1012000E000BF00BF70470000E0
:101B000008B508484068009007490098096888426D
:101B100004D206480068401C044908600249009845
:101B2000086008BD001000E078010020740100206A
:101B300010B52DED028B82B004460E48406801902E
:101B400020680199081A00EE100AF8EE400A0A48C7
:101B500090ED000AB8EE400A80EE801AB0EE418A9D
:101B600001982060FFF7CCFFB0EE480A02B0BDEC50
:101B7000028B10BD001000E06801002012490968C6
:101B800041F08071104A11600021104A51601146E5
:101B9000096841F0010111600D4941430D4A11608E
:101BA000114609684FF47A72B1FBF2F10A4A1160EA
:101BB00008490968064AB1FBF2F1084A11600021A0
:101BC000074A116070470000FCED00E0001000E0E3
:101BD00040420F00680100206C01002070010020CD
:101BE00074010020704710B5012001F0D9FE10BD2E
:101BF00010B5082001F0D4FE10BD10B5102001F082
:101C0000CFFE10BD10B5202001F0CAFE10BDD2EDF0
:101C1000020A92ED021AB6EE000A00EEC10AD2EDF7
:101C2000030A92ED031A00EEC10AD0ED000A20EE7D
:101C3000200AD2ED010A92ED021A60EE810A92EDBD
:101C4000001AD2ED031A41EE210A90ED011A00EEBE
:101C5000810AD2ED010A92ED031A60EE810A92ED3B
:101C6000001AD2ED021A41EE610A90ED021A00EE5E
:101C7000810AF0EE000A20EE200A81ED000A92EDC2
:101C8000010AD2ED020A20EE200AD2ED000A92EDFE
:101C9000031A00EEC10AD0ED000A60EE200A92EDB0
:101CA000011AD2ED011AB6EE000A01EE610AD2ED78
:101CB000031A92ED032AB0EE401A01EEC21AD0EDDB
:101CC000011AB0EE600A01EE210AD2ED020A92ED8D
:101CD000031A60EE810A92ED001AD2ED011A41EE6C
:101CE000210A90ED021A00EE810AF0EE000A20EEC1
:101CF000200A81ED010A92ED010AD2ED030A20EEDD
:101D0000200AD2ED000A92ED021A00EE810AD0ED0F
:101D1000000A20EE200AD2ED020A92ED031A60EECC
:101D2000810A92ED001AD2ED011A41EE610A90ED9E
:101D3000011A00EE810A92ED011AD2ED011AF6EEB7
:101D4000000A41EE610A92ED021AD2ED021A41EE4A
:101D5000610A90ED021A00EE810AF0EE000A20EE10
:101D6000200A81ED020A704772B600BFFEE700004C
:101D700070B52DED0C8B0446A078012817D1607842
:101D8000042814D19FEDFE0A10EE100AC4F82902AF
:101D90009FEDFB0A10EE100AC4F821029FEDF80A2D
:101DA00010EE100AC4F82502BDEC0C8B70BD6078F3
:101DB00040B16078022805D06078042802D06078AD
:101DC000052875D1D4F8110200EE100AF3EE040ACA
:101DD00080EE201A11EE105A284611F01BFD41EC3E
:101DE0001A0BB0EE4A0AF0EE6A0A0CF0A5F8B0EE53
:101DF000408AF0EE608AE348D0ED0E0AD4F8110272
:101E000000EE100A30EEC00A10EE101A084611F06B
:101E100001FD41EC1A0BB0EE4A0AF0EE6A0A0CF032
:101E20008BF8B0EE409AF0EE609A53EC182B51EC20
:101E3000190B11F0BDF919D3D4F81112084611F09D
:101E4000E9FC41EC190BB0EE490AF0EE690A0CF01E
:101E500073F8B0EE408AF0EE608A9FEDCB0B53EC46
:101E6000102B51EC180B11F0A3F97DD29FEDC80A8D
:101E700010EE101AC4F86B119FEDC60A10EE101A7E
:101E8000C4F8A71194F8310200286FD160780528B2
:101E900020D1D4F8320296281CD2D4F832023C2841
:101EA00007D29FEDB70A10EE100AC4F82902F5E038
:101EB0002FE3D4F832029628F9D2B8EE000A10EED9
:101EC000100AC4F829029FEDAE0A10EE100AC4F8F9
:101ED0002102E3E0D4F8110200EE100AA948D0ED87
:101EE0000E0A30EE600ADFEDAC0AB4EEE00AF1EE65
:101EF00010FA09DD90ED0E0ADFEDA80A30EE200A97
:101F0000A74880ED000A1FE0D4F8110200EE100A85
:101F10009C48D0ED0E0A30EE600ADFEDA20AB4EE66
:101F2000E00AF1EE10FA09D290ED0E0ADFED9B0AFD
:101F300030EE600A9A4880ED000A05E0914890ED85
:101F40000E0A974880ED000AD4F8110200EE900ABC
:101F5000934890ED000A04F2671007F042FC10EE7F
:101F6000100AC4F8290299E00BE0FFE794F8310267
:101F7000012805D1BFEE080A10EE100AC4F82902A4
:101F80008CE09FED890A10EE101AC4F86B119FEDDA
:101F9000870A10EE101AC4F8A71194F83102E0BBBA
:101FA000607805281FD1D4F8320296281BD2D4F8C5
:101FB00032023C2806D29FED720A10EE100AC4F8D5
:101FC00029026BE0D4F83202962867D2B8EE000AF4
:101FD00010EE100AC4F829029FED690A10EE100AEB
:101FE000C4F821025AE0D4F8110200EE100A654844
:101FF000D0ED0E0A30EE600ADFED670AB4EEE00ABB
:10200000F1EE10FA0ADD90ED0E0ADFED640A30EE13
:10201000200A674880ED000A20E035E0D4F811027C
:1020200000EE100A5748D0ED0E0A30EE600ADFEDE0
:102030005D0AB4EEE00AF1EE10FA09D290ED0E0A54
:10204000DFED560A30EE600A594880ED000A05E0DF
:102050004C4890ED0E0A564880ED000AD4F8110263
:1020600000EE900A524890ED000A04F2671007F063
:10207000B8FB10EE100AC4F829029FED410A10EED9
:10208000101AC4F8451209E094F83102012805D16C
:10209000BFEE080A10EE100AC4F82902D4F80300B3
:1020A00000EE100ADFED430A80EE201A11EE105AFE
:1020B000284611F0AFFB41EC1A0BB0EE4A0AF0EEE5
:1020C0006A0A0BF039FFB0EE408AF0EE608A2D48C4
:1020D000D0ED040AD4F8030000EE100A30EEC00A76
:1020E00010EE101A084611F095FB41EC1A0BB0EEF9
:1020F0004A0AF0EE6A0A0BF01FFFB0EE409AF0EECB
:10210000609A53EC182B51EC190B11F051F819D3BC
:10211000D4F80310084611F07DFB41EC190BB0EE2A
:10212000490AF0EE690A0BF007FFB0EE408AF0EEC4
:10213000608A9FED210B53EC102B51EC180B11F022
:1021400037F806D29FED1E0A10EE100AC4F81700E9
:1021500005E09FED1C0A10EE100AC4F81700607825
:10216000052856D0607804283CD1064890ED050A31
:102170001548D0ED0A0AB2EE041A70EE810A25E085
:102180000000000080730020000000000000F03F0D
:102190009A99993E6666A63F000034430000B44316
:1021A0004C010020000034C33333333F66660640E1
:1021B0005001002000002042000000000000084004
:1021C0006666663F3333F33F10010020B4EEE00A49
:1021D000F1EE10FA06DD9FEDD30A10EE100AC4F8F6
:1021E0001D0216E0D4F8030000EE900ACE4890EDF0
:1021F000041AB0EE410A04F1130007F0F2FA10EEEF
:10220000100AC4F819021FED220A10EE100AC4F8D1
:102210004700D4F8070000EE100A5FED1A0A80EEBE
:10222000201A11EE105A284611F0F4FA41EC1A0B5C
:10223000B0EE4A0AF0EE6A0A0BF07EFEB0EE408A7B
:10224000F0EE608AB848D0ED050AD4F8070000EE39
:10225000100A30EEC00A10EE101A084611F0DAFA31
:1022600041EC1A0BB0EE4A0AF0EE6A0A0BF064FE7B
:10227000B0EE409AF0EE609A53EC182B51EC190B2B
:1022800010F096FF19D3D4F80710084611F0C2FADF
:1022900041EC190BB0EE490AF0EE690A0BF04CFE66
:1022A000B0EE408AF0EE608A1FED3D0B53EC102B30
:1022B00051EC180B10F07CFF06D21FED3F0A10EE18
:1022C000101AC4F8C11005E0B0EE000A10EE101AA2
:1022D000C4F8C110D4F8070000EE900A924890EDBF
:1022E000051AB0EE410A04F1BD0007F07AFA10EECB
:1022F000100AC4F81D02D4F81D0200EE100AB5EE53
:10230000C00AF1EE10FA4DDDD4F81D0200EE100AFD
:10231000F3EE0E0AB4EEE00AF1EE10FA42D2607863
:1023200004283FD18048D0ED050AD4F8070000EE1C
:10233000100A30EEC00A10EE101A084611F06AFAC0
:1023400041EC190BB0EE490AF0EE690A0BF0F4FD0E
:10235000B0EE408AF0EE608A9FED740B53EC102BC8
:1023600051EC180B10F024FF1CD2D4F81D0200EE23
:10237000100AF3EE0E0A30EE200A10EE100AC4F82E
:102380001D02D4F81D0200EE100A5FED760AB4EECD
:10239000E00AF1EE10FA05DD1FED7A0A10EE100AE0
:1023A000C4F81D02D4F832023C280FD26078052808
:1023B0000CD19FED5C0A10EE100AC4F821021FED4B
:1023C000900A10EE100AC4F82502A8E0D4F83202F0
:1023D00096280FD2607805280CD11FED970A10EED1
:1023E000100AC4F821021FED9A0A10EE100AC4F870
:1023F000250294E004F21524A168084611F00AFAB7
:1024000041EC1B0B2168084611F004FA41EC1D0B4E
:10241000B0EE4D0AF0EE6D0A0CF0C2FBB0EE40CA11
:10242000F0EE60CA53EC1B2B51EC1C0B10F0FCFEC1
:1024300041EC190B6168084611F0ECF941EC1B0BFB
:102440002168084611F0E6F941EC1D0BB0EE4D0A8B
:10245000F0EE6D0A0BF00CFDB0EE40CAF0EE60CA73
:1024600053EC1B2B51EC1C0B10F0DEFE41EC1A0B55
:1024700053EC192B10F02EFC41EC180B10F0F8FB6C
:10248000E0606168084611F0C5F941EC1B0B21685A
:10249000084611F0BFF941EC1D0BB0EE4D0AF0EE0D
:1024A0006D0A0CF07DFBB0EE40CAF0EE60CA53EC52
:1024B0001B2B51EC1C0B10F0B7FE41EC180BA16864
:1024C000084611F0A7F941EC1B0B2168084611F0F2
:1024D000A1F941EC1D0BB0EE4D0AF0EE6D0A0BF0C8
:1024E000C7FCB0EE40CAF0EE60CA53EC1B2B51ECB7
:1024F0001C0B10F099FE41EC1A0B53EC182B11F049
:102500009FF841EC190B10F0B3FB2061A4F21524E5
:1025100005E01FEDE50A10EE100AC4F8250200BF21
:1025200042E400000000C8C28073002000000000E8
:10253000000014402DED108B88B09FEDFE0A10EEC8
:10254000104A9FEDFC0A10EE105A9FEDFB0AFB4863
:1025500080ED080A9FEDFA0A80ED0A0A15E3F948B2
:10256000FFF7E6FAF84880ED000AF4480078B0B9C1
:10257000F64890ED1F0AF14880ED080AF34890ED07
:102580001D0AEE4880ED0A0AF04890ED1C0AEB485F
:1025900080ED0F0A9FEDEE0AEE4880ED000AEB4851
:1025A00090ED1F0AE548D0ED080A30EE600A80ED94
:1025B000090A08E0E14890ED090ADFEDE70A30EE8C
:1025C000600A80ED090ADD4890ED090ADFEDE30AB3
:1025D000B4EEE00AF1EE10FAECDC08E0D74890ED3A
:1025E000090ADFEDDD0A30EE200A80ED090AD34842
:1025F00090ED090ADFEDDA0AB4EEE00AF1EE10FA26
:10260000ECD390ED090AB1EE400A80ED0E0ACF48F6
:1026100090ED1D0AC948D0ED0A0A30EE600A80ED3F
:102620000B0ACA4890ED1C0AC448D0ED0F0A30EEE0
:10263000600A80ED100AB0F9A30100EE100AF8EE6E
:10264000C00A9FEDC81A80EE810A10EE100AC64932
:10265000C860BA48B0F9640200EE100AF8EEC00A89
:102660009FEDC01A80EE810A10EE101ABE48C161BB
:10267000B248B0F9250300EE100AF8EEC00A9FED4B
:10268000B91A80EE810A10EE101AB748C162C0680C
:1026900000EE100ADFEDB50A20EE200A10EE100A57
:1026A000B14988600846C06900EE100ADFEDAF0A44
:1026B00020EE200A10EE100A88610846C06A00EE7B
:1026C000100ADFEDAA0A20EE200A10EE100A886236
:1026D0000846806800EE100A0846806900EE900AFD
:1026E00070EE200A0846806A00EE100A70EE800A3A
:1026F0009FED9F1A80EE810A10EE100A48649FED4C
:102700009D0B0CF04DFAB0EE40CAF0EE60CA964850
:10271000816A084611F07EF841EC1D0B53EC1C2B2E
:1027200010F094FB41EC1A0B9FED920B0CF038FA71
:10273000B0EE40CAF0EE60CA8B488169084611F0DD
:1027400069F841EC1D0B53EC1C2B10F07FFB41ECA6
:102750001B0B53EC1A2B10F073FF41EC180B9FED81
:10276000870B53EC102B10F071FB41EC190B10F0A0
:102770007FFA7D49C8630846806800EE100AB1EE12
:10278000400AF0EE000A20EE200AB0EE081AC0EE71
:10279000010A0846806900EE100AB0EE081AC0EE81
:1027A000011A70EEA10A0846806A00EE100AB0EE27
:1027B000081AC0EE011A30EEA10A10EE100A0864E1
:1027C000284611F027F841EC180B5F48006811F01B
:1027D00021F841EC1A0B6448016C084611F01AF814
:1027E00041EC1C0B5548D0ED0E0A9FED5B1A80EEB4
:1027F000810AF0EE000A20EE200ADFED620A20EEE8
:10280000200A10EE106A304611F004F841EC1E0B5D
:10281000B0EE4E0AF0EE6E0A0CF0C2F9B0EE40DAFD
:10282000F0EE60DA53EC1C2B51EC1D0B10F0FCFCAD
:1028300041EC1B0B53EC1A2B10F0F6FC41EC190B7E
:1028400053EC182B10F0F0FCCDE90401204610F0F9
:10285000E1FF41EC1A0B3C48006810F0DBFF41EC53
:102860001B0B3648D0ED0E0A9FED3B1A80EE810A15
:10287000F0EE000A20EE200ADFED420A20EE200AE8
:1028800010EE106A304610F0C5FF41EC1F0BB0EEA1
:102890004F0AF0EE6F0A0BF0EBFAB0EE40DAF0EE12
:1028A00060DA3148C16B084610F0B4FF41EC1E0BF2
:1028B00053EC1D2B10F0B8FC41EC1C0B53EC1B2B04
:1028C00010F0B2FC53EC1A2BCDE900019DED000B8A
:1028D00051EC100B10F0A8FC41EC180B174890EDD0
:1028E000040A10EE101A084610F094FF41EC190B80
:1028F00053EC182B10F0EEF9CDE902019DED040B1D
:1029000053EC102B9DED020B51EC100B10F098FEC8
:10291000CDE906019DED060B51EC100B10F0A8F966
:1029200006490861204610F075FF41EC180B064877
:10293000006829E035D23A3F666686408073002001
:102940006666E63F00010020F80000203872002093
:1029500000000000040100200000B44300003443E4
:10296000000034C300001042BC7600206E6CCE3EE6
:1029700000003442BF58F28B25BFF03F000000003A
:1029800000000040DB0F494010F044FF41EC1A0BFF
:102990007E48C16B084610F03DFF41EC1C0B7C48A3
:1029A000D0ED0E0A1FED141A80EE810AF0EE000A37
:1029B00020EE200A5FED0D0A20EE200A10EE106ACC
:1029C000304610F027FF41EC1E0BB0EE4E0AF0EE41
:1029D0006E0A0CF0E5F8B0EE40DAF0EE60DA53EC97
:1029E0001C2B51EC1D0B10F01FFC41EC1B0B53EC8E
:1029F0001A2B10F019FC41EC190B53EC182B10F0AA
:102A000013FCCDE90401284610F004FF41EC1A0B39
:102A10006048006810F0FEFE41EC1C0B5C4890ED35
:102A20000E0A1FED331AC0EE010AB0EE000A20EEC6
:102A3000800A5FED2C0A20EE200A10EE106A304664
:102A400010F0E8FECDE900019DED000B0BF010FA4F
:102A5000B0EE40EAF0EE60EA4C48016C084610F037
:102A6000D9FE41EC1F0B53EC1E2B10F0DDFB41ECAB
:102A70001D0B53EC1C2B10F0D7FB41EC1B0B53EC44
:102A80001A2B10F0D1FB41EC180B414890ED050AD0
:102A900010EE101A084610F0BDFE41EC190B53EC75
:102AA000182B10F017F9CDE902019DED040B53EC42
:102AB000102B9DED020B51EC100B10F00BF9CDE932
:102AC00006019DED060B51EC100B10F0D1F83049CA
:102AD00048612E48406C00EE100A2E48D0ED000AE6
:102AE00060EE200A9FED2C1A80EE810A5FED650AE8
:102AF00020EE200ADFED290A20EE200A10EE106AEF
:102B0000304610F087FE41EC1B0B9FED250B53EC7C
:102B1000102B10F089FB41EC190B2348006810F0D2
:102B200079FE41EC1A0B53EC192B10F0D3F841EC61
:102B3000180B10F09DF81C490860084690ED000A3B
:102B40005FED7A0AB4EEE00AF1EE10FA08DD90EDDE
:102B5000000A5FED7F0A30EE600A80ED000A11E0A6
:102B6000114890ED000A5FED820AB4EEE00AF1EE42
:102B700010FA07D290ED000A5FED890A30EE200AC4
:102B800080ED000A0D200FF063F8E8E4BC76002029
:102B900080730020F8000020C3F548406B82483F56
:102BA00091990B5C1E6BEF3F0401002030B503468A
:102BB00013B94FF6FF7030BD09E013F8014B82EAFC
:102BC0000400C0B2054D35F8100080EA2222081E2C
:102BD000A1F10101F1D11046EDE700007C3D0108B3
:102BE00070B50A480468001D0568001D0668344475
:102BF00054B108220649204605F0CAF804220449C7
:102C00001031284605F0C4F870BD0000107AFF1F8F
:102C10008205002010B5024692F82030012B01D029
:102C2000022B06D1106840690843146860610020D7
:102C300010BD506A40F4802050620120F8E7F0B5E2
:102C400004460D461E4694F8207020688368A868E4
:102C500000B900E000BF012F01D0022F7CD103F0AA
:102C6000806030B903F0006018B903F0805000288C
:102C700073D0C3F30161022905D9606A40F40000F2
:102C800060620120F0BD012088403060A86860B912
:102C9000B5F800C0E86840EA4C5C206800F5C070F8
:102CA00000EB0110C0F800C00FE0D5E901C040EA18
:102CB000CC00D5F80CC040EA0C00D4F800C00CF5EC
:102CC000C07C0CEB011CCCF80000D5F810C02068CB
:102CD00000F5C07000EB0110C0F804C0287D012889
:102CE0000ED1206800F5C07000EB0110406840F480
:102CF000807C206800F5C07000EB0110C0F804C0B3
:102D0000D079000692F806C040EA0C4092F805C05F
:102D100040EA0C2C10794CEA000C206800F5C070D9
:102D200000EB0110C0F80CC0D078000692F802C089
:102D300040EA0C4092F801C040EA0C2092F800C032
:102D400040EA0C00D4F800C00CF5C07C0CEB011C70
:102D5000CCF80800206801E016E00FE000F5C07034
:102D600000EB0110006840F0010C206800F5C07015
:102D700000EB0110C0F800C0002083E7606A40F457
:102D80000010606201207DE7606A40F4802060628C
:102D9000012077E7F0B504460A46216894F82050F0
:102DA000012D01D0022D7ED1424901F50071086844
:102DB00040F001000860086820F47C500860086852
:102DC000566A40EA06200860107D00F01F060120C8
:102DD00000FA06F3C8699843C861A1F50071D0698B
:102DE000C8B9D1F80C029843C1F80C02908880B29F
:102DF000968940EA064601F51070576940F8376039
:102E0000108880B2168940EA064601F510705769AD
:102E100000EBC7004660D069012819D1D1F80C0237
:102E20001843C1F80C02908880B2168840EA064622
:102E300001F51070576940F83760908980B21689A3
:102E400040EA064601F51070576900EBC70046607E
:102E5000906928B9D1F804029843C1F8040204E04B
:102E6000D1F804021843C1F80402106928B9D1F856
:102E700014029843C1F8140204E0D1F81402184374
:102E8000C1F81402106A012804D1D1F81C021843B9
:102E9000C1F81C02D1F8000220F00100C1F80002C4
:102EA0000020F0BDFFE7606A40F4802060620120EE
:102EB000F7E7000000640040704770B5044694F8DE
:102EC0002050012D01D0022D7DD151B92068C0685C
:102ED00000F0030080B9606A40F4001060620120D5
:102EE00070BD2068006900F0030028B9606A40F4F2
:102EF000001060620120F3E7206800F5D87000EB55
:102F00000110006800F004009060906840B92068EB
:102F100000F5D87000EB01100068400D106007E06C
:102F2000206800F5D87000EB01100068C008506000
:102F3000206800F5D87000EB0110006800F0020076
:102F4000D060206800F5D87000EB0110406800F0F8
:102F50000F001061206800F5D87000EB0110406888
:102F600000F47F40000A9061206800F5D87000EB03
:102F700001104068000C5061206800F5D87000EB2B
:102F8000011080681870206800F5D87000EB0110FF
:102F9000806800F47F40000A5870206800F5D870FF
:102FA00000EB0110806800F47F00000C987020682E
:102FB00000F5D87000EB01108068000ED870206812
:102FC00000F5D87000E02FE000EB0110C068187128
:102FD000206800F5D87000EB0110C06800F47F4055
:102FE000000A5871206800F5D87000EB0110C06825
:102FF00000F47F00000C9871206800F5D87000EB99
:103000000110C068000ED87131B92068C06840F066
:1030100020002668F06005E02068006940F020008C
:103020002668306100205BE7606A40F480206062BF
:10303000012055E72DE9F05F044600252068466928
:103040002068D0F80490206887682068D0F80CA029
:103050002068D0F810B02068D0F8188006F0010081
:10306000002855D007F00100C0B101202168886018
:1030700007F0020018B1204600F05FFA0EE007F0FA
:10308000040010B145F4006508E007F0080010B135
:1030900045F4805502E0204600F04EFA07F48070B7
:1030A000C8B14FF480702168886007F4007018B1CF
:1030B000204600F044FA0EE007F4806010B145F4B9
:1030C000005508E007F4006010B145F4804502E0C7
:1030D000204600F033FA07F48030C8B14FF4803056
:1030E0002168886007F4003018B1204600F029FA02
:1030F0000EE007F4802010B145F4004508E007F425
:10310000002010B145F4803502E0204600F018FAA6
:1031100006F0080038B10AF0100020B145F400753F
:1031200010202168C86006F0040040B10AF00800D1
:1031300028B108202168C860204600F0B1F906F0E7
:10314000020038B12068C06800F0030010B12046CA
:1031500000F0A8F906F0400038B10BF0100020B1E3
:1031600045F4806510202168086106F0200040B118
:103170000BF0080028B1082021680861204600F003
:10318000A9F906F0100038B12068006900F00300CA
:1031900010B1204600F09FF906F4003040B109F06C
:1031A000100028B1102021684860204600F094F9F2
:1031B00006F4803040B109F0080028B108202168E9
:1031C0004860204600F0BEF906F4004088B309F0DC
:1031D000040078B306F4807020B108F0010008B153
:1031E00045F0010506F4007020B108F0020008B1B6
:1031F00045F0020506F4806020B108F0040008B133
:1032000045F0040506F40060A0B108F0700088B134
:1032100008F07000402817D006DC10280BD02028BA
:103220000CD0302819D10CE0502810D0602814D1CF
:1032300010E01DE019E045F008050FE045F010052D
:103240000CE045F0200509E045F0400506E045F0BA
:10325000800503E045F4807500E000BF00BF2068F2
:10326000806920F07000216888610420216848602E
:103270002DB1606A284360622046FFF71DFEBDE85D
:10328000F09F70B504460CB9012070BD94F8200081
:1032900010B9204600F0B0F82068006840F0010046
:1032A0002168086000F08AFC05460DE000F086FC0D
:1032B000401B0A2808D9606A40F40030606205208B
:1032C00084F820000120E0E72068406800F0010059
:1032D0000028EBD02068006820F002002168086018
:1032E00000F06CFC05460DE000F068FC401B0A286D
:1032F00008D9606A40F400306062052084F820003C
:103300000120C2E72068406800F002000028EBD1ED
:10331000207E012806D12068006840F080002168E6
:10332000086005E02068006820F0800021680860DF
:10333000607E012806D12068006840F040002168C6
:10334000086005E02068006820F0400021680860FF
:10335000A07E012806D12068006840F02000216886
:10336000086005E02068006820F0200021680860FF
:10337000E07E012806D12068006820F01000216856
:10338000086005E02068006840F0100021680860CF
:10339000207F012806D12068006840F008002168DD
:1033A000086005E02068006820F0080021680860D7
:1033B000607F012806D12068006840F00400216881
:1033C000086005E02068006820F0040021680860BB
:1033D000D4E902010843216908436169084361682F
:1033E000491E08432168C86100206062012084F8FA
:1033F0002000002049E7000010B586B004461421E3
:1034000001A8FDF7FCF82349206888423FD100BF9E
:10341000002000902048006840F000701E490860BD
:103420000846006800F00070009000BF00BF00BFB9
:103430000020009018481038006840F00800164935
:10344000103908600846006800F00800009000BFCE
:1034500000BF03200190022002900020039003206F
:1034600004900920059001A90C4800F0A7FA002259
:103470000521132000F032FC132000F01FFC002275
:103480000521142000F02AFC142000F017FC06B0DF
:1034900010BD00000064004040380240000C0240B3
:1034A0007047000010B58AB0044608492068884279
:1034B00009D101AB03AA00210548FFF7FEFC03A9CF
:1034C00001A805F08FFE0AB010BD000000640040A6
:1034D000E80C002070477047704770B5044694F8B8
:1034E0002000012822D1022084F8200020680068F2
:1034F00020F001002168086000F060FB05460DE047
:1035000000F05CFB401B0A2808D9606A40F40030D8
:103510006062052084F82000012070BD20684068AA
:1035200000F001000028EBD16062F6E7606A40F429
:10353000002060620120F0E77047704770477047D5
:1035400070477047704770B50446A56D00F036FBB4
:10355000064694F83500022808D08020606500BF38
:10356000002084F8340000BF012070BD206800688E
:1035700020F01600216808602068406920F0800073
:1035800021684861206C08B9A06C28B120680068E7
:1035900020F00800216808602068006820F0010021
:1035A0002168086010E000F009FB801B05280BD99A
:1035B00020206065032084F8350000BF002084F8D7
:1035C000340000BF0320D0E72068006800F001004D
:1035D0000028E8D194F85C103F208840A8600120C2
:1035E00084F8350000BF002084F8340000BF00BF1D
:1035F000BBE7014691F83500022803D080204865DA
:1036000001207047052081F835000868006820F027
:1036100001000A6810600020F3E70000F8B50446D6
:10362000002000908C4800684FF41651B0FBF1F771
:10363000A56D2E6894F85C1008208840304098B141
:103640002068006800F0040070B12068006820F075
:1036500004002168086094F85C1008208840A86085
:10366000606D40F00100606594F85C1001208840B6
:10367000304068B12068406900F0800040B194F8A3
:103680005C1001208840A860606D40F00200606519
:1036900094F85C1004208840304068B120680068CD
:1036A00000F0020040B194F85C1004208840A8604B
:1036B000606D40F00400606594F85C101020884054
:1036C000304078B32068006800F0080050B394F8E8
:1036D0005C1010208840A8602068006800F48020FA
:1036E00080B12068006800F4002028B9206CC8B1BF
:1036F0002046216C884715E0A06C98B12046A16C4B
:1037000088470FE02068006800F4807028B92068BE
:10371000006820F0080021680860206C10B1204685
:10372000216C884794F85C102020884030400028A5
:1037300065D02068006800F0100000285FD094F881
:103740005C1020208840A86094F83500052828D116
:103750002068006820F01600216808602068406931
:1037600020F0800021684861206C08B9A06C28B165
:103770002068006820F008002168086094F85C1058
:103780003F208840A860012084F8350000BF002059
:1037900084F8340000BF206D10B12046216D8847A9
:1037A000F8BD2068006800F4802080B120680068BF
:1037B00000F4002028B9606C10B12046616C884785
:1037C0001DE0E06BD8B12046E16B884717E0206828
:1037D000006800F4807068B92068006820F010006C
:1037E00021680860012084F8350000BF002084F8BB
:1037F000340000BFE06B10B12046E16B8847606D7C
:1038000038B3606D00F00100F0B1052084F8350098
:103810002068006820F001002168086000BF00985F
:10382000401C0090B84200D905E02068006800F014
:1038300001000028F3D100BF012084F8350000BF4B
:10384000002084F8340000BFE06C10B12046E16C29
:10385000884700BFA4E70000240000202DE9F041C4
:103860000446002500F0AAF9074614B90120BDE876
:10387000F081606A00B100BF022084F8350000BF0B
:10388000002084F8340000BF2068006820F00100A8
:10389000216808600AE000F091F9C01B052805D9ED
:1038A00020206065032084F83500E0E72068006888
:1038B00000F001000028EED120680568214805408D
:1038C000D4E901010843E1680843216908436169BB
:1038D0000843A1690843E1690843216A0843054395
:1038E000606A042803D1D4E90B010843054320682A
:1038F00005602068456925F00705606A0543606A30
:1039000004280DD1A06A0543E06A48B12046FEF7BD
:10391000A1F828B140206065012084F83500A6E7B1
:10392000206845612046FEF77BF8064694F85C1057
:103930003F208840B06000206065012084F8350099
:10394000002094E73F8010F070B5044600F036F98F
:1039500006462546681C10B104480078054400BF9F
:1039600000F02CF9801BA842FAD370BD2000002083
:10397000012811D10949097819B1084909780129A3
:1039800003D10221054A117006E004490978022991
:1039900002D10121014A117070470000807300209C
:1039A00010B5044604480068204020B10248046075
:1039B0002046FFF7DDFF10BD143C0140F8B502467C
:1039C0000B460025002400200021D6E0012606FA3F
:1039D00001F51E6806EA0504AC4274D11E7906F0B2
:1039E0000306012E04D01E7906F00306022E13D121
:1039F00090684F000326BE40B0434F00DE68BE40D3
:103A000030439060506801268E40B0431E79C6F363
:103A100000168E40304350601E7906F00306032ED8
:103A200009D0D0684F000326BE40B0434F009E68C7
:103A3000BE403043D0601E7906F00306022E13D13B
:103A4000CF0802F1200656F827004E07F70E0F2682
:103A5000BE40B0434F07FF0E1E69BE403043CF0843
:103A600002F1200646F8270010684F000326BE40EA
:103A7000B0431E7906F003064F00BE40304310608D
:103A80005E6806F44036002E76D000BF0026009611
:103A90003C4E366846F480463A4F3E603E463668B5
:103AA00006F48046009600BF00BF374E8F0856F8D8
:103AB00027008E07370F0F26BE40B043334EB24269
:103AC00002D1002624E057E0314EB24201D1012656
:103AD0001EE0304EB24201D1022619E02E4EB24213
:103AE00001D1032614E02D4EB24201D104260FE08D
:103AF0002B4EB24201D105260AE02A4EB24201D134
:103B0000062605E0284EB24201D1072600E008262D
:103B10008F073F0FBE4030431B4E8F0846F82700EB
:103B2000224E3068A0435E6806F4801606B120433A
:103B30001E4E3060361D3068A0435E6806F40016E5
:103B400006B12043194E361D3060184E361F3068BE
:103B5000A0435E6806F4003606B12043134E361FBC
:103B60003060361F3068A0435E6806F4803606B1C8
:103B700020430E4E083E3060491C1029FFF426AF4A
:103B8000F8BD0000443802400838014000000240FF
:103B90000004024000080240000C024000100240F5
:103BA0000014024000180240001C0240083C014082
:103BB0000AB1816101E00B0483617047014800682C
:103BC0007047000018000020034800680349097886
:103BD00008440149086070471800002020000020B8
:103BE00010B50D48006840F400700B4908600846A5
:103BF000006840F4806008600846006840F4807007
:103C00000860032000F0A8F80F2000F007F800F08B
:103C10002BF8002010BD0000003C024070B50446A7
:103C20000E4800784FF47A71B1FBF0F00C49096846
:103C3000B1FBF0F5284601F03CFD08B1012070BD54
:103C4000102C07D200222146501E00F047F80548EC
:103C5000046001E00120F2E70020F0E720000020EE
:103C6000240000201C00002008B500BF00200090A8
:103C70001148006840F480400F4908600846006819
:103C800000F48040009000BF00BF00BF0020009003
:103C9000081F006840F08050091F0860084600684F
:103CA00000F08050009000BF00BF00220F21901E46
:103CB00000F014F808BD00004438024001460846F0
:103CC000002809DB00F01F0301229A4043099B00F2
:103CD00003F1E023C3F8002100BF70472DE9F05F36
:103CE00080460D461646002709F05CFE0746394619
:103CF0002A46334601F00700C0F1070ABAF1040F63
:103D000002D94FF0040A01E0C0F1070AD14600F1E0
:103D1000040ABAF1070F02D24FF0000A01E0A0F145
:103D2000030AD4464FF0010A0AFA09FAAAF1010A75
:103D30000AEA020A0AFA0CFA4FF0010B0BFA0CFB22
:103D4000ABF1010B0BEA030B4AEA0B042146404698
:103D500009F030FEBDE8F09F00BF00F00702064BFF
:103D600019684FF6FF031940044B0B4343EA022145
:103D7000014B196000BF70470CED00E00000FA0530
:103D8000704702461068416200207047F0B5034654
:103D900015461868446A21B944EA05401E68B062B5
:103DA00019E01868806A04EB1044002208E01868E3
:103DB00000F5827050F8220004EB1044501CC2B28F
:103DC000481E9042F3D844EA0547186800F582700F
:103DD0004E1E40F826700020F0BD10B50446D4F801
:103DE000080507F0D2FF10BD70B504460D4605EB7F
:103DF000C50304F13C0101EB83010A692946D4F8AB
:103E0000080507F0BDFE70BD70B504460D4605EB14
:103E1000C50304F51F7101EB83010A692946D4F833
:103E2000080507F031FF70BD10B50446D4F8080549
:103E300007F0AEFF10BD2DE9F04104460D4605F038
:103E40008000802808D105F00F0000EBC00104F1CC
:103E50003C0000EB810607E005F00F0000EBC0011D
:103E600004F51F7000EB81063146206809F082FAE4
:103E700007463846BDE8F08170B504460E4606F0A8
:103E8000800080280AD106F00F0000EBC00104F189
:103E90003C0000EB81050120687009E006F00F008E
:103EA00000EBC00104F51F7000EB81050020687075
:103EB00006F00F00287000BF94F8BC04012801D15F
:103EC000022070BD012084F8BC0400BF2946206890
:103ED00008F030FD00BF002084F8BC0400BF00BF24
:103EE000EFE770B504460E4606F00F0061688842A1
:103EF00001D9012070BD06F0800080280AD106F0AB
:103F00000F0000EBC00104F13C0000EB8105012033
:103F1000687009E006F00F0000EBC00104F51F70A7
:103F200000EB8105002068700020A87006F00F00EB
:103F3000287000BF94F8BC04012801D10220D9E701
:103F4000012084F8BC0400BF2946206808F0DAFF8D
:103F500000BF002084F8BC0400BF00BFCAE70246CF
:103F600001F00F0000EBC00302F51F7000EB8300AF
:103F7000006A70472DE9F04705460E4690461F46F9
:103F80004FF0000906F0800080280AD106F00F00EB
:103F900000EBC00105F13C0000EB810401206070E2
:103FA00009E006F00F0000EBC00105F51F7000EB03
:103FB00081040020607006F00F002070C4F80C80AF
:103FC0002771607808B120782081022F01D100206C
:103FD000607100BF95F8BC04012802D10220BDE841
:103FE000F087012085F8BC0400BF2146286808F04E
:103FF000B7FB00BF002085F8BC0400BF4846EEE7D1
:104000002DE9F04104460E461746984606F00F008B
:1040100000EBC00104F51F7000EB81052F61C5F8AE
:10402000188000202862687006F00F002870206950
:10403000012800D16F6106F00F0028B9227C2946C3
:10404000206808F039FE04E0227C2946206808F048
:10405000EDFF0020BDE8F08170B504460D4605F087
:104060000F006168884201D9012070BD05F0800011
:1040700080280AD105F00F0000EBC00104F13C00DC
:1040800000EB81060120707007E005EBC50104F527
:104090001F7000EB8106002070700120B07005F0E9
:1040A0000F00307000BF94F8BC04012801D1022039
:1040B000DBE7012084F8BC0400BF3146206808F02B
:1040C00068FF05F00F0028B9217C04F2C442206883
:1040D00008F0E0FE00BF002084F8BC0400BF00BF71
:1040E000C3E72DE9F04104460E461746984606F010
:1040F0000F0000EBC00104F13C0000EB81052F61D3
:10410000C5F81880002028620120687006F00F00B2
:1041100028702069012800D16F6106F00F0028B9CE
:10412000227C2946206808F0C7FD04E0227C29464D
:10413000206808F07BFF0020BDE8F0812DE9FE4FEC
:104140000446D4F800B05E46206809F0FAF9002869
:1041500074D1206809F034FA08B9BDE8FE8F40F642
:1041600008008059C0F30D20C4F8FC04206809F051
:1041700027FA00F00200022805D12068406900F00B
:10418000020021684861206809F01AFA00F0100066
:10419000102845D12068806920F0100021688861CE
:1041A000DBF8209009F00F0000EBC00104F51F7050
:1041B00000EB810AC9F3434002281AD147F6F07098
:1041C00009EA000030B3C9F30A125846DAF81010B1
:1041D00009F0FBF9C9F30A11DAF810000844CAF82B
:1041E0001000C9F30A11DAF820000844CAF82000C8
:1041F00010E0C9F3434006280CD1082204F2C44160
:10420000584609F0E2F9C9F30A11DAF82000084427
:10421000CAF820002068806940F010002168886199
:10422000206809F0CDF900F40020B0F5002F7BD113
:104230000025206809F094F9029072E0E1E202980A
:1042400000F00100002868D0E9B2206809F0ABF95D
:10425000804608F0010048B1012106F5306000EB0E
:10426000451081602946204605F0BEF908F0080097
:10427000082809D1082106F5306000EB451081605F
:104280002946204605F07EF908F01000102805D1D7
:10429000102106F5306000EB4510816008F0020047
:1042A000022824D1DBF8140000F08000802807D118
:1042B00040F60400805940F4806140F604008151CA
:1042C00005EBC50104F51F7000EB810A9AF80300A5
:1042D000012806D100208AF80300E9B2204600F048
:1042E0009BFA022106F5306000EB4510816008F072
:1042F0002000202805D1202106F5306000EB451074
:10430000816008F40050B0F5005F06D14FF4005111
:1043100006F5306000EB451081606D1C0298400886
:104320000290029800288AD1206809F049F900F427
:104330008020B0F5802F7DD1206809F007F9029028
:1043400000259AE0029800F00100002873D0E9B23D
:10435000206809F00FF9804608F00100F0B305F07D
:104360000F0101208840019040F6340081590198E6
:1043700021EA000040F634018851012106F5106061
:1043800000EB451081602069012824D105EBC501AF
:1043900004F13C0000EB810005EBC502016904F16A
:1043A0003C0000EB8200C068014405EBC50204F14B
:1043B0003C0000EB820001616DB905EBC50104F121
:1043C0003C0000EB8100806928B904F2C44201215D
:1043D000206808F05FFDE9B2204600E001E0FFF749
:1043E00003FD08F00800082805D1082106F5106033
:1043F00000EB4510816008F01000102805D1102155
:1044000006F5106000EB4510816008F04000402880
:1044100005D1402106F5106000EB4510816008F0E1
:10442000020002281DD12946584609F04BF805EB39
:10443000C50101E025E01CE004F13C0000EB810A2D
:104440009AF80300012806D100208AF80300E9B297
:10445000204600F0D8F9022106F5106000EB451067
:10446000816008F08000802803D12946204605F0AD
:104470005DF96D1C029840080290029800287FF4B4
:1044800061AF206809F09CF800F00040B0F1004FE7
:104490001CD140F60400805920F0010140F60400D0
:1044A000815194F8F404012807D1002084F8F40421
:1044B00000212046FFF764FC02E0204600F0D4FA19
:1044C0002068406900F0004021684861206809F0D8
:1044D00077F800F40060B0F5006F0ED140F60800E8
:1044E000805900F0010010B1204600F015FB206853
:1044F000406900F4006021684861206809F060F8B4
:1045000000F48050B0F5805F7ED140F60400805901
:1045100020F0010140F6040081511021206808F0CC
:10452000D1FF002732E04FF67F3106F5106000EB37
:104530004710816006F5106000EB4710006820F41A
:10454000001106F5106000EB471001604FF67F3157
:1045500006F5306000EB4710816006F5306000EB37
:104560004710006820F4001106F5306000EB47109A
:10457000016006F5306000EB4710006840F0006114
:1045800006F5306000EB471001607F1C6068B842A0
:10459000C9D840F61C00805940F0011140F61C00BB
:1045A0008151206B70B1D6F8840840F00B01C6F839
:1045B000841840F64400805940F00B0140F6440056
:1045C00081510FE040F61400805942F22B0108435C
:1045D00040F614018851081F805940F00B014FF438
:1045E00001608151D6F8000820F4FE60C6F800088A
:1045F000217C04F2C442206808F04CFC2068406929
:1046000000F48050216800E000E04861206808F074
:10461000D7FF00F40050B0F5005F17D1206808F014
:1046200007F9206808F07AFFE06000F051FB009085
:10463000227B2068009909F04BF8204600F0FCF935
:104640002068406900F4005021684861206808F043
:10465000B7FF00F00800082808D1204600F00BFA48
:104660002068406900F0080021684861206808F06F
:10467000A7FF00F08000802818D1DBF8180020F098
:104680008000CBF8180001250DE005EBC50104F50D
:104690001F7000EB8100C078012803D1E9B22046E9
:1046A000FFF7C9FB6D1C6068A842EED8206808F0CF
:1046B00087FF00F48010B0F5801F2DD1012522E086
:1046C00006F5106000EB4510D0F8009005EBC50131
:1046D00004F13C0000EB81000079012812D109F0BF
:1046E0000040B0F1004F0DD1012105EBC50204F1EE
:1046F0003C0000EB8200C170E8B240F0800120462F
:10470000FFF799FB6D1C6068A842D9D82068406902
:1047100000F4801021684861206808F051FF00F41F
:104720000010B0F5001F44D1012538E006F53060D7
:1047300000EB4510D0F8009005EBC50104F51F70A3
:1047400000EB81000079012828D109F00040B0F188
:10475000004F23D109F4803094F8FC1401F00101DA
:1047600088421BD1012105EBC50204F51F7000EB47
:104770008200C170DBF8180040F08000CBF8180010
:10478000DBF8140000F0800040B940F604008059C6
:1047900040F4007140F60400815103E06D1C606834
:1047A000A842C3D800BF2068406900F40010216807
:1047B0004861206808F004FF00F08040B0F1804FAD
:1047C00008D12046FFF709FB2068406900F08040CF
:1047D00021684861206808F0F3FE00F00400042816
:1047E0000FD12068D0F8049009F00400042802D109
:1047F0002046FFF719FB2068406840EA090021685D
:10480000486000BFA9E470B504460D462946D4F8B7
:10481000080507F029FB70BD70B504460D46294612
:10482000D4F8080507F044FB70BD70B58AB00446A3
:1048300014B901200AB070BD266894F8BD0428B9E7
:10484000002084F8BC04204600F0A2F8032084F87D
:10485000BD04F06B00F4807008B90021216120686C
:1048600008F022FA282204F110016846FBF76BFEDB
:1048700094E80F0007F0F0FF20B1022084F8BD0497
:104880000120D7E70021206808F0CFFE002531E0A5
:10489000012105EBC50204F13C0000EB82004170F0
:1048A00005EBC50104F13C0000F8215005EBC50102
:1048B00000EB81000581002105EBC50204F13C00FD
:1048C00000EB8200017105EBC50204F13C0000EB36
:1048D0008200C16005EBC50204F13C0000EB8200E0
:1048E000016105EBC50204F13C0000EB820081612F
:1048F000681CC5B26068A842CAD800252AE0002119
:1049000005EBC50204F51F7000EB8200417005EB5A
:10491000C50104F51F7000F82150002105EBC50208
:1049200000EB8200017105EBC50204F51F7000EB7E
:104930008200C16005EBC50204F51F7000EB820028
:10494000016105EBC50204F51F7000EB8200816177
:10495000681CC5B26068A842D1D8282204F11001B1
:104960006846FBF7F0FD94E80F0008F0ADF820B1C1
:10497000022084F8BD0401205CE7002084F83800A0
:10498000012084F8BD04206808F08CF8002051E76D
:1049900010B586B00446142101A8FBF730FE20684C
:1049A000B0F1A04F42D100BF002000902048006825
:1049B00040F001001E4908600846006800F0010050
:1049C000009000BF00BF4FF4C05001900220029041
:1049D00000200390032004900A20059001A91548A7
:1049E000FEF7ECFF00BF1248001D006840F0800099
:1049F0000F49091D086000BF002000900C481430CA
:104A0000006840F480400A49143108600846006894
:104A100000F48040009000BF00BF00BF00220521CD
:104A20004320FFF75BF94320FFF748F906B010BDBC
:104A3000303802400000024070B504460125E068AD
:104A400008B9002506E0E068022801D1012501E04F
:104A5000FDF78AF92946D4F8080507F0D2FAD4F808
:104A6000080507F079FA70BD10B50446D4F80805BA
:104A700007F0A8FA10BD10B50446D4F8080507F0F1
:104A8000ACFA10BD70B504460D4600BF94F8BC04E6
:104A9000012801D1022070BD012084F8BC0400BFB0
:104AA00084F838502946206808F0F3FD00BF002044
:104AB00084F8BC0400BF00BFEDE710B5044604F263
:104AC000C441D4F8080507F0B3FA10BD70B5044628
:104AD000256800BF94F8BC04012801D1022070BDF4
:104AE000012084F8BC0400BFA06A012806D1A06997
:104AF000012803D0A86B40F48030A863206808F038
:104B0000AFFC206807F0BCFF00BF002084F8BC04A5
:104B100000BF00BFE3E7000010B50446D4F8080565
:104B200007F0E3FA2068D0F8000E40F00100216899
:104B3000C1F8000E206A28B10348006840F0060062
:104B40000149086010BD000010ED00E070B504469A
:104B50000D460CB9012070BD5848006800F00700F0
:104B6000A84209D255490D700846006800F00700B8
:104B7000A84201D00120EEE7207800F002000228D0
:104B80001DD1207800F00400042805D14C480068AD
:104B900040F4E0504A490860207800F008000828F6
:104BA00005D14748006840F46040454908604448E2
:104BB000006820F0F000A1680843414908602078AF
:104BC00000F00100A8B36068012807D13C4808380C
:104BD0000068C0F34040B8B90120BCE76068022813
:104BE00002D06068032807D1354808380068C0F350
:104BF000406048B90120AEE7314808380068C0F38A
:104C0000400008B90120A6E72D48006820F0030005
:104C1000616808432A490860FEF7D0FF064609E0AC
:104C2000FEF7CCFF801B41F28831884202D9032075
:104C300091E707E02248006800F00C006168B0EBE3
:104C4000810FEDD11D48006800F00700A84209D986
:104C50001A490D700846006800F00700A84201D00C
:104C6000012078E7207800F00400042807D11448D8
:104C7000006820F4E050E16808431149086020789A
:104C800000F00800082808D10D48006820F46040B2
:104C9000216940EAC1000A49086000F03FF808496C
:104CA0000968C1F30311074A515CC840064908600E
:104CB00006480068FEF7B2FF00204CE7003C0240C7
:104CC00008380240643D0108240000201C00002038
:104CD00001480068704700002400002000B5FFF77D
:104CE000F7FF04490968C1F38221034A515CC840B7
:104CF00000BD000008380240743D010800B5FFF710
:104D0000E7FF04490968C1F34231034A515CC840D6
:104D100000BD000008380240743D01082DE9F0474D
:104D2000002400250026A1462548006800F00C005C
:104D300020B1042805D008283AD105E0DFF8849096
:104D400039E0DFF8849036E01D48001F006800F06D
:104D50003F041B48001F006800F4800078B11A4827
:104D60001749091F0968C1F38811A0FB01700146AA
:104D7000224600233846FBF72AFB05460EE0114881
:104D80000F49091F0968C1F38811A0FB0170014692
:104D9000224600233846FBF71AFB05460848001F49
:104DA0000068C0F30140401C4600B5FBF6F902E084
:104DB000DFF8109000BF00BF4846BDE8F087000054
:104DC000083802400024F400001BB700F8B5044680
:104DD0000CB90120F8BD207800F00100002874D043
:104DE000F948006800F00C0004280DD0F64800686F
:104DF00000F00C00082813D1F348001F006800F4ED
:104E00008000B0F5800F0BD1EF4808380068C0F380
:104E10004040002859D06068002856D10120D9E7C9
:104E200000BF6068B0F5803F08D1E74808380068E7
:104E300040F48030E449083908601EE06068B0F54D
:104E4000A02F0DD1E0480838006840F48020DE49EA
:104E5000083908600846006840F4803008600CE0BB
:104E6000D9480838006820F48030D74908390860EC
:104E70000846006820F48020086000BF606890B198
:104E8000FEF79CFE054606E0FEF798FE401B6428F0
:104E900001D903209EE7CC4808380068C0F34040A1
:104EA0000028F1D011E0FEF789FE054606E0FEF786
:104EB00085FE401B642801D903208BE7C2480838CF
:104EC0000068C0F340400028F1D1207800F00200D3
:104ED00002285FD1BC48006800F00C0058B1BA4805
:104EE000006800F00C0008281CD1B748001F0068BB
:104EF00000F48000B0B9B44808380068C0F340003E
:104F000020B1E068012801D0012063E7AE480838ED
:104F1000006820F0F800216940EAC100AA49083978
:104F2000086037E0E06800B30120A8490860FEF798
:104F300045FE054606E0FEF741FE401B022801D96A
:104F4000032047E7A04808380068C0F34000002865
:104F5000F1D09D480838006820F0F800216940EA47
:104F6000C10099490839086014E000209749086099
:104F7000FEF724FE054606E0FEF720FE401B022851
:104F800001D9032026E7904808380068C0F34000A4
:104F90000028F1D1207800F0080008282CD16069A1
:104FA000A8B101208A490860FEF708FE054606E020
:104FB000FEF704FE401B022801D903200AE78248BD
:104FC0006C300068C0F340000028F1D014E00020ED
:104FD0007F490860FEF7F2FD054606E0FEF7EEFDAC
:104FE000401B022801D90320F4E677486C300068A2
:104FF000C0F340000028F1D1207800F0040004281C
:1050000070D1002770483830006800F0805090B9A7
:1050100000BF002000906C483830006840F080509D
:105020006949383108600846006800F080500090F7
:1050300000BF00BF01276748006800F48070B0B966
:105040006448006840F4807062490860FEF7B6FD6D
:10505000054606E0FEF7B2FD401B022801D90320F9
:10506000B8E65C48006800F480700028F2D000BF09
:10507000A068012808D154486830006840F0010059
:105080005149683108601DE0A06805280DD14E48DF
:105090006830006840F004004B49683108600846F9
:1050A000006840F0010008600CE047486830006884
:1050B00020F001004449683108600846006820F08B
:1050C0000400086000BFA068A8B1FEF777FD0546A0
:1050D00009E0FEF773FD401B41F28831884202D996
:1050E000032077E626E0384868300068C0F34000C7
:1050F0000028EED013E0FEF761FD054608E0FEF75C
:105100005DFD401B41F28831884201D9032061E6F0
:105110002D4868300068C0F340000028EFD1012F0F
:1051200007D129483830006820F0805026493831AE
:10513000086000BFA069002845D02348006800F03F
:105140000C0008285DD0A069022845D100201F4925
:105150000866FEF733FD054606E0FEF72FFD401B0F
:10516000022801D9032035E6174808380068C0F343
:1051700040600028F1D1D4E907010843616A40EAA0
:1051800081110122A06AC2EB500041EA00412C20AB
:10519000005D41EA00600C49091F086001200B49CD
:1051A0000866FEF70BFD054606E0FEF707FD401B0F
:1051B000022801D903200DE6034808380068C0F32F
:1051C00040600028F1D049E0083802400000474222
:1051D000800E474200700040002021490866FEF71B
:1051E000EDFC054606E0FEF7E9FC401B022801D96C
:1051F0000320EFE51B480068C0F340600028F2D1AF
:105200002CE0A069012800D1E4E51648001D0668DD
:10521000A069012820D006F48001E06981421BD1F9
:1052200006F03F01206A814216D147F6C070304037
:10523000616AB0EB811F0FD106F440310122A06AF0
:10524000C2EB5000B1EB004F06D106F070612C208C
:10525000005DB1EB006F01D00120BBE50020B9E596
:10526000000047420038024010B504460CB9012046
:1052700010BD606A38B96068B0F5827F00D105E082
:105280000021E16102E00021216161610021A16250
:1052900094F8510028B9002084F85000204600F00E
:1052A00047F8022084F851002068006820F0400090
:1052B00021680860A08800F48270218901F404410B
:1052C0000843A18901F400610843217C01F0020137
:1052D0000843217D01F001010843218B01F4007195
:1052E0000843217F01F0380108432021095D01F0C6
:1052F00080010843218D01F40051084321680860B2
:105300000421A06901EA104094F8241001F0100172
:105310000843216848602068C06920F40060216863
:10532000C86100206065012084F8510000209FE7DB
:1053300010B586B00446142101A8FBF760F94B496B
:10534000206888427ED100BF002000904848006855
:1053500040F48050464908600846006800F48050D8
:10536000009000BF00BF00BF0020009040481438EC
:10537000006840F002003E491439086008460068A1
:1053800000F00200009000BF00BF00BF00200090AE
:105390000846006840F0010008600846006800F018
:1053A0000100009000BF00BF182001900220029071
:1053B00001200390032004900520059001A92D48A9
:1053C000FEF7FCFA80200190022002900120039059
:1053D000032004900520059001A92748FEF7EEFA66
:1053E0002648274908604FF0C060486000212448E3
:1053F0008160C1604FF48061016100214161816180
:10540000C1614FF44031016200214162FEF726FA8A
:1054100008B1FCF7A9FC00BF1948E064846300BF31
:1054200016481830174908604FF0C06048604021A6
:10543000144881600021C1604FF480610161002146
:10544000416100E010E08161C1614FF4003101620F
:1054500000214162FEF702FA08B1FCF785FC00BFAB
:105460000848A064846300BF06B010BD003001404E
:105470004438024000040240000002404064024000
:10548000680D0020C80D00202DE9FF5F0446884606
:1054900091461D460E9E012002900020019000BF03
:1054A00094F85000012803D1022004B0BDE8F09F19
:1054B000012084F8500000BFFEF780FB074694F8F7
:1054C00051B060680390AA46BBF1010F0BD003985E
:1054D000B0F5827F04D1A06810B9BBF1040F02D0EF
:1054E00002200190DBE0B8F1000F03D0B9F1000F0A
:1054F00000D015B901200190D1E094F851000428A2
:1055000002D0052084F8510000206065C4F838906E
:10551000E587A587C4F83080E586A58620646064A9
:105520002068006800F04000402805D0206800682E
:1055300040F0400021680860E068B0F5006F4AD193
:10554000606810B1BAF1010F09D1206B00882168A1
:10555000C860206B801C2063E08E401EE08633E034
:105560002068806800F00200022810D1E08E70B13F
:10557000029801280BD1206B00882168C860206B3D
:10558000801C2063E08E401EE08600200290206890
:10559000806800F0010068B1E08F58B12068C068F1
:1055A000A16B0880A06B801CA063E08F401EE08789
:1055B00001200290FEF702FBC01BB04204D3701C16
:1055C00010B1032001906AE0E08E0028C8D1E08F7E
:1055D0000028C5D14AE0606810B1BAF1010F09D1C5
:1055E000206B007821680873206B401C2063E08EDC
:1055F000401EE08634E02068806800F00200022847
:1056000010D1E08E70B1029801280BD1206B007888
:1056100021680873206B401C2063E08E401EE086EA
:10562000002002902068806800F0010068B1E08FDF
:1056300058B12068C068A16B0870A06B401CA063C3
:10564000E08F401EE08701200290FEF7B7FAC01BF2
:10565000B04201D3701C00B916B9032001901EE0BE
:10566000E08E0028C7D1E08F0028C4D13A463146E9
:10567000204604F071FD20B10120019020206065DA
:105680000DE0A06850B900BF002000902068C068FD
:10569000009020688068009000BF00BF00BF01201C
:1056A00084F8510000BF002084F8500000BF01982A
:1056B000FBE670B504462546681EB0F1807F01D335
:1056C00001200FE0681E4FF0E02148610F214FF0EC
:1056D000FF3008F06FF900204FF0E02188610720CB
:1056E0000861002070BD7047704710B50346002266
:1056F00000BF93F83C00012801D1022010BD012019
:1057000083F83C0000BF22F0FF00CC6840EA0402AE
:1057100022F440708C6840EA040222F480604C68F5
:1057200040EA040222F400600C6840EA040222F419
:1057300080500C6940EA040222F400504C6940EAAF
:10574000040222F48040CC6940EA040218684264F2
:1057500000BF002083F83C0000BF00BFCEE7000080
:1057600030B502460B4600BF92F83C00012801D13B
:10577000022030BD012082F83C0000BF022082F8E8
:105780003D00106844681068816824F0700418684F
:10579000044310684460184D1068A8421BD010687C
:1057A000B0F1804F17D0154D1068A84213D0144D9A
:1057B0001068A8420FD0134D1068A8420BD0124DAC
:1057C0001068A84207D0114D1068A84203D0104DB0
:1057D0001068A84205D121F0800158680143106883
:1057E0008160012082F83D0000BF002082F83C006B
:1057F00000BF00BFBDE70000000001400004004002
:1058000000080040000C004000040140004001403E
:105810000018004010B504460CB9012010BD94F8E2
:105820003D0028B9002084F83C00204600F026F80E
:10583000022084F83D00211D206804F0CFFE0120E5
:1058400084F8460000BF84F83E0001213F20015546
:10585000402001554120015500BF00BF012084F8C0
:10586000420043200155442001554520015500BF09
:10587000012084F83D000020D0E7000010B586B07C
:105880000446142101A8FAF7BAFE49492068884263
:105890000FD100BF002000904648006840F0010092
:1058A000444908600846006800F00100009000BF0D
:1058B0007CE04149206888421AD100BF0020009056
:1058C0003C48001F006840F004003A49091F086086
:1058D0000846006800F00400009000BF00BF0022EE
:1058E00005211E20FEF7FAF91E20FEF7E7F95DE01C
:1058F00032492068884211D100BF002000902D4815
:10590000001F006840F010002A49091F086008467F
:10591000006800F01000009000BF47E028492068B0
:1059200088420FD100BF002000902248006840F05C
:105930000200204908600846006800F0020000905C
:1059400000BF33E01F49206888422FD100BF0020EC
:1059500000901848006840F4003016490860084676
:10596000006800F40030009000BF00BF00BF0020BE
:10597000009010481438006840F020000D49143998
:1059800008600846006800F02000009000BF00BFDB
:1059900040200190022002900120039002200490F8
:1059A0000320059001A90848FEF708F806B010BDCD
:1059B0000000014044380240000800400010004050
:1059C000000401400044014000140240014691F8E7
:1059D0003D00012801D001207047022081F83D00E0
:1059E0001A4B086898421BD00868B0F1804F17D056
:1059F000174B0868984213D0164B086898420FD08E
:105A0000154B086898420BD0144B0868984207D091
:105A1000134B0868984203D0124B086898420CD187
:105A20000868806800F00702062A0CD00868006841
:105A300040F001000B68186005E00868006840F05D
:105A400001000B6818600020C6E70000000001405C
:105A50000004004000080040000C00400004014029
:105A600000400140001800402DE9F04104460D4679
:105A7000002700BF94F83C00012802D10220BDE8B5
:105A8000F081012084F83C0000BF022084F83D0032
:105A90002068866826F0770626F47F4620688660B0
:105AA0002868502833D00CDC202850D004DC002893
:105AB0004BD0102851D149E0302849D040284CD152
:105AC00039E060282DD0702807D0B0F5805F03D072
:105AD000B0F5005F41D10DE041E0D5E902136A68FD
